{
  "contractName": "Bank",
  "abi": [
    {
      "anonymous": false,
      "inputs": [
        {
          "indexed": false,
          "internalType": "address",
          "name": "previousAdmin",
          "type": "address"
        },
        {
          "indexed": false,
          "internalType": "address",
          "name": "newAdmin",
          "type": "address"
        }
      ],
      "name": "AdminChanged",
      "type": "event"
    },
    {
      "anonymous": false,
      "inputs": [
        {
          "indexed": true,
          "internalType": "address",
          "name": "beacon",
          "type": "address"
        }
      ],
      "name": "BeaconUpgraded",
      "type": "event"
    },
    {
      "anonymous": false,
      "inputs": [
        {
          "indexed": false,
          "internalType": "uint8",
          "name": "version",
          "type": "uint8"
        }
      ],
      "name": "Initialized",
      "type": "event"
    },
    {
      "anonymous": false,
      "inputs": [
        {
          "indexed": true,
          "internalType": "address",
          "name": "previousOwner",
          "type": "address"
        },
        {
          "indexed": true,
          "internalType": "address",
          "name": "newOwner",
          "type": "address"
        }
      ],
      "name": "OwnershipTransferred",
      "type": "event"
    },
    {
      "anonymous": false,
      "inputs": [
        {
          "indexed": true,
          "internalType": "address",
          "name": "owner",
          "type": "address"
        },
        {
          "indexed": true,
          "internalType": "bytes32",
          "name": "sessionId",
          "type": "bytes32"
        },
        {
          "indexed": true,
          "internalType": "bytes32",
          "name": "thxId",
          "type": "bytes32"
        }
      ],
      "name": "SessionChanged",
      "type": "event"
    },
    {
      "anonymous": false,
      "inputs": [
        {
          "indexed": true,
          "internalType": "address",
          "name": "implementation",
          "type": "address"
        }
      ],
      "name": "Upgraded",
      "type": "event"
    },
    {
      "inputs": [
        {
          "internalType": "address",
          "name": "_game",
          "type": "address"
        }
      ],
      "name": "addGameRole",
      "outputs": [],
      "stateMutability": "nonpayable",
      "type": "function"
    },
    {
      "inputs": [
        {
          "internalType": "bytes32",
          "name": "",
          "type": "bytes32"
        }
      ],
      "name": "executed",
      "outputs": [
        {
          "internalType": "bool",
          "name": "",
          "type": "bool"
        }
      ],
      "stateMutability": "view",
      "type": "function"
    },
    {
      "inputs": [],
      "name": "owner",
      "outputs": [
        {
          "internalType": "address",
          "name": "",
          "type": "address"
        }
      ],
      "stateMutability": "view",
      "type": "function"
    },
    {
      "inputs": [],
      "name": "proxiableUUID",
      "outputs": [
        {
          "internalType": "bytes32",
          "name": "",
          "type": "bytes32"
        }
      ],
      "stateMutability": "view",
      "type": "function"
    },
    {
      "inputs": [
        {
          "internalType": "address",
          "name": "_game",
          "type": "address"
        }
      ],
      "name": "removeGameRole",
      "outputs": [],
      "stateMutability": "nonpayable",
      "type": "function"
    },
    {
      "inputs": [],
      "name": "renounceOwnership",
      "outputs": [],
      "stateMutability": "nonpayable",
      "type": "function"
    },
    {
      "inputs": [
        {
          "internalType": "address",
          "name": "",
          "type": "address"
        }
      ],
      "name": "sessions",
      "outputs": [
        {
          "internalType": "bytes32",
          "name": "",
          "type": "bytes32"
        }
      ],
      "stateMutability": "view",
      "type": "function"
    },
    {
      "inputs": [
        {
          "internalType": "address",
          "name": "",
          "type": "address"
        }
      ],
      "name": "syncedAt",
      "outputs": [
        {
          "internalType": "uint256",
          "name": "",
          "type": "uint256"
        }
      ],
      "stateMutability": "view",
      "type": "function"
    },
    {
      "inputs": [
        {
          "internalType": "address",
          "name": "newOwner",
          "type": "address"
        }
      ],
      "name": "transferOwnership",
      "outputs": [],
      "stateMutability": "nonpayable",
      "type": "function"
    },
    {
      "inputs": [
        {
          "internalType": "address",
          "name": "newImplementation",
          "type": "address"
        }
      ],
      "name": "upgradeTo",
      "outputs": [],
      "stateMutability": "nonpayable",
      "type": "function"
    },
    {
      "inputs": [
        {
          "internalType": "address",
          "name": "newImplementation",
          "type": "address"
        },
        {
          "internalType": "bytes",
          "name": "data",
          "type": "bytes"
        }
      ],
      "name": "upgradeToAndCall",
      "outputs": [],
      "stateMutability": "payable",
      "type": "function"
    },
    {
      "inputs": [],
      "name": "initialize",
      "outputs": [],
      "stateMutability": "nonpayable",
      "type": "function"
    },
    {
      "inputs": [
        {
          "internalType": "contract FunflowerFarmToken",
          "name": "_fffToken",
          "type": "address"
        }
      ],
      "name": "setTokens",
      "outputs": [],
      "stateMutability": "nonpayable",
      "type": "function"
    },
    {
      "inputs": [
        {
          "internalType": "uint256",
          "name": "_fee",
          "type": "uint256"
        }
      ],
      "name": "setWithdrawFee",
      "outputs": [],
      "stateMutability": "nonpayable",
      "type": "function"
    },
    {
      "inputs": [
        {
          "internalType": "address",
          "name": "_signer",
          "type": "address"
        }
      ],
      "name": "transferSigner",
      "outputs": [],
      "stateMutability": "nonpayable",
      "type": "function"
    },
    {
      "inputs": [
        {
          "internalType": "address",
          "name": "_team",
          "type": "address"
        }
      ],
      "name": "transferWithdrawFeeWallet",
      "outputs": [],
      "stateMutability": "nonpayable",
      "type": "function"
    },
    {
      "inputs": [
        {
          "internalType": "address",
          "name": "_address",
          "type": "address"
        }
      ],
      "name": "getSessionId",
      "outputs": [
        {
          "internalType": "bytes32",
          "name": "",
          "type": "bytes32"
        }
      ],
      "stateMutability": "view",
      "type": "function"
    },
    {
      "inputs": [
        {
          "internalType": "bytes",
          "name": "signature",
          "type": "bytes"
        },
        {
          "internalType": "bytes32",
          "name": "sessionId",
          "type": "bytes32"
        },
        {
          "internalType": "uint256",
          "name": "fff",
          "type": "uint256"
        }
      ],
      "name": "withdraw",
      "outputs": [
        {
          "internalType": "bool",
          "name": "",
          "type": "bool"
        }
      ],
      "stateMutability": "payable",
      "type": "function"
    }
  ],
  "bytecode": "0x60a06040523073ffffffffffffffffffffffffffffffffffffffff1660809073ffffffffffffffffffffffffffffffffffffffff1681525034801561004357600080fd5b5060805161358661007b600039600081816104f30152818161058101528181610813015281816108a1015261096901526135866000f3fe6080604052600436106101095760003560e01c80637323b8fa11610095578063a9fcfb3311610064578063a9fcfb331461031e578063b6ac642a1461035b578063c49d30b214610384578063e286dd96146103c1578063f2fde38b146103f157610109565b80637323b8fa1461028a5780638129fc1c146102b35780638da5cb5b146102ca578063a639eb4d146102f557610109565b8063431a1b97116100dc578063431a1b97146101b25780634f1ef286146101ef578063512a87741461020b57806352d1902d14610248578063715018a61461027357610109565b806319892b511461010e5780633659cfe6146101375780633660a0841461016057806339a885af14610189575b600080fd5b34801561011a57600080fd5b50610135600480360381019061013091906121b1565b61041a565b005b34801561014357600080fd5b5061015e600480360381019061015991906121b1565b6104f1565b005b34801561016c57600080fd5b50610187600480360381019061018291906121b1565b610679565b005b34801561019557600080fd5b506101b060048036038101906101ab91906121b1565b610739565b005b3480156101be57600080fd5b506101d960048036038101906101d491906121b1565b6107f9565b6040516101e691906121f7565b60405180910390f35b61020960048036038101906102049190612358565b610811565b005b34801561021757600080fd5b50610232600480360381019061022d91906121b1565b61094d565b60405161023f91906123cd565b60405180910390f35b34801561025457600080fd5b5061025d610965565b60405161026a91906121f7565b60405180910390f35b34801561027f57600080fd5b50610288610a1e565b005b34801561029657600080fd5b506102b160048036038101906102ac91906121b1565b610aa6565b005b3480156102bf57600080fd5b506102c8610b7d565b005b3480156102d657600080fd5b506102df610d08565b6040516102ec91906123f7565b60405180910390f35b34801561030157600080fd5b5061031c60048036038101906103179190612450565b610d32565b005b34801561032a57600080fd5b50610345600480360381019061034091906124a9565b610df2565b60405161035291906124f1565b60405180910390f35b34801561036757600080fd5b50610382600480360381019061037d9190612538565b610e12565b005b34801561039057600080fd5b506103ab60048036038101906103a691906121b1565b610e98565b6040516103b891906121f7565b60405180910390f35b6103db60048036038101906103d69190612565565b610f1a565b6040516103e891906124f1565b60405180910390f35b3480156103fd57600080fd5b50610418600480360381019061041391906121b1565b611337565b005b61042261142e565b73ffffffffffffffffffffffffffffffffffffffff16610440610d08565b73ffffffffffffffffffffffffffffffffffffffff1614610496576040517f08c379a000000000000000000000000000000000000000000000000000000000815260040161048d90612631565b60405180910390fd5b6000606560008373ffffffffffffffffffffffffffffffffffffffff1673ffffffffffffffffffffffffffffffffffffffff16815260200190815260200160002060006101000a81548160ff02191690831515021790555050565b7f000000000000000000000000000000000000000000000000000000000000000073ffffffffffffffffffffffffffffffffffffffff163073ffffffffffffffffffffffffffffffffffffffff160361057f576040517f08c379a0000000000000000000000000000000000000000000000000000000008152600401610576906126c3565b60405180910390fd5b7f000000000000000000000000000000000000000000000000000000000000000073ffffffffffffffffffffffffffffffffffffffff166105be611436565b73ffffffffffffffffffffffffffffffffffffffff1614610614576040517f08c379a000000000000000000000000000000000000000000000000000000000815260040161060b90612755565b60405180910390fd5b61061d8161148d565b61067681600067ffffffffffffffff81111561063c5761063b61222d565b5b6040519080825280601f01601f19166020018201604052801561066e5781602001600182028036833780820191505090505b50600061150c565b50565b61068161142e565b73ffffffffffffffffffffffffffffffffffffffff1661069f610d08565b73ffffffffffffffffffffffffffffffffffffffff16146106f5576040517f08c379a00000000000000000000000000000000000000000000000000000000081526004016106ec90612631565b60405180910390fd5b8060cf60006101000a81548173ffffffffffffffffffffffffffffffffffffffff021916908373ffffffffffffffffffffffffffffffffffffffff16021790555050565b61074161142e565b73ffffffffffffffffffffffffffffffffffffffff1661075f610d08565b73ffffffffffffffffffffffffffffffffffffffff16146107b5576040517f08c379a00000000000000000000000000000000000000000000000000000000081526004016107ac90612631565b60405180910390fd5b8060ce60006101000a81548173ffffffffffffffffffffffffffffffffffffffff021916908373ffffffffffffffffffffffffffffffffffffffff16021790555050565b60cb6020528060005260406000206000915090505481565b7f000000000000000000000000000000000000000000000000000000000000000073ffffffffffffffffffffffffffffffffffffffff163073ffffffffffffffffffffffffffffffffffffffff160361089f576040517f08c379a0000000000000000000000000000000000000000000000000000000008152600401610896906126c3565b60405180910390fd5b7f000000000000000000000000000000000000000000000000000000000000000073ffffffffffffffffffffffffffffffffffffffff166108de611436565b73ffffffffffffffffffffffffffffffffffffffff1614610934576040517f08c379a000000000000000000000000000000000000000000000000000000000815260040161092b90612755565b60405180910390fd5b61093d8261148d565b6109498282600161150c565b5050565b60cc6020528060005260406000206000915090505481565b60007f000000000000000000000000000000000000000000000000000000000000000073ffffffffffffffffffffffffffffffffffffffff163073ffffffffffffffffffffffffffffffffffffffff16146109f5576040517f08c379a00000000000000000000000000000000000000000000000000000000081526004016109ec906127e7565b60405180910390fd5b7f360894a13ba1a3210667c828492db98dca3e2076cc3735a920a3ca505d382bbc60001b905090565b610a2661142e565b73ffffffffffffffffffffffffffffffffffffffff16610a44610d08565b73ffffffffffffffffffffffffffffffffffffffff1614610a9a576040517f08c379a0000000000000000000000000000000000000000000000000000000008152600401610a9190612631565b60405180910390fd5b610aa4600061167a565b565b610aae61142e565b73ffffffffffffffffffffffffffffffffffffffff16610acc610d08565b73ffffffffffffffffffffffffffffffffffffffff1614610b22576040517f08c379a0000000000000000000000000000000000000000000000000000000008152600401610b1990612631565b60405180910390fd5b6001606560008373ffffffffffffffffffffffffffffffffffffffff1673ffffffffffffffffffffffffffffffffffffffff16815260200190815260200160002060006101000a81548160ff02191690831515021790555050565b6000610b896001611740565b90508015610bad576001600060016101000a81548160ff0219169083151502179055505b610bb5611830565b6001606560003373ffffffffffffffffffffffffffffffffffffffff1673ffffffffffffffffffffffffffffffffffffffff16815260200190815260200160002060006101000a81548160ff02191690831515021790555067016345785d8a000060cd81905550610c2461142e565b60ce60006101000a81548173ffffffffffffffffffffffffffffffffffffffff021916908373ffffffffffffffffffffffffffffffffffffffff160217905550610c6c61142e565b60cf60006101000a81548173ffffffffffffffffffffffffffffffffffffffff021916908373ffffffffffffffffffffffffffffffffffffffff1602179055508015610d055760008060016101000a81548160ff0219169083151502179055507f7f26b83ff96e1f2b6a682f133852f6798a09c465da95921460cefb38474024986001604051610cfc9190612859565b60405180910390a15b50565b6000603360009054906101000a900473ffffffffffffffffffffffffffffffffffffffff16905090565b610d3a61142e565b73ffffffffffffffffffffffffffffffffffffffff16610d58610d08565b73ffffffffffffffffffffffffffffffffffffffff1614610dae576040517f08c379a0000000000000000000000000000000000000000000000000000000008152600401610da590612631565b60405180910390fd5b8060d060006101000a81548173ffffffffffffffffffffffffffffffffffffffff021916908373ffffffffffffffffffffffffffffffffffffffff16021790555050565b60ca6020528060005260406000206000915054906101000a900460ff1681565b610e1a61142e565b73ffffffffffffffffffffffffffffffffffffffff16610e38610d08565b73ffffffffffffffffffffffffffffffffffffffff1614610e8e576040517f08c379a0000000000000000000000000000000000000000000000000000000008152600401610e8590612631565b60405180910390fd5b8060cd8190555050565b60008060cb60008473ffffffffffffffffffffffffffffffffffffffff1673ffffffffffffffffffffffffffffffffffffffff1681526020019081526020016000205490506000801b8103610f115730604051602001610ef891906123f7565b6040516020818303038152906040528051906020012090505b80915050919050565b600060cd54341015610f61576040517f08c379a0000000000000000000000000000000000000000000000000000000008152600401610f58906128c0565b60405180910390fd5b6000610f73610f6e61142e565b610e98565b9050838114610fb7576040517f08c379a0000000000000000000000000000000000000000000000000000000008152600401610fae90612952565b60405180910390fd5b6000610fc9610fc461142e565b6118c4565b90508060cb6000610fd861142e565b73ffffffffffffffffffffffffffffffffffffffff1673ffffffffffffffffffffffffffffffffffffffff168152602001908152602001600020819055504260cc600061102361142e565b73ffffffffffffffffffffffffffffffffffffffff1673ffffffffffffffffffffffffffffffffffffffff1681526020019081526020016000208190555060008561106c61142e565b8660405160200161107f93929190612972565b60405160208183030381529060405280519060200120905060ca600082815260200190815260200160002060009054906101000a900460ff16156110f8576040517f08c379a00000000000000000000000000000000000000000000000000000000081526004016110ef906129f5565b60405180910390fd5b6111028188611946565b611141576040517f08c379a000000000000000000000000000000000000000000000000000000000815260040161113890612a61565b60405180910390fd5b600160ca600083815260200190815260200160002060006101000a81548160ff02191690831515021790555060d060009054906101000a900473ffffffffffffffffffffffffffffffffffffffff1673ffffffffffffffffffffffffffffffffffffffff16634eb9029933876040518363ffffffff1660e01b81526004016111ca929190612a81565b6020604051808303816000875af11580156111e9573d6000803e3d6000fd5b505050506040513d601f19601f8201168201806040525081019061120d9190612ad6565b50600060ce60009054906101000a900473ffffffffffffffffffffffffffffffffffffffff1673ffffffffffffffffffffffffffffffffffffffff163460405161125690612b34565b60006040518083038185875af1925050503d8060008114611293576040519150601f19603f3d011682016040523d82523d6000602084013e611298565b606091505b50509050806112dc576040517f08c379a00000000000000000000000000000000000000000000000000000000081526004016112d390612b95565b60405180910390fd5b81836112e661142e565b73ffffffffffffffffffffffffffffffffffffffff167fcac9af989a516c4c60edc5fbf71447795c7f8d6c5037e3e8d7d19b07b4c3c72960405160405180910390a460019450505050509392505050565b61133f61142e565b73ffffffffffffffffffffffffffffffffffffffff1661135d610d08565b73ffffffffffffffffffffffffffffffffffffffff16146113b3576040517f08c379a00000000000000000000000000000000000000000000000000000000081526004016113aa90612631565b60405180910390fd5b600073ffffffffffffffffffffffffffffffffffffffff168173ffffffffffffffffffffffffffffffffffffffff1603611422576040517f08c379a000000000000000000000000000000000000000000000000000000000815260040161141990612c27565b60405180910390fd5b61142b8161167a565b50565b600033905090565b60006114647f360894a13ba1a3210667c828492db98dca3e2076cc3735a920a3ca505d382bbc60001b6119c0565b60000160009054906101000a900473ffffffffffffffffffffffffffffffffffffffff16905090565b61149561142e565b73ffffffffffffffffffffffffffffffffffffffff166114b3610d08565b73ffffffffffffffffffffffffffffffffffffffff1614611509576040517f08c379a000000000000000000000000000000000000000000000000000000000815260040161150090612631565b60405180910390fd5b50565b6115387f4910fdfa16fed3260ed0e7147f7cc6da11a60208b5b9406d12a635614ffd914360001b6119ca565b60000160009054906101000a900460ff161561155c57611557836119d4565b611675565b8273ffffffffffffffffffffffffffffffffffffffff166352d1902d6040518163ffffffff1660e01b8152600401602060405180830381865afa9250505080156115c457506040513d601f19601f820116820180604052508101906115c19190612c5c565b60015b611603576040517f08c379a00000000000000000000000000000000000000000000000000000000081526004016115fa90612cfb565b60405180910390fd5b7f360894a13ba1a3210667c828492db98dca3e2076cc3735a920a3ca505d382bbc60001b8114611668576040517f08c379a000000000000000000000000000000000000000000000000000000000815260040161165f90612d8d565b60405180910390fd5b50611674838383611a8d565b5b505050565b6000603360009054906101000a900473ffffffffffffffffffffffffffffffffffffffff16905081603360006101000a81548173ffffffffffffffffffffffffffffffffffffffff021916908373ffffffffffffffffffffffffffffffffffffffff1602179055508173ffffffffffffffffffffffffffffffffffffffff168173ffffffffffffffffffffffffffffffffffffffff167f8be0079c531659141344cd1fd0a4f28419497f9722a3daafe3b4186f6b6457e060405160405180910390a35050565b60008060019054906101000a900460ff16156117b75760018260ff1614801561176f575061176d30611ab9565b155b6117ae576040517f08c379a00000000000000000000000000000000000000000000000000000000081526004016117a590612e1f565b60405180910390fd5b6000905061182b565b8160ff1660008054906101000a900460ff1660ff161061180c576040517f08c379a000000000000000000000000000000000000000000000000000000000815260040161180390612e1f565b60405180910390fd5b816000806101000a81548160ff021916908360ff160217905550600190505b919050565b600061183c6001611740565b90508015611860576001600060016101000a81548160ff0219169083151502179055505b611868611adc565b80156118c15760008060016101000a81548160ff0219169083151502179055507f7f26b83ff96e1f2b6a682f133852f6798a09c465da95921460cefb384740249860016040516118b89190612859565b60405180910390a15b50565b600061193f6118d161142e565b60cb60008573ffffffffffffffffffffffffffffffffffffffff1673ffffffffffffffffffffffffffffffffffffffff168152602001908152602001600020544360405160200161192493929190612ec9565b60405160208183030381529060405280519060200120611b35565b9050919050565b60008061195284611b35565b905060cf60009054906101000a900473ffffffffffffffffffffffffffffffffffffffff1673ffffffffffffffffffffffffffffffffffffffff166119a08483611b6590919063ffffffff16565b73ffffffffffffffffffffffffffffffffffffffff161491505092915050565b6000819050919050565b6000819050919050565b6119dd81611ab9565b611a1c576040517f08c379a0000000000000000000000000000000000000000000000000000000008152600401611a1390612f78565b60405180910390fd5b80611a497f360894a13ba1a3210667c828492db98dca3e2076cc3735a920a3ca505d382bbc60001b6119c0565b60000160006101000a81548173ffffffffffffffffffffffffffffffffffffffff021916908373ffffffffffffffffffffffffffffffffffffffff16021790555050565b611a9683611b8c565b600082511180611aa35750805b15611ab457611ab28383611bdb565b505b505050565b6000808273ffffffffffffffffffffffffffffffffffffffff163b119050919050565b600060019054906101000a900460ff16611b2b576040517f08c379a0000000000000000000000000000000000000000000000000000000008152600401611b229061300a565b60405180910390fd5b611b33611cbf565b565b600081604051602001611b489190613081565b604051602081830303815290604052805190602001209050919050565b6000806000611b748585611d20565b91509150611b8181611da1565b819250505092915050565b611b95816119d4565b8073ffffffffffffffffffffffffffffffffffffffff167fbc7cd75a20ee27fd9adebab32041f755214dbc6bffa90cc0225b39da2e5c2d3b60405160405180910390a250565b6060611be683611ab9565b611c25576040517f08c379a0000000000000000000000000000000000000000000000000000000008152600401611c1c90613119565b60405180910390fd5b6000808473ffffffffffffffffffffffffffffffffffffffff1684604051611c4d91906131a8565b600060405180830381855af49150503d8060008114611c88576040519150601f19603f3d011682016040523d82523d6000602084013e611c8d565b606091505b5091509150611cb5828260405180606001604052806027815260200161352a60279139611f6d565b9250505092915050565b600060019054906101000a900460ff16611d0e576040517f08c379a0000000000000000000000000000000000000000000000000000000008152600401611d059061300a565b60405180910390fd5b611d1e611d1961142e565b61167a565b565b6000806041835103611d615760008060006020860151925060408601519150606086015160001a9050611d5587828585611fd4565b94509450505050611d9a565b6040835103611d91576000806020850151915060408501519050611d868683836120e0565b935093505050611d9a565b60006002915091505b9250929050565b60006004811115611db557611db46131bf565b5b816004811115611dc857611dc76131bf565b5b0315611f6a5760016004811115611de257611de16131bf565b5b816004811115611df557611df46131bf565b5b03611e35576040517f08c379a0000000000000000000000000000000000000000000000000000000008152600401611e2c9061323a565b60405180910390fd5b60026004811115611e4957611e486131bf565b5b816004811115611e5c57611e5b6131bf565b5b03611e9c576040517f08c379a0000000000000000000000000000000000000000000000000000000008152600401611e93906132a6565b60405180910390fd5b60036004811115611eb057611eaf6131bf565b5b816004811115611ec357611ec26131bf565b5b03611f03576040517f08c379a0000000000000000000000000000000000000000000000000000000008152600401611efa90613338565b60405180910390fd5b600480811115611f1657611f156131bf565b5b816004811115611f2957611f286131bf565b5b03611f69576040517f08c379a0000000000000000000000000000000000000000000000000000000008152600401611f60906133ca565b60405180910390fd5b5b50565b60608315611f7d57829050611fcd565b600083511115611f905782518084602001fd5b816040517f08c379a0000000000000000000000000000000000000000000000000000000008152600401611fc4919061342e565b60405180910390fd5b9392505050565b6000807f7fffffffffffffffffffffffffffffff5d576e7357a4501ddfe92f46681b20a08360001c111561200f5760006003915091506120d7565b601b8560ff16141580156120275750601c8560ff1614155b156120395760006004915091506120d7565b60006001878787876040516000815260200160405260405161205e949392919061345f565b6020604051602081039080840390855afa158015612080573d6000803e3d6000fd5b505050602060405103519050600073ffffffffffffffffffffffffffffffffffffffff168173ffffffffffffffffffffffffffffffffffffffff16036120ce576000600192509250506120d7565b80600092509250505b94509492505050565b60008060007f7fffffffffffffffffffffffffffffffffffffffffffffffffffffffffffffff60001b841690506000601b60ff8660001c901c61212391906134d3565b905061213187828885611fd4565b935093505050935093915050565b6000604051905090565b600080fd5b600080fd5b600073ffffffffffffffffffffffffffffffffffffffff82169050919050565b600061217e82612153565b9050919050565b61218e81612173565b811461219957600080fd5b50565b6000813590506121ab81612185565b92915050565b6000602082840312156121c7576121c6612149565b5b60006121d58482850161219c565b91505092915050565b6000819050919050565b6121f1816121de565b82525050565b600060208201905061220c60008301846121e8565b92915050565b600080fd5b600080fd5b6000601f19601f8301169050919050565b7f4e487b7100000000000000000000000000000000000000000000000000000000600052604160045260246000fd5b6122658261221c565b810181811067ffffffffffffffff821117156122845761228361222d565b5b80604052505050565b600061229761213f565b90506122a3828261225c565b919050565b600067ffffffffffffffff8211156122c3576122c261222d565b5b6122cc8261221c565b9050602081019050919050565b82818337600083830152505050565b60006122fb6122f6846122a8565b61228d565b90508281526020810184848401111561231757612316612217565b5b6123228482856122d9565b509392505050565b600082601f83011261233f5761233e612212565b5b813561234f8482602086016122e8565b91505092915050565b6000806040838503121561236f5761236e612149565b5b600061237d8582860161219c565b925050602083013567ffffffffffffffff81111561239e5761239d61214e565b5b6123aa8582860161232a565b9150509250929050565b6000819050919050565b6123c7816123b4565b82525050565b60006020820190506123e260008301846123be565b92915050565b6123f181612173565b82525050565b600060208201905061240c60008301846123e8565b92915050565b600061241d82612173565b9050919050565b61242d81612412565b811461243857600080fd5b50565b60008135905061244a81612424565b92915050565b60006020828403121561246657612465612149565b5b60006124748482850161243b565b91505092915050565b612486816121de565b811461249157600080fd5b50565b6000813590506124a38161247d565b92915050565b6000602082840312156124bf576124be612149565b5b60006124cd84828501612494565b91505092915050565b60008115159050919050565b6124eb816124d6565b82525050565b600060208201905061250660008301846124e2565b92915050565b612515816123b4565b811461252057600080fd5b50565b6000813590506125328161250c565b92915050565b60006020828403121561254e5761254d612149565b5b600061255c84828501612523565b91505092915050565b60008060006060848603121561257e5761257d612149565b5b600084013567ffffffffffffffff81111561259c5761259b61214e565b5b6125a88682870161232a565b93505060206125b986828701612494565b92505060406125ca86828701612523565b9150509250925092565b600082825260208201905092915050565b7f4f776e61626c653a2063616c6c6572206973206e6f7420746865206f776e6572600082015250565b600061261b6020836125d4565b9150612626826125e5565b602082019050919050565b6000602082019050818103600083015261264a8161260e565b9050919050565b7f46756e6374696f6e206d7573742062652063616c6c6564207468726f7567682060008201527f64656c656761746563616c6c0000000000000000000000000000000000000000602082015250565b60006126ad602c836125d4565b91506126b882612651565b604082019050919050565b600060208201905081810360008301526126dc816126a0565b9050919050565b7f46756e6374696f6e206d7573742062652063616c6c6564207468726f7567682060008201527f6163746976652070726f78790000000000000000000000000000000000000000602082015250565b600061273f602c836125d4565b915061274a826126e3565b604082019050919050565b6000602082019050818103600083015261276e81612732565b9050919050565b7f555550535570677261646561626c653a206d757374206e6f742062652063616c60008201527f6c6564207468726f7567682064656c656761746563616c6c0000000000000000602082015250565b60006127d16038836125d4565b91506127dc82612775565b604082019050919050565b60006020820190508181036000830152612800816127c4565b9050919050565b6000819050919050565b600060ff82169050919050565b6000819050919050565b600061284361283e61283984612807565b61281e565b612811565b9050919050565b61285381612828565b82525050565b600060208201905061286e600083018461284a565b92915050565b7f46756e666c6f776572204661726d3a204d697373696e67206665650000000000600082015250565b60006128aa601b836125d4565b91506128b582612874565b602082019050919050565b600060208201905081810360008301526128d98161289d565b9050919050565b7f46756e666c6f776572204661726d3a2053657373696f6e20686173206368616e60008201527f6765640000000000000000000000000000000000000000000000000000000000602082015250565b600061293c6023836125d4565b9150612947826128e0565b604082019050919050565b6000602082019050818103600083015261296b8161292f565b9050919050565b600060608201905061298760008301866121e8565b61299460208301856123e8565b6129a160408301846123be565b949350505050565b7f46756e666c6f776572204661726d3a2054782045786563757465640000000000600082015250565b60006129df601b836125d4565b91506129ea826129a9565b602082019050919050565b60006020820190508181036000830152612a0e816129d2565b9050919050565b7f46756e666c6f776572204661726d3a20556e617574686f726973656400000000600082015250565b6000612a4b601c836125d4565b9150612a5682612a15565b602082019050919050565b60006020820190508181036000830152612a7a81612a3e565b9050919050565b6000604082019050612a9660008301856123e8565b612aa360208301846123be565b9392505050565b612ab3816124d6565b8114612abe57600080fd5b50565b600081519050612ad081612aaa565b92915050565b600060208284031215612aec57612aeb612149565b5b6000612afa84828501612ac1565b91505092915050565b600081905092915050565b50565b6000612b1e600083612b03565b9150612b2982612b0e565b600082019050919050565b6000612b3f82612b11565b9150819050919050565b7f46756e666c6f776572204661726d3a20466565204661696c6564000000000000600082015250565b6000612b7f601a836125d4565b9150612b8a82612b49565b602082019050919050565b60006020820190508181036000830152612bae81612b72565b9050919050565b7f4f776e61626c653a206e6577206f776e657220697320746865207a65726f206160008201527f6464726573730000000000000000000000000000000000000000000000000000602082015250565b6000612c116026836125d4565b9150612c1c82612bb5565b604082019050919050565b60006020820190508181036000830152612c4081612c04565b9050919050565b600081519050612c568161247d565b92915050565b600060208284031215612c7257612c71612149565b5b6000612c8084828501612c47565b91505092915050565b7f45524331393637557067726164653a206e657720696d706c656d656e7461746960008201527f6f6e206973206e6f742055555053000000000000000000000000000000000000602082015250565b6000612ce5602e836125d4565b9150612cf082612c89565b604082019050919050565b60006020820190508181036000830152612d1481612cd8565b9050919050565b7f45524331393637557067726164653a20756e737570706f727465642070726f7860008201527f6961626c65555549440000000000000000000000000000000000000000000000602082015250565b6000612d776029836125d4565b9150612d8282612d1b565b604082019050919050565b60006020820190508181036000830152612da681612d6a565b9050919050565b7f496e697469616c697a61626c653a20636f6e747261637420697320616c72656160008201527f647920696e697469616c697a6564000000000000000000000000000000000000602082015250565b6000612e09602e836125d4565b9150612e1482612dad565b604082019050919050565b60006020820190508181036000830152612e3881612dfc565b9050919050565b60008160601b9050919050565b6000612e5782612e3f565b9050919050565b6000612e6982612e4c565b9050919050565b612e81612e7c82612173565b612e5e565b82525050565b6000819050919050565b612ea2612e9d826121de565b612e87565b82525050565b6000819050919050565b612ec3612ebe826123b4565b612ea8565b82525050565b6000612ed58286612e70565b601482019150612ee58285612e91565b602082019150612ef58284612eb2565b602082019150819050949350505050565b7f455243313936373a206e657720696d706c656d656e746174696f6e206973206e60008201527f6f74206120636f6e747261637400000000000000000000000000000000000000602082015250565b6000612f62602d836125d4565b9150612f6d82612f06565b604082019050919050565b60006020820190508181036000830152612f9181612f55565b9050919050565b7f496e697469616c697a61626c653a20636f6e7472616374206973206e6f74206960008201527f6e697469616c697a696e67000000000000000000000000000000000000000000602082015250565b6000612ff4602b836125d4565b9150612fff82612f98565b604082019050919050565b6000602082019050818103600083015261302381612fe7565b9050919050565b600081905092915050565b7f19457468657265756d205369676e6564204d6573736167653a0a333200000000600082015250565b600061306b601c8361302a565b915061307682613035565b601c82019050919050565b600061308c8261305e565b91506130988284612e91565b60208201915081905092915050565b7f416464726573733a2064656c65676174652063616c6c20746f206e6f6e2d636f60008201527f6e74726163740000000000000000000000000000000000000000000000000000602082015250565b60006131036026836125d4565b915061310e826130a7565b604082019050919050565b60006020820190508181036000830152613132816130f6565b9050919050565b600081519050919050565b60005b83811015613162578082015181840152602081019050613147565b83811115613171576000848401525b50505050565b600061318282613139565b61318c8185612b03565b935061319c818560208601613144565b80840191505092915050565b60006131b48284613177565b915081905092915050565b7f4e487b7100000000000000000000000000000000000000000000000000000000600052602160045260246000fd5b7f45434453413a20696e76616c6964207369676e61747572650000000000000000600082015250565b60006132246018836125d4565b915061322f826131ee565b602082019050919050565b6000602082019050818103600083015261325381613217565b9050919050565b7f45434453413a20696e76616c6964207369676e6174757265206c656e67746800600082015250565b6000613290601f836125d4565b915061329b8261325a565b602082019050919050565b600060208201905081810360008301526132bf81613283565b9050919050565b7f45434453413a20696e76616c6964207369676e6174757265202773272076616c60008201527f7565000000000000000000000000000000000000000000000000000000000000602082015250565b60006133226022836125d4565b915061332d826132c6565b604082019050919050565b6000602082019050818103600083015261335181613315565b9050919050565b7f45434453413a20696e76616c6964207369676e6174757265202776272076616c60008201527f7565000000000000000000000000000000000000000000000000000000000000602082015250565b60006133b46022836125d4565b91506133bf82613358565b604082019050919050565b600060208201905081810360008301526133e3816133a7565b9050919050565b600081519050919050565b6000613400826133ea565b61340a81856125d4565b935061341a818560208601613144565b6134238161221c565b840191505092915050565b6000602082019050818103600083015261344881846133f5565b905092915050565b61345981612811565b82525050565b600060808201905061347460008301876121e8565b6134816020830186613450565b61348e60408301856121e8565b61349b60608301846121e8565b95945050505050565b7f4e487b7100000000000000000000000000000000000000000000000000000000600052601160045260246000fd5b60006134de826123b4565b91506134e9836123b4565b9250827fffffffffffffffffffffffffffffffffffffffffffffffffffffffffffffffff0382111561351e5761351d6134a4565b5b82820190509291505056fe416464726573733a206c6f772d6c6576656c2064656c65676174652063616c6c206661696c6564a2646970667358221220ffb78ea0a895b866badcb7e87f2fa72bc6a56bca5d89ff9822f89268047ce42364736f6c634300080d0033",
  "immutableReferences": {
    "685": [
      {
        "length": 32,
        "start": 1267
      },
      {
        "length": 32,
        "start": 1409
      },
      {
        "length": 32,
        "start": 2067
      },
      {
        "length": 32,
        "start": 2209
      },
      {
        "length": 32,
        "start": 2409
      }
    ]
  },
  "source": "   \n// SPDX-License-Identifier: MIT\npragma solidity ^0.8.0;\n\nimport \"@openzeppelin/contracts-upgradeable/proxy/utils/UUPSUpgradeable.sol\";\nimport \"@openzeppelin/contracts/utils/cryptography/ECDSA.sol\";\n\nimport \"./GameOwnerUpgradeable.sol\";\nimport \"./FFFToken.sol\";\n\ncontract Bank is GameOwnerUpgradeable, UUPSUpgradeable {\n\n    using ECDSA for bytes32;\n\n    event SessionChanged(address indexed owner, bytes32 indexed sessionId, bytes32 indexed thxId);\n\n    mapping(bytes32 => bool) public executed;\n\n    mapping(address => bytes32) public sessions;\n    mapping(address => uint) public syncedAt;\n\n    uint private withdrawFee;\n    address private withdrawFeeWallet;\n    address private signer;\n\n\n    FunflowerFarmToken private fffToken;\n\n    function initialize() public override initializer {\n        GameOwnerUpgradeable.initialize();\n        gameRoles[msg.sender] = true;\n        withdrawFee = 1 * (10 ** 17); //0.1\n        withdrawFeeWallet = _msgSender();\n        signer = _msgSender();\n    }\n\n    function setTokens(FunflowerFarmToken _fffToken) public onlyOwner {\n        fffToken = _fffToken;\n    }\n\n    function setWithdrawFee(uint _fee) public onlyOwner {\n        withdrawFee = _fee;\n    }\n\n    function transferSigner(address _signer) public onlyOwner {\n        signer = _signer;\n    }\n\n    function transferWithdrawFeeWallet(address _team) public onlyOwner {\n        withdrawFeeWallet = _team;\n    }\n\n    function _authorizeUpgrade(address) internal override onlyOwner {}\n\n    function getSessionId(address _address) public view returns(bytes32) {\n        bytes32 id = sessions[_address];\n\n        if (id == 0) {\n            // First ID is based on the unique contract\n            id = keccak256(abi.encode(address(this)));\n        }\n\n        return id;\n    }\n\n        // A unique nonce identifer for the account\n    function generateSessionId(address _address) private view returns(bytes32) {\n        return keccak256(abi.encodePacked(_msgSender(), sessions[_address], block.number)).toEthSignedMessageHash();\n    }\n\n    function verify(bytes32 hash, bytes memory signature) private view returns (bool) {\n        bytes32 ethSignedHash = hash.toEthSignedMessageHash();\n        return ethSignedHash.recover(signature) == signer;\n    }\n\n    function withdraw(\n        bytes memory signature,\n        bytes32 sessionId,\n        uint256 fff) \n        payable public returns (bool) {\n        require(msg.value >= withdrawFee, \"Funflower Farm: Missing fee\");\n\n        // Check the session is new or has not changed (already saved or withdrew funds)\n        bytes32 userSessionId = getSessionId(_msgSender());\n        require(\n            userSessionId == sessionId,\n            \"Funflower Farm: Session has changed\"\n        );\n\n        // Start a new session\n        bytes32 newSessionId = generateSessionId(_msgSender());\n        sessions[_msgSender()] = newSessionId;\n        syncedAt[_msgSender()] = block.timestamp;\n\n        // Verify\n        bytes32 txHash = keccak256(abi.encode(sessionId,  _msgSender(), fff));\n        require(!executed[txHash], \"Funflower Farm: Tx Executed\");\n        require(verify(txHash, signature), \"Funflower Farm: Unauthorised\");\n        executed[txHash] = true;\n\n\n        fffToken.gameMint(msg.sender, fff);\n\n        (bool teamSent,) = withdrawFeeWallet.call{value: msg.value}(\"\");\n        require(teamSent, \"Funflower Farm: Fee Failed\");\n\n        emit SessionChanged(_msgSender(), newSessionId, txHash);\n\n        return true;\n    }\n\n}",
  "sourcePath": "/mnt/c/Users/nfmelendez/crypto/contracts/contracts/Bank.sol",
  "compiler": {
    "name": "solc",
    "version": "0.8.13+commit.abaa5c0e.Emscripten.clang"
  },
  "schemaVersion": "3.4.4",
  "updatedAt": "2022-05-17T13:50:37.617Z",
  "devdoc": {
    "kind": "dev",
    "methods": {
      "owner()": {
        "details": "Returns the address of the current owner."
      },
      "proxiableUUID()": {
        "details": "Implementation of the ERC1822 {proxiableUUID} function. This returns the storage slot used by the implementation. It is used to validate that the this implementation remains valid after an upgrade. IMPORTANT: A proxy pointing at a proxiable contract should not be considered proxiable itself, because this risks bricking a proxy that upgrades to it, by delegating to itself until out of gas. Thus it is critical that this function revert if invoked through a proxy. This is guaranteed by the `notDelegated` modifier."
      },
      "renounceOwnership()": {
        "details": "Leaves the contract without owner. It will not be possible to call `onlyOwner` functions anymore. Can only be called by the current owner. NOTE: Renouncing ownership will leave the contract without an owner, thereby removing any functionality that is only available to the owner."
      },
      "transferOwnership(address)": {
        "details": "Transfers ownership of the contract to a new account (`newOwner`). Can only be called by the current owner."
      },
      "upgradeTo(address)": {
        "details": "Upgrade the implementation of the proxy to `newImplementation`. Calls {_authorizeUpgrade}. Emits an {Upgraded} event."
      },
      "upgradeToAndCall(address,bytes)": {
        "details": "Upgrade the implementation of the proxy to `newImplementation`, and subsequently execute the function call encoded in `data`. Calls {_authorizeUpgrade}. Emits an {Upgraded} event."
      }
    },
    "version": 1
  },
  "userdoc": {
    "kind": "user",
    "methods": {},
    "version": 1
  }
}