{
  "contractName": "Bank",
  "abi": [
    {
      "anonymous": false,
      "inputs": [
        {
          "indexed": false,
          "internalType": "address",
          "name": "previousAdmin",
          "type": "address"
        },
        {
          "indexed": false,
          "internalType": "address",
          "name": "newAdmin",
          "type": "address"
        }
      ],
      "name": "AdminChanged",
      "type": "event"
    },
    {
      "anonymous": false,
      "inputs": [
        {
          "indexed": true,
          "internalType": "address",
          "name": "beacon",
          "type": "address"
        }
      ],
      "name": "BeaconUpgraded",
      "type": "event"
    },
    {
      "anonymous": false,
      "inputs": [
        {
          "indexed": false,
          "internalType": "uint8",
          "name": "version",
          "type": "uint8"
        }
      ],
      "name": "Initialized",
      "type": "event"
    },
    {
      "anonymous": false,
      "inputs": [
        {
          "indexed": true,
          "internalType": "address",
          "name": "previousOwner",
          "type": "address"
        },
        {
          "indexed": true,
          "internalType": "address",
          "name": "newOwner",
          "type": "address"
        }
      ],
      "name": "OwnershipTransferred",
      "type": "event"
    },
    {
      "anonymous": false,
      "inputs": [
        {
          "indexed": true,
          "internalType": "address",
          "name": "implementation",
          "type": "address"
        }
      ],
      "name": "Upgraded",
      "type": "event"
    },
    {
      "inputs": [
        {
          "internalType": "address",
          "name": "_game",
          "type": "address"
        }
      ],
      "name": "addGameRole",
      "outputs": [],
      "stateMutability": "nonpayable",
      "type": "function"
    },
    {
      "inputs": [],
      "name": "owner",
      "outputs": [
        {
          "internalType": "address",
          "name": "",
          "type": "address"
        }
      ],
      "stateMutability": "view",
      "type": "function"
    },
    {
      "inputs": [],
      "name": "proxiableUUID",
      "outputs": [
        {
          "internalType": "bytes32",
          "name": "",
          "type": "bytes32"
        }
      ],
      "stateMutability": "view",
      "type": "function"
    },
    {
      "inputs": [
        {
          "internalType": "address",
          "name": "_game",
          "type": "address"
        }
      ],
      "name": "removeGameRole",
      "outputs": [],
      "stateMutability": "nonpayable",
      "type": "function"
    },
    {
      "inputs": [],
      "name": "renounceOwnership",
      "outputs": [],
      "stateMutability": "nonpayable",
      "type": "function"
    },
    {
      "inputs": [
        {
          "internalType": "address",
          "name": "newOwner",
          "type": "address"
        }
      ],
      "name": "transferOwnership",
      "outputs": [],
      "stateMutability": "nonpayable",
      "type": "function"
    },
    {
      "inputs": [
        {
          "internalType": "address",
          "name": "newImplementation",
          "type": "address"
        }
      ],
      "name": "upgradeTo",
      "outputs": [],
      "stateMutability": "nonpayable",
      "type": "function"
    },
    {
      "inputs": [
        {
          "internalType": "address",
          "name": "newImplementation",
          "type": "address"
        },
        {
          "internalType": "bytes",
          "name": "data",
          "type": "bytes"
        }
      ],
      "name": "upgradeToAndCall",
      "outputs": [],
      "stateMutability": "payable",
      "type": "function"
    },
    {
      "inputs": [],
      "name": "initialize",
      "outputs": [],
      "stateMutability": "nonpayable",
      "type": "function"
    },
    {
      "inputs": [
        {
          "internalType": "contract FunflowerFarmToken",
          "name": "_fffToken",
          "type": "address"
        }
      ],
      "name": "setTokens",
      "outputs": [],
      "stateMutability": "nonpayable",
      "type": "function"
    },
    {
      "inputs": [
        {
          "internalType": "uint256",
          "name": "fff",
          "type": "uint256"
        }
      ],
      "name": "withdraw",
      "outputs": [
        {
          "internalType": "bool",
          "name": "",
          "type": "bool"
        }
      ],
      "stateMutability": "payable",
      "type": "function"
    }
  ],
  "bytecode": "0x60a06040523073ffffffffffffffffffffffffffffffffffffffff1660809073ffffffffffffffffffffffffffffffffffffffff1681525034801561004357600080fd5b50608051611fef61007b600039600081816103c3015281816104510152818161054b015281816105d901526106890152611fef6000f3fe60806040526004361061009c5760003560e01c8063715018a611610064578063715018a61461016a5780637323b8fa146101815780638129fc1c146101aa5780638da5cb5b146101c1578063a639eb4d146101ec578063f2fde38b146102155761009c565b806319892b51146100a15780632e1a7d4d146100ca5780633659cfe6146100fa5780634f1ef2861461012357806352d1902d1461013f575b600080fd5b3480156100ad57600080fd5b506100c860048036038101906100c391906113e2565b61023e565b005b6100e460048036038101906100df9190611445565b610315565b6040516100f1919061148d565b60405180910390f35b34801561010657600080fd5b50610121600480360381019061011c91906113e2565b6103c1565b005b61013d600480360381019061013891906115ee565b610549565b005b34801561014b57600080fd5b50610154610685565b6040516101619190611663565b60405180910390f35b34801561017657600080fd5b5061017f61073e565b005b34801561018d57600080fd5b506101a860048036038101906101a391906113e2565b6107c6565b005b3480156101b657600080fd5b506101bf61089d565b005b3480156101cd57600080fd5b506101d6610989565b6040516101e3919061168d565b60405180910390f35b3480156101f857600080fd5b50610213600480360381019061020e91906116e6565b6109b3565b005b34801561022157600080fd5b5061023c600480360381019061023791906113e2565b610a73565b005b610246610b6a565b73ffffffffffffffffffffffffffffffffffffffff16610264610989565b73ffffffffffffffffffffffffffffffffffffffff16146102ba576040517f08c379a00000000000000000000000000000000000000000000000000000000081526004016102b190611770565b60405180910390fd5b6000606560008373ffffffffffffffffffffffffffffffffffffffff1673ffffffffffffffffffffffffffffffffffffffff16815260200190815260200160002060006101000a81548160ff02191690831515021790555050565b600060ca60009054906101000a900473ffffffffffffffffffffffffffffffffffffffff1673ffffffffffffffffffffffffffffffffffffffff16634eb9029933846040518363ffffffff1660e01b815260040161037492919061179f565b6020604051808303816000875af1158015610393573d6000803e3d6000fd5b505050506040513d601f19601f820116820180604052508101906103b791906117f4565b5060019050919050565b7f000000000000000000000000000000000000000000000000000000000000000073ffffffffffffffffffffffffffffffffffffffff163073ffffffffffffffffffffffffffffffffffffffff160361044f576040517f08c379a000000000000000000000000000000000000000000000000000000000815260040161044690611893565b60405180910390fd5b7f000000000000000000000000000000000000000000000000000000000000000073ffffffffffffffffffffffffffffffffffffffff1661048e610b72565b73ffffffffffffffffffffffffffffffffffffffff16146104e4576040517f08c379a00000000000000000000000000000000000000000000000000000000081526004016104db90611925565b60405180910390fd5b6104ed81610bc9565b61054681600067ffffffffffffffff81111561050c5761050b6114c3565b5b6040519080825280601f01601f19166020018201604052801561053e5781602001600182028036833780820191505090505b506000610c48565b50565b7f000000000000000000000000000000000000000000000000000000000000000073ffffffffffffffffffffffffffffffffffffffff163073ffffffffffffffffffffffffffffffffffffffff16036105d7576040517f08c379a00000000000000000000000000000000000000000000000000000000081526004016105ce90611893565b60405180910390fd5b7f000000000000000000000000000000000000000000000000000000000000000073ffffffffffffffffffffffffffffffffffffffff16610616610b72565b73ffffffffffffffffffffffffffffffffffffffff161461066c576040517f08c379a000000000000000000000000000000000000000000000000000000000815260040161066390611925565b60405180910390fd5b61067582610bc9565b61068182826001610c48565b5050565b60007f000000000000000000000000000000000000000000000000000000000000000073ffffffffffffffffffffffffffffffffffffffff163073ffffffffffffffffffffffffffffffffffffffff1614610715576040517f08c379a000000000000000000000000000000000000000000000000000000000815260040161070c906119b7565b60405180910390fd5b7f360894a13ba1a3210667c828492db98dca3e2076cc3735a920a3ca505d382bbc60001b905090565b610746610b6a565b73ffffffffffffffffffffffffffffffffffffffff16610764610989565b73ffffffffffffffffffffffffffffffffffffffff16146107ba576040517f08c379a00000000000000000000000000000000000000000000000000000000081526004016107b190611770565b60405180910390fd5b6107c46000610db6565b565b6107ce610b6a565b73ffffffffffffffffffffffffffffffffffffffff166107ec610989565b73ffffffffffffffffffffffffffffffffffffffff1614610842576040517f08c379a000000000000000000000000000000000000000000000000000000000815260040161083990611770565b60405180910390fd5b6001606560008373ffffffffffffffffffffffffffffffffffffffff1673ffffffffffffffffffffffffffffffffffffffff16815260200190815260200160002060006101000a81548160ff02191690831515021790555050565b60006108a96001610e7c565b905080156108cd576001600060016101000a81548160ff0219169083151502179055505b6108d5610f6c565b6001606560003373ffffffffffffffffffffffffffffffffffffffff1673ffffffffffffffffffffffffffffffffffffffff16815260200190815260200160002060006101000a81548160ff02191690831515021790555080156109865760008060016101000a81548160ff0219169083151502179055507f7f26b83ff96e1f2b6a682f133852f6798a09c465da95921460cefb3847402498600160405161097d9190611a29565b60405180910390a15b50565b6000603360009054906101000a900473ffffffffffffffffffffffffffffffffffffffff16905090565b6109bb610b6a565b73ffffffffffffffffffffffffffffffffffffffff166109d9610989565b73ffffffffffffffffffffffffffffffffffffffff1614610a2f576040517f08c379a0000000000000000000000000000000000000000000000000000000008152600401610a2690611770565b60405180910390fd5b8060ca60006101000a81548173ffffffffffffffffffffffffffffffffffffffff021916908373ffffffffffffffffffffffffffffffffffffffff16021790555050565b610a7b610b6a565b73ffffffffffffffffffffffffffffffffffffffff16610a99610989565b73ffffffffffffffffffffffffffffffffffffffff1614610aef576040517f08c379a0000000000000000000000000000000000000000000000000000000008152600401610ae690611770565b60405180910390fd5b600073ffffffffffffffffffffffffffffffffffffffff168173ffffffffffffffffffffffffffffffffffffffff1603610b5e576040517f08c379a0000000000000000000000000000000000000000000000000000000008152600401610b5590611ab6565b60405180910390fd5b610b6781610db6565b50565b600033905090565b6000610ba07f360894a13ba1a3210667c828492db98dca3e2076cc3735a920a3ca505d382bbc60001b611000565b60000160009054906101000a900473ffffffffffffffffffffffffffffffffffffffff16905090565b610bd1610b6a565b73ffffffffffffffffffffffffffffffffffffffff16610bef610989565b73ffffffffffffffffffffffffffffffffffffffff1614610c45576040517f08c379a0000000000000000000000000000000000000000000000000000000008152600401610c3c90611770565b60405180910390fd5b50565b610c747f4910fdfa16fed3260ed0e7147f7cc6da11a60208b5b9406d12a635614ffd914360001b61100a565b60000160009054906101000a900460ff1615610c9857610c9383611014565b610db1565b8273ffffffffffffffffffffffffffffffffffffffff166352d1902d6040518163ffffffff1660e01b8152600401602060405180830381865afa925050508015610d0057506040513d601f19601f82011682018060405250810190610cfd9190611b02565b60015b610d3f576040517f08c379a0000000000000000000000000000000000000000000000000000000008152600401610d3690611ba1565b60405180910390fd5b7f360894a13ba1a3210667c828492db98dca3e2076cc3735a920a3ca505d382bbc60001b8114610da4576040517f08c379a0000000000000000000000000000000000000000000000000000000008152600401610d9b90611c33565b60405180910390fd5b50610db08383836110cd565b5b505050565b6000603360009054906101000a900473ffffffffffffffffffffffffffffffffffffffff16905081603360006101000a81548173ffffffffffffffffffffffffffffffffffffffff021916908373ffffffffffffffffffffffffffffffffffffffff1602179055508173ffffffffffffffffffffffffffffffffffffffff168173ffffffffffffffffffffffffffffffffffffffff167f8be0079c531659141344cd1fd0a4f28419497f9722a3daafe3b4186f6b6457e060405160405180910390a35050565b60008060019054906101000a900460ff1615610ef35760018260ff16148015610eab5750610ea9306110f9565b155b610eea576040517f08c379a0000000000000000000000000000000000000000000000000000000008152600401610ee190611cc5565b60405180910390fd5b60009050610f67565b8160ff1660008054906101000a900460ff1660ff1610610f48576040517f08c379a0000000000000000000000000000000000000000000000000000000008152600401610f3f90611cc5565b60405180910390fd5b816000806101000a81548160ff021916908360ff160217905550600190505b919050565b6000610f786001610e7c565b90508015610f9c576001600060016101000a81548160ff0219169083151502179055505b610fa461111c565b8015610ffd5760008060016101000a81548160ff0219169083151502179055507f7f26b83ff96e1f2b6a682f133852f6798a09c465da95921460cefb38474024986001604051610ff49190611a29565b60405180910390a15b50565b6000819050919050565b6000819050919050565b61101d816110f9565b61105c576040517f08c379a000000000000000000000000000000000000000000000000000000000815260040161105390611d57565b60405180910390fd5b806110897f360894a13ba1a3210667c828492db98dca3e2076cc3735a920a3ca505d382bbc60001b611000565b60000160006101000a81548173ffffffffffffffffffffffffffffffffffffffff021916908373ffffffffffffffffffffffffffffffffffffffff16021790555050565b6110d683611175565b6000825111806110e35750805b156110f4576110f283836111c4565b505b505050565b6000808273ffffffffffffffffffffffffffffffffffffffff163b119050919050565b600060019054906101000a900460ff1661116b576040517f08c379a000000000000000000000000000000000000000000000000000000000815260040161116290611de9565b60405180910390fd5b6111736112a8565b565b61117e81611014565b8073ffffffffffffffffffffffffffffffffffffffff167fbc7cd75a20ee27fd9adebab32041f755214dbc6bffa90cc0225b39da2e5c2d3b60405160405180910390a250565b60606111cf836110f9565b61120e576040517f08c379a000000000000000000000000000000000000000000000000000000000815260040161120590611e7b565b60405180910390fd5b6000808473ffffffffffffffffffffffffffffffffffffffff16846040516112369190611f15565b600060405180830381855af49150503d8060008114611271576040519150601f19603f3d011682016040523d82523d6000602084013e611276565b606091505b509150915061129e8282604051806060016040528060278152602001611f9360279139611309565b9250505092915050565b600060019054906101000a900460ff166112f7576040517f08c379a00000000000000000000000000000000000000000000000000000000081526004016112ee90611de9565b60405180910390fd5b611307611302610b6a565b610db6565b565b6060831561131957829050611369565b60008351111561132c5782518084602001fd5b816040517f08c379a00000000000000000000000000000000000000000000000000000000081526004016113609190611f70565b60405180910390fd5b9392505050565b6000604051905090565b600080fd5b600080fd5b600073ffffffffffffffffffffffffffffffffffffffff82169050919050565b60006113af82611384565b9050919050565b6113bf816113a4565b81146113ca57600080fd5b50565b6000813590506113dc816113b6565b92915050565b6000602082840312156113f8576113f761137a565b5b6000611406848285016113cd565b91505092915050565b6000819050919050565b6114228161140f565b811461142d57600080fd5b50565b60008135905061143f81611419565b92915050565b60006020828403121561145b5761145a61137a565b5b600061146984828501611430565b91505092915050565b60008115159050919050565b61148781611472565b82525050565b60006020820190506114a2600083018461147e565b92915050565b600080fd5b600080fd5b6000601f19601f8301169050919050565b7f4e487b7100000000000000000000000000000000000000000000000000000000600052604160045260246000fd5b6114fb826114b2565b810181811067ffffffffffffffff8211171561151a576115196114c3565b5b80604052505050565b600061152d611370565b905061153982826114f2565b919050565b600067ffffffffffffffff821115611559576115586114c3565b5b611562826114b2565b9050602081019050919050565b82818337600083830152505050565b600061159161158c8461153e565b611523565b9050828152602081018484840111156115ad576115ac6114ad565b5b6115b884828561156f565b509392505050565b600082601f8301126115d5576115d46114a8565b5b81356115e584826020860161157e565b91505092915050565b600080604083850312156116055761160461137a565b5b6000611613858286016113cd565b925050602083013567ffffffffffffffff8111156116345761163361137f565b5b611640858286016115c0565b9150509250929050565b6000819050919050565b61165d8161164a565b82525050565b60006020820190506116786000830184611654565b92915050565b611687816113a4565b82525050565b60006020820190506116a2600083018461167e565b92915050565b60006116b3826113a4565b9050919050565b6116c3816116a8565b81146116ce57600080fd5b50565b6000813590506116e0816116ba565b92915050565b6000602082840312156116fc576116fb61137a565b5b600061170a848285016116d1565b91505092915050565b600082825260208201905092915050565b7f4f776e61626c653a2063616c6c6572206973206e6f7420746865206f776e6572600082015250565b600061175a602083611713565b915061176582611724565b602082019050919050565b600060208201905081810360008301526117898161174d565b9050919050565b6117998161140f565b82525050565b60006040820190506117b4600083018561167e565b6117c16020830184611790565b9392505050565b6117d181611472565b81146117dc57600080fd5b50565b6000815190506117ee816117c8565b92915050565b60006020828403121561180a5761180961137a565b5b6000611818848285016117df565b91505092915050565b7f46756e6374696f6e206d7573742062652063616c6c6564207468726f7567682060008201527f64656c656761746563616c6c0000000000000000000000000000000000000000602082015250565b600061187d602c83611713565b915061188882611821565b604082019050919050565b600060208201905081810360008301526118ac81611870565b9050919050565b7f46756e6374696f6e206d7573742062652063616c6c6564207468726f7567682060008201527f6163746976652070726f78790000000000000000000000000000000000000000602082015250565b600061190f602c83611713565b915061191a826118b3565b604082019050919050565b6000602082019050818103600083015261193e81611902565b9050919050565b7f555550535570677261646561626c653a206d757374206e6f742062652063616c60008201527f6c6564207468726f7567682064656c656761746563616c6c0000000000000000602082015250565b60006119a1603883611713565b91506119ac82611945565b604082019050919050565b600060208201905081810360008301526119d081611994565b9050919050565b6000819050919050565b600060ff82169050919050565b6000819050919050565b6000611a13611a0e611a09846119d7565b6119ee565b6119e1565b9050919050565b611a23816119f8565b82525050565b6000602082019050611a3e6000830184611a1a565b92915050565b7f4f776e61626c653a206e6577206f776e657220697320746865207a65726f206160008201527f6464726573730000000000000000000000000000000000000000000000000000602082015250565b6000611aa0602683611713565b9150611aab82611a44565b604082019050919050565b60006020820190508181036000830152611acf81611a93565b9050919050565b611adf8161164a565b8114611aea57600080fd5b50565b600081519050611afc81611ad6565b92915050565b600060208284031215611b1857611b1761137a565b5b6000611b2684828501611aed565b91505092915050565b7f45524331393637557067726164653a206e657720696d706c656d656e7461746960008201527f6f6e206973206e6f742055555053000000000000000000000000000000000000602082015250565b6000611b8b602e83611713565b9150611b9682611b2f565b604082019050919050565b60006020820190508181036000830152611bba81611b7e565b9050919050565b7f45524331393637557067726164653a20756e737570706f727465642070726f7860008201527f6961626c65555549440000000000000000000000000000000000000000000000602082015250565b6000611c1d602983611713565b9150611c2882611bc1565b604082019050919050565b60006020820190508181036000830152611c4c81611c10565b9050919050565b7f496e697469616c697a61626c653a20636f6e747261637420697320616c72656160008201527f647920696e697469616c697a6564000000000000000000000000000000000000602082015250565b6000611caf602e83611713565b9150611cba82611c53565b604082019050919050565b60006020820190508181036000830152611cde81611ca2565b9050919050565b7f455243313936373a206e657720696d706c656d656e746174696f6e206973206e60008201527f6f74206120636f6e747261637400000000000000000000000000000000000000602082015250565b6000611d41602d83611713565b9150611d4c82611ce5565b604082019050919050565b60006020820190508181036000830152611d7081611d34565b9050919050565b7f496e697469616c697a61626c653a20636f6e7472616374206973206e6f74206960008201527f6e697469616c697a696e67000000000000000000000000000000000000000000602082015250565b6000611dd3602b83611713565b9150611dde82611d77565b604082019050919050565b60006020820190508181036000830152611e0281611dc6565b9050919050565b7f416464726573733a2064656c65676174652063616c6c20746f206e6f6e2d636f60008201527f6e74726163740000000000000000000000000000000000000000000000000000602082015250565b6000611e65602683611713565b9150611e7082611e09565b604082019050919050565b60006020820190508181036000830152611e9481611e58565b9050919050565b600081519050919050565b600081905092915050565b60005b83811015611ecf578082015181840152602081019050611eb4565b83811115611ede576000848401525b50505050565b6000611eef82611e9b565b611ef98185611ea6565b9350611f09818560208601611eb1565b80840191505092915050565b6000611f218284611ee4565b915081905092915050565b600081519050919050565b6000611f4282611f2c565b611f4c8185611713565b9350611f5c818560208601611eb1565b611f65816114b2565b840191505092915050565b60006020820190508181036000830152611f8a8184611f37565b90509291505056fe416464726573733a206c6f772d6c6576656c2064656c65676174652063616c6c206661696c6564a2646970667358221220cf161ba8461c94478ebb1423c9542b0bf961adcfa9d7aef2dd4cdc377735dc9c64736f6c634300080d0033",
  "immutableReferences": {
    "685": [
      {
        "length": 32,
        "start": 963
      },
      {
        "length": 32,
        "start": 1105
      },
      {
        "length": 32,
        "start": 1355
      },
      {
        "length": 32,
        "start": 1497
      },
      {
        "length": 32,
        "start": 1673
      }
    ]
  },
  "source": "   \n// SPDX-License-Identifier: MIT\npragma solidity ^0.8.0;\n\nimport \"@openzeppelin/contracts-upgradeable/proxy/utils/UUPSUpgradeable.sol\";\n\nimport \"./GameOwnerUpgradeable.sol\";\nimport \"./FFFToken.sol\";\n\ncontract Bank is GameOwnerUpgradeable, UUPSUpgradeable {\n\n    FunflowerFarmToken private fffToken;\n\n    function initialize() public override initializer {\n        GameOwnerUpgradeable.initialize();\n        gameRoles[msg.sender] = true;\n    }\n\n    function setTokens(FunflowerFarmToken _fffToken) public onlyOwner {\n        fffToken = _fffToken;\n    }\n\n    function _authorizeUpgrade(address) internal override onlyOwner {}\n\n    function withdraw(\n       // bytes memory signature,\n       // bytes32 sessionId,\n        uint256 fff) \n        payable public returns (bool) {\n        fffToken.gameMint(msg.sender, fff);\n        return true;\n    }\n\n}",
  "sourcePath": "/mnt/c/Users/nfmelendez/crypto/contracts/contracts/Bank.sol",
  "compiler": {
    "name": "solc",
    "version": "0.8.13+commit.abaa5c0e.Emscripten.clang"
  },
  "schemaVersion": "3.4.4",
  "updatedAt": "2022-05-13T21:12:21.691Z",
  "devdoc": {
    "kind": "dev",
    "methods": {
      "owner()": {
        "details": "Returns the address of the current owner."
      },
      "proxiableUUID()": {
        "details": "Implementation of the ERC1822 {proxiableUUID} function. This returns the storage slot used by the implementation. It is used to validate that the this implementation remains valid after an upgrade. IMPORTANT: A proxy pointing at a proxiable contract should not be considered proxiable itself, because this risks bricking a proxy that upgrades to it, by delegating to itself until out of gas. Thus it is critical that this function revert if invoked through a proxy. This is guaranteed by the `notDelegated` modifier."
      },
      "renounceOwnership()": {
        "details": "Leaves the contract without owner. It will not be possible to call `onlyOwner` functions anymore. Can only be called by the current owner. NOTE: Renouncing ownership will leave the contract without an owner, thereby removing any functionality that is only available to the owner."
      },
      "transferOwnership(address)": {
        "details": "Transfers ownership of the contract to a new account (`newOwner`). Can only be called by the current owner."
      },
      "upgradeTo(address)": {
        "details": "Upgrade the implementation of the proxy to `newImplementation`. Calls {_authorizeUpgrade}. Emits an {Upgraded} event."
      },
      "upgradeToAndCall(address,bytes)": {
        "details": "Upgrade the implementation of the proxy to `newImplementation`, and subsequently execute the function call encoded in `data`. Calls {_authorizeUpgrade}. Emits an {Upgraded} event."
      }
    },
    "version": 1
  },
  "userdoc": {
    "kind": "user",
    "methods": {},
    "version": 1
  }
}