{
  "contractName": "Bank",
  "abi": [
    {
      "anonymous": false,
      "inputs": [
        {
          "indexed": false,
          "internalType": "address",
          "name": "previousAdmin",
          "type": "address"
        },
        {
          "indexed": false,
          "internalType": "address",
          "name": "newAdmin",
          "type": "address"
        }
      ],
      "name": "AdminChanged",
      "type": "event"
    },
    {
      "anonymous": false,
      "inputs": [
        {
          "indexed": true,
          "internalType": "address",
          "name": "beacon",
          "type": "address"
        }
      ],
      "name": "BeaconUpgraded",
      "type": "event"
    },
    {
      "anonymous": false,
      "inputs": [
        {
          "indexed": false,
          "internalType": "uint8",
          "name": "version",
          "type": "uint8"
        }
      ],
      "name": "Initialized",
      "type": "event"
    },
    {
      "anonymous": false,
      "inputs": [
        {
          "indexed": true,
          "internalType": "address",
          "name": "previousOwner",
          "type": "address"
        },
        {
          "indexed": true,
          "internalType": "address",
          "name": "newOwner",
          "type": "address"
        }
      ],
      "name": "OwnershipTransferred",
      "type": "event"
    },
    {
      "anonymous": false,
      "inputs": [
        {
          "indexed": true,
          "internalType": "address",
          "name": "owner",
          "type": "address"
        },
        {
          "indexed": true,
          "internalType": "bytes32",
          "name": "sessionId",
          "type": "bytes32"
        },
        {
          "indexed": true,
          "internalType": "bytes32",
          "name": "thxId",
          "type": "bytes32"
        }
      ],
      "name": "SessionChanged",
      "type": "event"
    },
    {
      "anonymous": false,
      "inputs": [
        {
          "indexed": true,
          "internalType": "address",
          "name": "implementation",
          "type": "address"
        }
      ],
      "name": "Upgraded",
      "type": "event"
    },
    {
      "inputs": [
        {
          "internalType": "address",
          "name": "_game",
          "type": "address"
        }
      ],
      "name": "addGameRole",
      "outputs": [],
      "stateMutability": "nonpayable",
      "type": "function"
    },
    {
      "inputs": [
        {
          "internalType": "bytes32",
          "name": "",
          "type": "bytes32"
        }
      ],
      "name": "executed",
      "outputs": [
        {
          "internalType": "bool",
          "name": "",
          "type": "bool"
        }
      ],
      "stateMutability": "view",
      "type": "function"
    },
    {
      "inputs": [],
      "name": "owner",
      "outputs": [
        {
          "internalType": "address",
          "name": "",
          "type": "address"
        }
      ],
      "stateMutability": "view",
      "type": "function"
    },
    {
      "inputs": [],
      "name": "proxiableUUID",
      "outputs": [
        {
          "internalType": "bytes32",
          "name": "",
          "type": "bytes32"
        }
      ],
      "stateMutability": "view",
      "type": "function"
    },
    {
      "inputs": [
        {
          "internalType": "address",
          "name": "_game",
          "type": "address"
        }
      ],
      "name": "removeGameRole",
      "outputs": [],
      "stateMutability": "nonpayable",
      "type": "function"
    },
    {
      "inputs": [],
      "name": "renounceOwnership",
      "outputs": [],
      "stateMutability": "nonpayable",
      "type": "function"
    },
    {
      "inputs": [
        {
          "internalType": "address",
          "name": "",
          "type": "address"
        }
      ],
      "name": "sessions",
      "outputs": [
        {
          "internalType": "bytes32",
          "name": "",
          "type": "bytes32"
        }
      ],
      "stateMutability": "view",
      "type": "function"
    },
    {
      "inputs": [
        {
          "internalType": "address",
          "name": "",
          "type": "address"
        }
      ],
      "name": "syncedAt",
      "outputs": [
        {
          "internalType": "uint256",
          "name": "",
          "type": "uint256"
        }
      ],
      "stateMutability": "view",
      "type": "function"
    },
    {
      "inputs": [
        {
          "internalType": "address",
          "name": "newOwner",
          "type": "address"
        }
      ],
      "name": "transferOwnership",
      "outputs": [],
      "stateMutability": "nonpayable",
      "type": "function"
    },
    {
      "inputs": [
        {
          "internalType": "address",
          "name": "newImplementation",
          "type": "address"
        }
      ],
      "name": "upgradeTo",
      "outputs": [],
      "stateMutability": "nonpayable",
      "type": "function"
    },
    {
      "inputs": [
        {
          "internalType": "address",
          "name": "newImplementation",
          "type": "address"
        },
        {
          "internalType": "bytes",
          "name": "data",
          "type": "bytes"
        }
      ],
      "name": "upgradeToAndCall",
      "outputs": [],
      "stateMutability": "payable",
      "type": "function"
    },
    {
      "inputs": [],
      "name": "initialize",
      "outputs": [],
      "stateMutability": "nonpayable",
      "type": "function"
    },
    {
      "inputs": [
        {
          "internalType": "contract FunflowerFarmToken",
          "name": "_fffToken",
          "type": "address"
        }
      ],
      "name": "setTokens",
      "outputs": [],
      "stateMutability": "nonpayable",
      "type": "function"
    },
    {
      "inputs": [
        {
          "internalType": "uint256",
          "name": "_fee",
          "type": "uint256"
        }
      ],
      "name": "setWithdrawFee",
      "outputs": [],
      "stateMutability": "nonpayable",
      "type": "function"
    },
    {
      "inputs": [
        {
          "internalType": "address",
          "name": "_team",
          "type": "address"
        }
      ],
      "name": "transferWithdrawFeeWallet",
      "outputs": [],
      "stateMutability": "nonpayable",
      "type": "function"
    },
    {
      "inputs": [
        {
          "internalType": "address",
          "name": "_address",
          "type": "address"
        }
      ],
      "name": "getSessionId",
      "outputs": [
        {
          "internalType": "bytes32",
          "name": "",
          "type": "bytes32"
        }
      ],
      "stateMutability": "view",
      "type": "function"
    },
    {
      "inputs": [
        {
          "internalType": "bytes32",
          "name": "sessionId",
          "type": "bytes32"
        },
        {
          "internalType": "uint256",
          "name": "fff",
          "type": "uint256"
        }
      ],
      "name": "withdraw",
      "outputs": [
        {
          "internalType": "bool",
          "name": "",
          "type": "bool"
        }
      ],
      "stateMutability": "payable",
      "type": "function"
    }
  ],
  "bytecode": "0x60a06040523073ffffffffffffffffffffffffffffffffffffffff1660809073ffffffffffffffffffffffffffffffffffffffff1681525034801561004357600080fd5b50608051612c0861007b600039600081816108920152818161092001528181610af201528181610b800152610c480152612c086000f3fe6080604052600436106100fe5760003560e01c8063715018a611610095578063a639eb4d11610064578063a639eb4d146102f1578063a9fcfb331461031a578063b6ac642a14610357578063c49d30b214610380578063f2fde38b146103bd576100fe565b8063715018a61461026f5780637323b8fa146102865780638129fc1c146102af5780638da5cb5b146102c6576100fe565b8063431a1b97116100d1578063431a1b97146101ae5780634f1ef286146101eb578063512a87741461020757806352d1902d14610244576100fe565b8063040cf0201461010357806319892b51146101335780633659cfe61461015c57806339a885af14610185575b600080fd5b61011d60048036038101906101189190611be0565b6103e6565b60405161012a9190611c3b565b60405180910390f35b34801561013f57600080fd5b5061015a60048036038101906101559190611cb4565b6107b9565b005b34801561016857600080fd5b50610183600480360381019061017e9190611cb4565b610890565b005b34801561019157600080fd5b506101ac60048036038101906101a79190611cb4565b610a18565b005b3480156101ba57600080fd5b506101d560048036038101906101d09190611cb4565b610ad8565b6040516101e29190611cf0565b60405180910390f35b61020560048036038101906102009190611e51565b610af0565b005b34801561021357600080fd5b5061022e60048036038101906102299190611cb4565b610c2c565b60405161023b9190611ebc565b60405180910390f35b34801561025057600080fd5b50610259610c44565b6040516102669190611cf0565b60405180910390f35b34801561027b57600080fd5b50610284610cfd565b005b34801561029257600080fd5b506102ad60048036038101906102a89190611cb4565b610d85565b005b3480156102bb57600080fd5b506102c4610e5c565b005b3480156102d257600080fd5b506102db610f9f565b6040516102e89190611ee6565b60405180910390f35b3480156102fd57600080fd5b5061031860048036038101906103139190611f3f565b610fc9565b005b34801561032657600080fd5b50610341600480360381019061033c9190611f6c565b611089565b60405161034e9190611c3b565b60405180910390f35b34801561036357600080fd5b5061037e60048036038101906103799190611f99565b6110a9565b005b34801561038c57600080fd5b506103a760048036038101906103a29190611cb4565b61112f565b6040516103b49190611cf0565b60405180910390f35b3480156103c957600080fd5b506103e460048036038101906103df9190611cb4565b6111b1565b005b600060cd5434101561042d576040517f08c379a000000000000000000000000000000000000000000000000000000000815260040161042490612023565b60405180910390fd5b600061043f61043a6112a8565b61112f565b9050838114610483576040517f08c379a000000000000000000000000000000000000000000000000000000000815260040161047a906120b5565b60405180910390fd5b60006104956104906112a8565b6112b0565b90508060cb60006104a46112a8565b73ffffffffffffffffffffffffffffffffffffffff1673ffffffffffffffffffffffffffffffffffffffff168152602001908152602001600020819055504260cc60006104ef6112a8565b73ffffffffffffffffffffffffffffffffffffffff1673ffffffffffffffffffffffffffffffffffffffff168152602001908152602001600020819055506000856105386112a8565b8660405160200161054b939291906120d5565b60405160208183030381529060405280519060200120905060ca600082815260200190815260200160002060009054906101000a900460ff16156105c4576040517f08c379a00000000000000000000000000000000000000000000000000000000081526004016105bb90612158565b60405180910390fd5b600160ca600083815260200190815260200160002060006101000a81548160ff02191690831515021790555060cf60009054906101000a900473ffffffffffffffffffffffffffffffffffffffff1673ffffffffffffffffffffffffffffffffffffffff16634eb9029933876040518363ffffffff1660e01b815260040161064d929190612178565b6020604051808303816000875af115801561066c573d6000803e3d6000fd5b505050506040513d601f19601f8201168201806040525081019061069091906121cd565b50600060ce60009054906101000a900473ffffffffffffffffffffffffffffffffffffffff1673ffffffffffffffffffffffffffffffffffffffff16346040516106d99061222b565b60006040518083038185875af1925050503d8060008114610716576040519150601f19603f3d011682016040523d82523d6000602084013e61071b565b606091505b505090508061075f576040517f08c379a00000000000000000000000000000000000000000000000000000000081526004016107569061228c565b60405180910390fd5b81836107696112a8565b73ffffffffffffffffffffffffffffffffffffffff167fcac9af989a516c4c60edc5fbf71447795c7f8d6c5037e3e8d7d19b07b4c3c72960405160405180910390a4600194505050505092915050565b6107c16112a8565b73ffffffffffffffffffffffffffffffffffffffff166107df610f9f565b73ffffffffffffffffffffffffffffffffffffffff1614610835576040517f08c379a000000000000000000000000000000000000000000000000000000000815260040161082c906122f8565b60405180910390fd5b6000606560008373ffffffffffffffffffffffffffffffffffffffff1673ffffffffffffffffffffffffffffffffffffffff16815260200190815260200160002060006101000a81548160ff02191690831515021790555050565b7f000000000000000000000000000000000000000000000000000000000000000073ffffffffffffffffffffffffffffffffffffffff163073ffffffffffffffffffffffffffffffffffffffff160361091e576040517f08c379a00000000000000000000000000000000000000000000000000000000081526004016109159061238a565b60405180910390fd5b7f000000000000000000000000000000000000000000000000000000000000000073ffffffffffffffffffffffffffffffffffffffff1661095d611332565b73ffffffffffffffffffffffffffffffffffffffff16146109b3576040517f08c379a00000000000000000000000000000000000000000000000000000000081526004016109aa9061241c565b60405180910390fd5b6109bc81611389565b610a1581600067ffffffffffffffff8111156109db576109da611d26565b5b6040519080825280601f01601f191660200182016040528015610a0d5781602001600182028036833780820191505090505b506000611408565b50565b610a206112a8565b73ffffffffffffffffffffffffffffffffffffffff16610a3e610f9f565b73ffffffffffffffffffffffffffffffffffffffff1614610a94576040517f08c379a0000000000000000000000000000000000000000000000000000000008152600401610a8b906122f8565b60405180910390fd5b8060ce60006101000a81548173ffffffffffffffffffffffffffffffffffffffff021916908373ffffffffffffffffffffffffffffffffffffffff16021790555050565b60cb6020528060005260406000206000915090505481565b7f000000000000000000000000000000000000000000000000000000000000000073ffffffffffffffffffffffffffffffffffffffff163073ffffffffffffffffffffffffffffffffffffffff1603610b7e576040517f08c379a0000000000000000000000000000000000000000000000000000000008152600401610b759061238a565b60405180910390fd5b7f000000000000000000000000000000000000000000000000000000000000000073ffffffffffffffffffffffffffffffffffffffff16610bbd611332565b73ffffffffffffffffffffffffffffffffffffffff1614610c13576040517f08c379a0000000000000000000000000000000000000000000000000000000008152600401610c0a9061241c565b60405180910390fd5b610c1c82611389565b610c2882826001611408565b5050565b60cc6020528060005260406000206000915090505481565b60007f000000000000000000000000000000000000000000000000000000000000000073ffffffffffffffffffffffffffffffffffffffff163073ffffffffffffffffffffffffffffffffffffffff1614610cd4576040517f08c379a0000000000000000000000000000000000000000000000000000000008152600401610ccb906124ae565b60405180910390fd5b7f360894a13ba1a3210667c828492db98dca3e2076cc3735a920a3ca505d382bbc60001b905090565b610d056112a8565b73ffffffffffffffffffffffffffffffffffffffff16610d23610f9f565b73ffffffffffffffffffffffffffffffffffffffff1614610d79576040517f08c379a0000000000000000000000000000000000000000000000000000000008152600401610d70906122f8565b60405180910390fd5b610d836000611576565b565b610d8d6112a8565b73ffffffffffffffffffffffffffffffffffffffff16610dab610f9f565b73ffffffffffffffffffffffffffffffffffffffff1614610e01576040517f08c379a0000000000000000000000000000000000000000000000000000000008152600401610df8906122f8565b60405180910390fd5b6001606560008373ffffffffffffffffffffffffffffffffffffffff1673ffffffffffffffffffffffffffffffffffffffff16815260200190815260200160002060006101000a81548160ff02191690831515021790555050565b6000610e68600161163c565b90508015610e8c576001600060016101000a81548160ff0219169083151502179055505b610e9461172c565b6001606560003373ffffffffffffffffffffffffffffffffffffffff1673ffffffffffffffffffffffffffffffffffffffff16815260200190815260200160002060006101000a81548160ff02191690831515021790555067016345785d8a000060cd81905550610f036112a8565b60ce60006101000a81548173ffffffffffffffffffffffffffffffffffffffff021916908373ffffffffffffffffffffffffffffffffffffffff1602179055508015610f9c5760008060016101000a81548160ff0219169083151502179055507f7f26b83ff96e1f2b6a682f133852f6798a09c465da95921460cefb38474024986001604051610f939190612520565b60405180910390a15b50565b6000603360009054906101000a900473ffffffffffffffffffffffffffffffffffffffff16905090565b610fd16112a8565b73ffffffffffffffffffffffffffffffffffffffff16610fef610f9f565b73ffffffffffffffffffffffffffffffffffffffff1614611045576040517f08c379a000000000000000000000000000000000000000000000000000000000815260040161103c906122f8565b60405180910390fd5b8060cf60006101000a81548173ffffffffffffffffffffffffffffffffffffffff021916908373ffffffffffffffffffffffffffffffffffffffff16021790555050565b60ca6020528060005260406000206000915054906101000a900460ff1681565b6110b16112a8565b73ffffffffffffffffffffffffffffffffffffffff166110cf610f9f565b73ffffffffffffffffffffffffffffffffffffffff1614611125576040517f08c379a000000000000000000000000000000000000000000000000000000000815260040161111c906122f8565b60405180910390fd5b8060cd8190555050565b60008060cb60008473ffffffffffffffffffffffffffffffffffffffff1673ffffffffffffffffffffffffffffffffffffffff1681526020019081526020016000205490506000801b81036111a8573060405160200161118f9190611ee6565b6040516020818303038152906040528051906020012090505b80915050919050565b6111b96112a8565b73ffffffffffffffffffffffffffffffffffffffff166111d7610f9f565b73ffffffffffffffffffffffffffffffffffffffff161461122d576040517f08c379a0000000000000000000000000000000000000000000000000000000008152600401611224906122f8565b60405180910390fd5b600073ffffffffffffffffffffffffffffffffffffffff168173ffffffffffffffffffffffffffffffffffffffff160361129c576040517f08c379a0000000000000000000000000000000000000000000000000000000008152600401611293906125ad565b60405180910390fd5b6112a581611576565b50565b600033905090565b600061132b6112bd6112a8565b60cb60008573ffffffffffffffffffffffffffffffffffffffff1673ffffffffffffffffffffffffffffffffffffffff168152602001908152602001600020544360405160200161131093929190612657565b604051602081830303815290604052805190602001206117c0565b9050919050565b60006113607f360894a13ba1a3210667c828492db98dca3e2076cc3735a920a3ca505d382bbc60001b6117f0565b60000160009054906101000a900473ffffffffffffffffffffffffffffffffffffffff16905090565b6113916112a8565b73ffffffffffffffffffffffffffffffffffffffff166113af610f9f565b73ffffffffffffffffffffffffffffffffffffffff1614611405576040517f08c379a00000000000000000000000000000000000000000000000000000000081526004016113fc906122f8565b60405180910390fd5b50565b6114347f4910fdfa16fed3260ed0e7147f7cc6da11a60208b5b9406d12a635614ffd914360001b6117fa565b60000160009054906101000a900460ff16156114585761145383611804565b611571565b8273ffffffffffffffffffffffffffffffffffffffff166352d1902d6040518163ffffffff1660e01b8152600401602060405180830381865afa9250505080156114c057506040513d601f19601f820116820180604052508101906114bd91906126a9565b60015b6114ff576040517f08c379a00000000000000000000000000000000000000000000000000000000081526004016114f690612748565b60405180910390fd5b7f360894a13ba1a3210667c828492db98dca3e2076cc3735a920a3ca505d382bbc60001b8114611564576040517f08c379a000000000000000000000000000000000000000000000000000000000815260040161155b906127da565b60405180910390fd5b506115708383836118bd565b5b505050565b6000603360009054906101000a900473ffffffffffffffffffffffffffffffffffffffff16905081603360006101000a81548173ffffffffffffffffffffffffffffffffffffffff021916908373ffffffffffffffffffffffffffffffffffffffff1602179055508173ffffffffffffffffffffffffffffffffffffffff168173ffffffffffffffffffffffffffffffffffffffff167f8be0079c531659141344cd1fd0a4f28419497f9722a3daafe3b4186f6b6457e060405160405180910390a35050565b60008060019054906101000a900460ff16156116b35760018260ff1614801561166b5750611669306118e9565b155b6116aa576040517f08c379a00000000000000000000000000000000000000000000000000000000081526004016116a19061286c565b60405180910390fd5b60009050611727565b8160ff1660008054906101000a900460ff1660ff1610611708576040517f08c379a00000000000000000000000000000000000000000000000000000000081526004016116ff9061286c565b60405180910390fd5b816000806101000a81548160ff021916908360ff160217905550600190505b919050565b6000611738600161163c565b9050801561175c576001600060016101000a81548160ff0219169083151502179055505b61176461190c565b80156117bd5760008060016101000a81548160ff0219169083151502179055507f7f26b83ff96e1f2b6a682f133852f6798a09c465da95921460cefb384740249860016040516117b49190612520565b60405180910390a15b50565b6000816040516020016117d391906128e3565b604051602081830303815290604052805190602001209050919050565b6000819050919050565b6000819050919050565b61180d816118e9565b61184c576040517f08c379a00000000000000000000000000000000000000000000000000000000081526004016118439061297b565b60405180910390fd5b806118797f360894a13ba1a3210667c828492db98dca3e2076cc3735a920a3ca505d382bbc60001b6117f0565b60000160006101000a81548173ffffffffffffffffffffffffffffffffffffffff021916908373ffffffffffffffffffffffffffffffffffffffff16021790555050565b6118c683611965565b6000825111806118d35750805b156118e4576118e283836119b4565b505b505050565b6000808273ffffffffffffffffffffffffffffffffffffffff163b119050919050565b600060019054906101000a900460ff1661195b576040517f08c379a000000000000000000000000000000000000000000000000000000000815260040161195290612a0d565b60405180910390fd5b611963611a98565b565b61196e81611804565b8073ffffffffffffffffffffffffffffffffffffffff167fbc7cd75a20ee27fd9adebab32041f755214dbc6bffa90cc0225b39da2e5c2d3b60405160405180910390a250565b60606119bf836118e9565b6119fe576040517f08c379a00000000000000000000000000000000000000000000000000000000081526004016119f590612a9f565b60405180910390fd5b6000808473ffffffffffffffffffffffffffffffffffffffff1684604051611a269190612b2e565b600060405180830381855af49150503d8060008114611a61576040519150601f19603f3d011682016040523d82523d6000602084013e611a66565b606091505b5091509150611a8e8282604051806060016040528060278152602001612bac60279139611af9565b9250505092915050565b600060019054906101000a900460ff16611ae7576040517f08c379a0000000000000000000000000000000000000000000000000000000008152600401611ade90612a0d565b60405180910390fd5b611af7611af26112a8565b611576565b565b60608315611b0957829050611b59565b600083511115611b1c5782518084602001fd5b816040517f08c379a0000000000000000000000000000000000000000000000000000000008152600401611b509190612b89565b60405180910390fd5b9392505050565b6000604051905090565b600080fd5b600080fd5b6000819050919050565b611b8781611b74565b8114611b9257600080fd5b50565b600081359050611ba481611b7e565b92915050565b6000819050919050565b611bbd81611baa565b8114611bc857600080fd5b50565b600081359050611bda81611bb4565b92915050565b60008060408385031215611bf757611bf6611b6a565b5b6000611c0585828601611b95565b9250506020611c1685828601611bcb565b9150509250929050565b60008115159050919050565b611c3581611c20565b82525050565b6000602082019050611c506000830184611c2c565b92915050565b600073ffffffffffffffffffffffffffffffffffffffff82169050919050565b6000611c8182611c56565b9050919050565b611c9181611c76565b8114611c9c57600080fd5b50565b600081359050611cae81611c88565b92915050565b600060208284031215611cca57611cc9611b6a565b5b6000611cd884828501611c9f565b91505092915050565b611cea81611b74565b82525050565b6000602082019050611d056000830184611ce1565b92915050565b600080fd5b600080fd5b6000601f19601f8301169050919050565b7f4e487b7100000000000000000000000000000000000000000000000000000000600052604160045260246000fd5b611d5e82611d15565b810181811067ffffffffffffffff82111715611d7d57611d7c611d26565b5b80604052505050565b6000611d90611b60565b9050611d9c8282611d55565b919050565b600067ffffffffffffffff821115611dbc57611dbb611d26565b5b611dc582611d15565b9050602081019050919050565b82818337600083830152505050565b6000611df4611def84611da1565b611d86565b905082815260208101848484011115611e1057611e0f611d10565b5b611e1b848285611dd2565b509392505050565b600082601f830112611e3857611e37611d0b565b5b8135611e48848260208601611de1565b91505092915050565b60008060408385031215611e6857611e67611b6a565b5b6000611e7685828601611c9f565b925050602083013567ffffffffffffffff811115611e9757611e96611b6f565b5b611ea385828601611e23565b9150509250929050565b611eb681611baa565b82525050565b6000602082019050611ed16000830184611ead565b92915050565b611ee081611c76565b82525050565b6000602082019050611efb6000830184611ed7565b92915050565b6000611f0c82611c76565b9050919050565b611f1c81611f01565b8114611f2757600080fd5b50565b600081359050611f3981611f13565b92915050565b600060208284031215611f5557611f54611b6a565b5b6000611f6384828501611f2a565b91505092915050565b600060208284031215611f8257611f81611b6a565b5b6000611f9084828501611b95565b91505092915050565b600060208284031215611faf57611fae611b6a565b5b6000611fbd84828501611bcb565b91505092915050565b600082825260208201905092915050565b7f46756e666c6f776572204661726d3a204d697373696e67206665650000000000600082015250565b600061200d601b83611fc6565b915061201882611fd7565b602082019050919050565b6000602082019050818103600083015261203c81612000565b9050919050565b7f46756e666c6f776572204661726d3a2053657373696f6e20686173206368616e60008201527f6765640000000000000000000000000000000000000000000000000000000000602082015250565b600061209f602383611fc6565b91506120aa82612043565b604082019050919050565b600060208201905081810360008301526120ce81612092565b9050919050565b60006060820190506120ea6000830186611ce1565b6120f76020830185611ed7565b6121046040830184611ead565b949350505050565b7f46756e666c6f776572204661726d3a2054782045786563757465640000000000600082015250565b6000612142601b83611fc6565b915061214d8261210c565b602082019050919050565b6000602082019050818103600083015261217181612135565b9050919050565b600060408201905061218d6000830185611ed7565b61219a6020830184611ead565b9392505050565b6121aa81611c20565b81146121b557600080fd5b50565b6000815190506121c7816121a1565b92915050565b6000602082840312156121e3576121e2611b6a565b5b60006121f1848285016121b8565b91505092915050565b600081905092915050565b50565b60006122156000836121fa565b915061222082612205565b600082019050919050565b600061223682612208565b9150819050919050565b7f46756e666c6f776572204661726d3a20466565204661696c6564000000000000600082015250565b6000612276601a83611fc6565b915061228182612240565b602082019050919050565b600060208201905081810360008301526122a581612269565b9050919050565b7f4f776e61626c653a2063616c6c6572206973206e6f7420746865206f776e6572600082015250565b60006122e2602083611fc6565b91506122ed826122ac565b602082019050919050565b60006020820190508181036000830152612311816122d5565b9050919050565b7f46756e6374696f6e206d7573742062652063616c6c6564207468726f7567682060008201527f64656c656761746563616c6c0000000000000000000000000000000000000000602082015250565b6000612374602c83611fc6565b915061237f82612318565b604082019050919050565b600060208201905081810360008301526123a381612367565b9050919050565b7f46756e6374696f6e206d7573742062652063616c6c6564207468726f7567682060008201527f6163746976652070726f78790000000000000000000000000000000000000000602082015250565b6000612406602c83611fc6565b9150612411826123aa565b604082019050919050565b60006020820190508181036000830152612435816123f9565b9050919050565b7f555550535570677261646561626c653a206d757374206e6f742062652063616c60008201527f6c6564207468726f7567682064656c656761746563616c6c0000000000000000602082015250565b6000612498603883611fc6565b91506124a38261243c565b604082019050919050565b600060208201905081810360008301526124c78161248b565b9050919050565b6000819050919050565b600060ff82169050919050565b6000819050919050565b600061250a612505612500846124ce565b6124e5565b6124d8565b9050919050565b61251a816124ef565b82525050565b60006020820190506125356000830184612511565b92915050565b7f4f776e61626c653a206e6577206f776e657220697320746865207a65726f206160008201527f6464726573730000000000000000000000000000000000000000000000000000602082015250565b6000612597602683611fc6565b91506125a28261253b565b604082019050919050565b600060208201905081810360008301526125c68161258a565b9050919050565b60008160601b9050919050565b60006125e5826125cd565b9050919050565b60006125f7826125da565b9050919050565b61260f61260a82611c76565b6125ec565b82525050565b6000819050919050565b61263061262b82611b74565b612615565b82525050565b6000819050919050565b61265161264c82611baa565b612636565b82525050565b600061266382866125fe565b601482019150612673828561261f565b6020820191506126838284612640565b602082019150819050949350505050565b6000815190506126a381611b7e565b92915050565b6000602082840312156126bf576126be611b6a565b5b60006126cd84828501612694565b91505092915050565b7f45524331393637557067726164653a206e657720696d706c656d656e7461746960008201527f6f6e206973206e6f742055555053000000000000000000000000000000000000602082015250565b6000612732602e83611fc6565b915061273d826126d6565b604082019050919050565b6000602082019050818103600083015261276181612725565b9050919050565b7f45524331393637557067726164653a20756e737570706f727465642070726f7860008201527f6961626c65555549440000000000000000000000000000000000000000000000602082015250565b60006127c4602983611fc6565b91506127cf82612768565b604082019050919050565b600060208201905081810360008301526127f3816127b7565b9050919050565b7f496e697469616c697a61626c653a20636f6e747261637420697320616c72656160008201527f647920696e697469616c697a6564000000000000000000000000000000000000602082015250565b6000612856602e83611fc6565b9150612861826127fa565b604082019050919050565b6000602082019050818103600083015261288581612849565b9050919050565b600081905092915050565b7f19457468657265756d205369676e6564204d6573736167653a0a333200000000600082015250565b60006128cd601c8361288c565b91506128d882612897565b601c82019050919050565b60006128ee826128c0565b91506128fa828461261f565b60208201915081905092915050565b7f455243313936373a206e657720696d706c656d656e746174696f6e206973206e60008201527f6f74206120636f6e747261637400000000000000000000000000000000000000602082015250565b6000612965602d83611fc6565b915061297082612909565b604082019050919050565b6000602082019050818103600083015261299481612958565b9050919050565b7f496e697469616c697a61626c653a20636f6e7472616374206973206e6f74206960008201527f6e697469616c697a696e67000000000000000000000000000000000000000000602082015250565b60006129f7602b83611fc6565b9150612a028261299b565b604082019050919050565b60006020820190508181036000830152612a26816129ea565b9050919050565b7f416464726573733a2064656c65676174652063616c6c20746f206e6f6e2d636f60008201527f6e74726163740000000000000000000000000000000000000000000000000000602082015250565b6000612a89602683611fc6565b9150612a9482612a2d565b604082019050919050565b60006020820190508181036000830152612ab881612a7c565b9050919050565b600081519050919050565b60005b83811015612ae8578082015181840152602081019050612acd565b83811115612af7576000848401525b50505050565b6000612b0882612abf565b612b1281856121fa565b9350612b22818560208601612aca565b80840191505092915050565b6000612b3a8284612afd565b915081905092915050565b600081519050919050565b6000612b5b82612b45565b612b658185611fc6565b9350612b75818560208601612aca565b612b7e81611d15565b840191505092915050565b60006020820190508181036000830152612ba38184612b50565b90509291505056fe416464726573733a206c6f772d6c6576656c2064656c65676174652063616c6c206661696c6564a26469706673582212208be29f114986bfebc45e90570f9b722a2e45a743691f30be66259c0028f2009064736f6c634300080d0033",
  "immutableReferences": {
    "685": [
      {
        "length": 32,
        "start": 2194
      },
      {
        "length": 32,
        "start": 2336
      },
      {
        "length": 32,
        "start": 2802
      },
      {
        "length": 32,
        "start": 2944
      },
      {
        "length": 32,
        "start": 3144
      }
    ]
  },
  "source": "   \n// SPDX-License-Identifier: MIT\npragma solidity ^0.8.0;\n\nimport \"@openzeppelin/contracts-upgradeable/proxy/utils/UUPSUpgradeable.sol\";\nimport \"@openzeppelin/contracts/utils/cryptography/ECDSA.sol\";\n\nimport \"./GameOwnerUpgradeable.sol\";\nimport \"./FFFToken.sol\";\n\ncontract Bank is GameOwnerUpgradeable, UUPSUpgradeable {\n\n    using ECDSA for bytes32;\n\n    event SessionChanged(address indexed owner, bytes32 indexed sessionId, bytes32 indexed thxId);\n\n    mapping(bytes32 => bool) public executed;\n\n    // Farm ID to saved timestamp\n    mapping(address => bytes32) public sessions;\n    mapping(address => uint) public syncedAt;\n\n    uint private withdrawFee;\n    address private withdrawFeeWallet;\n\n\n    FunflowerFarmToken private fffToken;\n\n    function initialize() public override initializer {\n        GameOwnerUpgradeable.initialize();\n        gameRoles[msg.sender] = true;\n        withdrawFee = 1 * (10 ** 17); //0.1\n        withdrawFeeWallet = _msgSender();\n    }\n\n    function setTokens(FunflowerFarmToken _fffToken) public onlyOwner {\n        fffToken = _fffToken;\n    }\n\n    function setWithdrawFee(uint _fee) public onlyOwner {\n        withdrawFee = _fee;\n    }\n\n    function transferWithdrawFeeWallet(address _team) public onlyOwner {\n        withdrawFeeWallet = _team;\n    }\n\n    function _authorizeUpgrade(address) internal override onlyOwner {}\n\n    function getSessionId(address _address) public view returns(bytes32) {\n        bytes32 id = sessions[_address];\n\n        if (id == 0) {\n            // First ID is based on the unique contract\n            id = keccak256(abi.encode(address(this)));\n        }\n\n        return id;\n    }\n\n        // A unique nonce identifer for the account\n    function generateSessionId(address _address) private view returns(bytes32) {\n        return keccak256(abi.encodePacked(_msgSender(), sessions[_address], block.number)).toEthSignedMessageHash();\n    }\n\n    function withdraw(\n        //bytes memory signature,\n        bytes32 sessionId,\n        uint256 fff) \n        payable public returns (bool) {\n        require(msg.value >= withdrawFee, \"Funflower Farm: Missing fee\");\n\n        // Check the session is new or has not changed (already saved or withdrew funds)\n        bytes32 userSessionId = getSessionId(_msgSender());\n        require(\n            userSessionId == sessionId,\n            \"Funflower Farm: Session has changed\"\n        );\n\n        // Start a new session\n        bytes32 newSessionId = generateSessionId(_msgSender());\n        sessions[_msgSender()] = newSessionId;\n        syncedAt[_msgSender()] = block.timestamp;\n\n        // Verify\n        bytes32 txHash = keccak256(abi.encode(sessionId,  _msgSender(), fff));\n        require(!executed[txHash], \"Funflower Farm: Tx Executed\");\n        //require(verify(txHash, signature), \"Funflower Farm: Unauthorised\");\n        executed[txHash] = true;\n\n\n        fffToken.gameMint(msg.sender, fff);\n\n        (bool teamSent,) = withdrawFeeWallet.call{value: msg.value}(\"\");\n        require(teamSent, \"Funflower Farm: Fee Failed\");\n\n        emit SessionChanged(_msgSender(), newSessionId, txHash);\n\n        return true;\n    }\n\n}",
  "sourcePath": "/mnt/c/Users/nfmelendez/crypto/contracts/contracts/Bank.sol",
  "compiler": {
    "name": "solc",
    "version": "0.8.13+commit.abaa5c0e.Emscripten.clang"
  },
  "schemaVersion": "3.4.4",
  "updatedAt": "2022-05-16T21:02:23.570Z",
  "devdoc": {
    "kind": "dev",
    "methods": {
      "owner()": {
        "details": "Returns the address of the current owner."
      },
      "proxiableUUID()": {
        "details": "Implementation of the ERC1822 {proxiableUUID} function. This returns the storage slot used by the implementation. It is used to validate that the this implementation remains valid after an upgrade. IMPORTANT: A proxy pointing at a proxiable contract should not be considered proxiable itself, because this risks bricking a proxy that upgrades to it, by delegating to itself until out of gas. Thus it is critical that this function revert if invoked through a proxy. This is guaranteed by the `notDelegated` modifier."
      },
      "renounceOwnership()": {
        "details": "Leaves the contract without owner. It will not be possible to call `onlyOwner` functions anymore. Can only be called by the current owner. NOTE: Renouncing ownership will leave the contract without an owner, thereby removing any functionality that is only available to the owner."
      },
      "transferOwnership(address)": {
        "details": "Transfers ownership of the contract to a new account (`newOwner`). Can only be called by the current owner."
      },
      "upgradeTo(address)": {
        "details": "Upgrade the implementation of the proxy to `newImplementation`. Calls {_authorizeUpgrade}. Emits an {Upgraded} event."
      },
      "upgradeToAndCall(address,bytes)": {
        "details": "Upgrade the implementation of the proxy to `newImplementation`, and subsequently execute the function call encoded in `data`. Calls {_authorizeUpgrade}. Emits an {Upgraded} event."
      }
    },
    "version": 1
  },
  "userdoc": {
    "kind": "user",
    "methods": {},
    "version": 1
  }
}