{
  "contractName": "Bank",
  "abi": [
    {
      "anonymous": false,
      "inputs": [
        {
          "indexed": false,
          "internalType": "address",
          "name": "previousAdmin",
          "type": "address"
        },
        {
          "indexed": false,
          "internalType": "address",
          "name": "newAdmin",
          "type": "address"
        }
      ],
      "name": "AdminChanged",
      "type": "event"
    },
    {
      "anonymous": false,
      "inputs": [
        {
          "indexed": true,
          "internalType": "address",
          "name": "beacon",
          "type": "address"
        }
      ],
      "name": "BeaconUpgraded",
      "type": "event"
    },
    {
      "anonymous": false,
      "inputs": [
        {
          "indexed": false,
          "internalType": "uint8",
          "name": "version",
          "type": "uint8"
        }
      ],
      "name": "Initialized",
      "type": "event"
    },
    {
      "anonymous": false,
      "inputs": [
        {
          "indexed": true,
          "internalType": "address",
          "name": "previousOwner",
          "type": "address"
        },
        {
          "indexed": true,
          "internalType": "address",
          "name": "newOwner",
          "type": "address"
        }
      ],
      "name": "OwnershipTransferred",
      "type": "event"
    },
    {
      "anonymous": false,
      "inputs": [
        {
          "indexed": true,
          "internalType": "address",
          "name": "owner",
          "type": "address"
        },
        {
          "indexed": true,
          "internalType": "bytes32",
          "name": "sessionId",
          "type": "bytes32"
        },
        {
          "indexed": true,
          "internalType": "bytes32",
          "name": "thxId",
          "type": "bytes32"
        }
      ],
      "name": "SessionChanged",
      "type": "event"
    },
    {
      "anonymous": false,
      "inputs": [
        {
          "indexed": true,
          "internalType": "address",
          "name": "implementation",
          "type": "address"
        }
      ],
      "name": "Upgraded",
      "type": "event"
    },
    {
      "inputs": [
        {
          "internalType": "address",
          "name": "_game",
          "type": "address"
        }
      ],
      "name": "addGameRole",
      "outputs": [],
      "stateMutability": "nonpayable",
      "type": "function"
    },
    {
      "inputs": [
        {
          "internalType": "bytes32",
          "name": "",
          "type": "bytes32"
        }
      ],
      "name": "executed",
      "outputs": [
        {
          "internalType": "bool",
          "name": "",
          "type": "bool"
        }
      ],
      "stateMutability": "view",
      "type": "function"
    },
    {
      "inputs": [],
      "name": "owner",
      "outputs": [
        {
          "internalType": "address",
          "name": "",
          "type": "address"
        }
      ],
      "stateMutability": "view",
      "type": "function"
    },
    {
      "inputs": [],
      "name": "proxiableUUID",
      "outputs": [
        {
          "internalType": "bytes32",
          "name": "",
          "type": "bytes32"
        }
      ],
      "stateMutability": "view",
      "type": "function"
    },
    {
      "inputs": [
        {
          "internalType": "address",
          "name": "_game",
          "type": "address"
        }
      ],
      "name": "removeGameRole",
      "outputs": [],
      "stateMutability": "nonpayable",
      "type": "function"
    },
    {
      "inputs": [],
      "name": "renounceOwnership",
      "outputs": [],
      "stateMutability": "nonpayable",
      "type": "function"
    },
    {
      "inputs": [
        {
          "internalType": "address",
          "name": "",
          "type": "address"
        }
      ],
      "name": "sessions",
      "outputs": [
        {
          "internalType": "bytes32",
          "name": "",
          "type": "bytes32"
        }
      ],
      "stateMutability": "view",
      "type": "function"
    },
    {
      "inputs": [
        {
          "internalType": "address",
          "name": "",
          "type": "address"
        }
      ],
      "name": "syncedAt",
      "outputs": [
        {
          "internalType": "uint256",
          "name": "",
          "type": "uint256"
        }
      ],
      "stateMutability": "view",
      "type": "function"
    },
    {
      "inputs": [
        {
          "internalType": "address",
          "name": "newOwner",
          "type": "address"
        }
      ],
      "name": "transferOwnership",
      "outputs": [],
      "stateMutability": "nonpayable",
      "type": "function"
    },
    {
      "inputs": [
        {
          "internalType": "address",
          "name": "newImplementation",
          "type": "address"
        }
      ],
      "name": "upgradeTo",
      "outputs": [],
      "stateMutability": "nonpayable",
      "type": "function"
    },
    {
      "inputs": [
        {
          "internalType": "address",
          "name": "newImplementation",
          "type": "address"
        },
        {
          "internalType": "bytes",
          "name": "data",
          "type": "bytes"
        }
      ],
      "name": "upgradeToAndCall",
      "outputs": [],
      "stateMutability": "payable",
      "type": "function"
    },
    {
      "inputs": [],
      "name": "initialize",
      "outputs": [],
      "stateMutability": "nonpayable",
      "type": "function"
    },
    {
      "inputs": [
        {
          "internalType": "contract FunflowerFarmToken",
          "name": "_fffToken",
          "type": "address"
        }
      ],
      "name": "setTokens",
      "outputs": [],
      "stateMutability": "nonpayable",
      "type": "function"
    },
    {
      "inputs": [
        {
          "internalType": "uint256",
          "name": "_fee",
          "type": "uint256"
        }
      ],
      "name": "setWithdrawFee",
      "outputs": [],
      "stateMutability": "nonpayable",
      "type": "function"
    },
    {
      "inputs": [
        {
          "internalType": "address",
          "name": "_signer",
          "type": "address"
        }
      ],
      "name": "transferSigner",
      "outputs": [],
      "stateMutability": "nonpayable",
      "type": "function"
    },
    {
      "inputs": [
        {
          "internalType": "address",
          "name": "_team",
          "type": "address"
        }
      ],
      "name": "transferWithdrawFeeWallet",
      "outputs": [],
      "stateMutability": "nonpayable",
      "type": "function"
    },
    {
      "inputs": [
        {
          "internalType": "address",
          "name": "_address",
          "type": "address"
        }
      ],
      "name": "getSessionId",
      "outputs": [
        {
          "internalType": "bytes32",
          "name": "",
          "type": "bytes32"
        }
      ],
      "stateMutability": "view",
      "type": "function"
    },
    {
      "inputs": [
        {
          "internalType": "bytes",
          "name": "signature",
          "type": "bytes"
        },
        {
          "internalType": "bytes32",
          "name": "sessionId",
          "type": "bytes32"
        },
        {
          "internalType": "uint256",
          "name": "fff",
          "type": "uint256"
        },
        {
          "internalType": "uint256",
          "name": "deadline",
          "type": "uint256"
        }
      ],
      "name": "withdraw",
      "outputs": [
        {
          "internalType": "bool",
          "name": "",
          "type": "bool"
        }
      ],
      "stateMutability": "payable",
      "type": "function"
    }
  ],
  "bytecode": "0x60a06040523073ffffffffffffffffffffffffffffffffffffffff1660809073ffffffffffffffffffffffffffffffffffffffff1681525034801561004357600080fd5b5060805161365a61007b60003960008181610956015281816109e401528181610c7601528181610d040152610dcc015261365a6000f3fe6080604052600436106101095760003560e01c8063715018a611610095578063a639eb4d11610064578063a639eb4d14610325578063a9fcfb331461034e578063b6ac642a1461038b578063c49d30b2146103b4578063f2fde38b146103f157610109565b8063715018a6146102a35780637323b8fa146102ba5780638129fc1c146102e35780638da5cb5b146102fa57610109565b806339a885af116100dc57806339a885af146101b9578063431a1b97146101e25780634f1ef2861461021f578063512a87741461023b57806352d1902d1461027857610109565b806319892b511461010e578063260cd43b146101375780633659cfe6146101675780633660a08414610190575b600080fd5b34801561011a57600080fd5b50610135600480360381019061013091906121f7565b61041a565b005b610151600480360381019061014c91906123d6565b6104f1565b60405161015e9190612474565b60405180910390f35b34801561017357600080fd5b5061018e600480360381019061018991906121f7565b610954565b005b34801561019c57600080fd5b506101b760048036038101906101b291906121f7565b610adc565b005b3480156101c557600080fd5b506101e060048036038101906101db91906121f7565b610b9c565b005b3480156101ee57600080fd5b50610209600480360381019061020491906121f7565b610c5c565b604051610216919061249e565b60405180910390f35b610239600480360381019061023491906124b9565b610c74565b005b34801561024757600080fd5b50610262600480360381019061025d91906121f7565b610db0565b60405161026f9190612524565b60405180910390f35b34801561028457600080fd5b5061028d610dc8565b60405161029a919061249e565b60405180910390f35b3480156102af57600080fd5b506102b8610e81565b005b3480156102c657600080fd5b506102e160048036038101906102dc91906121f7565b610f09565b005b3480156102ef57600080fd5b506102f8610fe0565b005b34801561030657600080fd5b5061030f61116b565b60405161031c919061254e565b60405180910390f35b34801561033157600080fd5b5061034c600480360381019061034791906125a7565b611195565b005b34801561035a57600080fd5b50610375600480360381019061037091906125d4565b611255565b6040516103829190612474565b60405180910390f35b34801561039757600080fd5b506103b260048036038101906103ad9190612601565b611275565b005b3480156103c057600080fd5b506103db60048036038101906103d691906121f7565b6112fb565b6040516103e8919061249e565b60405180910390f35b3480156103fd57600080fd5b50610418600480360381019061041391906121f7565b61137d565b005b610422611474565b73ffffffffffffffffffffffffffffffffffffffff1661044061116b565b73ffffffffffffffffffffffffffffffffffffffff1614610496576040517f08c379a000000000000000000000000000000000000000000000000000000000815260040161048d9061268b565b60405180910390fd5b6000606560008373ffffffffffffffffffffffffffffffffffffffff1673ffffffffffffffffffffffffffffffffffffffff16815260200190815260200160002060006101000a81548160ff02191690831515021790555050565b600042821015610536576040517f08c379a000000000000000000000000000000000000000000000000000000000815260040161052d906126f7565b60405180910390fd5b60cd5434101561057b576040517f08c379a000000000000000000000000000000000000000000000000000000000815260040161057290612763565b60405180910390fd5b600061058d610588611474565b6112fb565b90508481146105d1576040517f08c379a00000000000000000000000000000000000000000000000000000000081526004016105c8906127f5565b60405180910390fd5b60006105e36105de611474565b61147c565b90508060cb60006105f2611474565b73ffffffffffffffffffffffffffffffffffffffff1673ffffffffffffffffffffffffffffffffffffffff168152602001908152602001600020819055504260cc600061063d611474565b73ffffffffffffffffffffffffffffffffffffffff1673ffffffffffffffffffffffffffffffffffffffff16815260200190815260200160002081905550600086610686611474565b878760405160200161069b9493929190612815565b60405160208183030381529060405280519060200120905060ca600082815260200190815260200160002060009054906101000a900460ff1615610714576040517f08c379a000000000000000000000000000000000000000000000000000000000815260040161070b906128a6565b60405180910390fd5b61071e81896114fe565b61075d576040517f08c379a000000000000000000000000000000000000000000000000000000000815260040161075490612912565b60405180910390fd5b600160ca600083815260200190815260200160002060006101000a81548160ff02191690831515021790555060d060009054906101000a900473ffffffffffffffffffffffffffffffffffffffff1673ffffffffffffffffffffffffffffffffffffffff16634eb9029933886040518363ffffffff1660e01b81526004016107e6929190612932565b6020604051808303816000875af1158015610805573d6000803e3d6000fd5b505050506040513d601f19601f820116820180604052508101906108299190612987565b50600060ce60009054906101000a900473ffffffffffffffffffffffffffffffffffffffff1673ffffffffffffffffffffffffffffffffffffffff1634604051610872906129e5565b60006040518083038185875af1925050503d80600081146108af576040519150601f19603f3d011682016040523d82523d6000602084013e6108b4565b606091505b50509050806108f8576040517f08c379a00000000000000000000000000000000000000000000000000000000081526004016108ef90612a46565b60405180910390fd5b8183610902611474565b73ffffffffffffffffffffffffffffffffffffffff167fcac9af989a516c4c60edc5fbf71447795c7f8d6c5037e3e8d7d19b07b4c3c72960405160405180910390a46001945050505050949350505050565b7f000000000000000000000000000000000000000000000000000000000000000073ffffffffffffffffffffffffffffffffffffffff163073ffffffffffffffffffffffffffffffffffffffff16036109e2576040517f08c379a00000000000000000000000000000000000000000000000000000000081526004016109d990612ad8565b60405180910390fd5b7f000000000000000000000000000000000000000000000000000000000000000073ffffffffffffffffffffffffffffffffffffffff16610a21611578565b73ffffffffffffffffffffffffffffffffffffffff1614610a77576040517f08c379a0000000000000000000000000000000000000000000000000000000008152600401610a6e90612b6a565b60405180910390fd5b610a80816115cf565b610ad981600067ffffffffffffffff811115610a9f57610a9e61223f565b5b6040519080825280601f01601f191660200182016040528015610ad15781602001600182028036833780820191505090505b50600061164e565b50565b610ae4611474565b73ffffffffffffffffffffffffffffffffffffffff16610b0261116b565b73ffffffffffffffffffffffffffffffffffffffff1614610b58576040517f08c379a0000000000000000000000000000000000000000000000000000000008152600401610b4f9061268b565b60405180910390fd5b8060cf60006101000a81548173ffffffffffffffffffffffffffffffffffffffff021916908373ffffffffffffffffffffffffffffffffffffffff16021790555050565b610ba4611474565b73ffffffffffffffffffffffffffffffffffffffff16610bc261116b565b73ffffffffffffffffffffffffffffffffffffffff1614610c18576040517f08c379a0000000000000000000000000000000000000000000000000000000008152600401610c0f9061268b565b60405180910390fd5b8060ce60006101000a81548173ffffffffffffffffffffffffffffffffffffffff021916908373ffffffffffffffffffffffffffffffffffffffff16021790555050565b60cb6020528060005260406000206000915090505481565b7f000000000000000000000000000000000000000000000000000000000000000073ffffffffffffffffffffffffffffffffffffffff163073ffffffffffffffffffffffffffffffffffffffff1603610d02576040517f08c379a0000000000000000000000000000000000000000000000000000000008152600401610cf990612ad8565b60405180910390fd5b7f000000000000000000000000000000000000000000000000000000000000000073ffffffffffffffffffffffffffffffffffffffff16610d41611578565b73ffffffffffffffffffffffffffffffffffffffff1614610d97576040517f08c379a0000000000000000000000000000000000000000000000000000000008152600401610d8e90612b6a565b60405180910390fd5b610da0826115cf565b610dac8282600161164e565b5050565b60cc6020528060005260406000206000915090505481565b60007f000000000000000000000000000000000000000000000000000000000000000073ffffffffffffffffffffffffffffffffffffffff163073ffffffffffffffffffffffffffffffffffffffff1614610e58576040517f08c379a0000000000000000000000000000000000000000000000000000000008152600401610e4f90612bfc565b60405180910390fd5b7f360894a13ba1a3210667c828492db98dca3e2076cc3735a920a3ca505d382bbc60001b905090565b610e89611474565b73ffffffffffffffffffffffffffffffffffffffff16610ea761116b565b73ffffffffffffffffffffffffffffffffffffffff1614610efd576040517f08c379a0000000000000000000000000000000000000000000000000000000008152600401610ef49061268b565b60405180910390fd5b610f0760006117bc565b565b610f11611474565b73ffffffffffffffffffffffffffffffffffffffff16610f2f61116b565b73ffffffffffffffffffffffffffffffffffffffff1614610f85576040517f08c379a0000000000000000000000000000000000000000000000000000000008152600401610f7c9061268b565b60405180910390fd5b6001606560008373ffffffffffffffffffffffffffffffffffffffff1673ffffffffffffffffffffffffffffffffffffffff16815260200190815260200160002060006101000a81548160ff02191690831515021790555050565b6000610fec6001611882565b90508015611010576001600060016101000a81548160ff0219169083151502179055505b611018611972565b6001606560003373ffffffffffffffffffffffffffffffffffffffff1673ffffffffffffffffffffffffffffffffffffffff16815260200190815260200160002060006101000a81548160ff02191690831515021790555067016345785d8a000060cd81905550611087611474565b60ce60006101000a81548173ffffffffffffffffffffffffffffffffffffffff021916908373ffffffffffffffffffffffffffffffffffffffff1602179055506110cf611474565b60cf60006101000a81548173ffffffffffffffffffffffffffffffffffffffff021916908373ffffffffffffffffffffffffffffffffffffffff16021790555080156111685760008060016101000a81548160ff0219169083151502179055507f7f26b83ff96e1f2b6a682f133852f6798a09c465da95921460cefb3847402498600160405161115f9190612c6e565b60405180910390a15b50565b6000603360009054906101000a900473ffffffffffffffffffffffffffffffffffffffff16905090565b61119d611474565b73ffffffffffffffffffffffffffffffffffffffff166111bb61116b565b73ffffffffffffffffffffffffffffffffffffffff1614611211576040517f08c379a00000000000000000000000000000000000000000000000000000000081526004016112089061268b565b60405180910390fd5b8060d060006101000a81548173ffffffffffffffffffffffffffffffffffffffff021916908373ffffffffffffffffffffffffffffffffffffffff16021790555050565b60ca6020528060005260406000206000915054906101000a900460ff1681565b61127d611474565b73ffffffffffffffffffffffffffffffffffffffff1661129b61116b565b73ffffffffffffffffffffffffffffffffffffffff16146112f1576040517f08c379a00000000000000000000000000000000000000000000000000000000081526004016112e89061268b565b60405180910390fd5b8060cd8190555050565b60008060cb60008473ffffffffffffffffffffffffffffffffffffffff1673ffffffffffffffffffffffffffffffffffffffff1681526020019081526020016000205490506000801b8103611374573060405160200161135b919061254e565b6040516020818303038152906040528051906020012090505b80915050919050565b611385611474565b73ffffffffffffffffffffffffffffffffffffffff166113a361116b565b73ffffffffffffffffffffffffffffffffffffffff16146113f9576040517f08c379a00000000000000000000000000000000000000000000000000000000081526004016113f09061268b565b60405180910390fd5b600073ffffffffffffffffffffffffffffffffffffffff168173ffffffffffffffffffffffffffffffffffffffff1603611468576040517f08c379a000000000000000000000000000000000000000000000000000000000815260040161145f90612cfb565b60405180910390fd5b611471816117bc565b50565b600033905090565b60006114f7611489611474565b60cb60008573ffffffffffffffffffffffffffffffffffffffff1673ffffffffffffffffffffffffffffffffffffffff16815260200190815260200160002054436040516020016114dc93929190612da5565b60405160208183030381529060405280519060200120611a06565b9050919050565b60008061150a84611a06565b905060cf60009054906101000a900473ffffffffffffffffffffffffffffffffffffffff1673ffffffffffffffffffffffffffffffffffffffff166115588483611a3690919063ffffffff16565b73ffffffffffffffffffffffffffffffffffffffff161491505092915050565b60006115a67f360894a13ba1a3210667c828492db98dca3e2076cc3735a920a3ca505d382bbc60001b611a5d565b60000160009054906101000a900473ffffffffffffffffffffffffffffffffffffffff16905090565b6115d7611474565b73ffffffffffffffffffffffffffffffffffffffff166115f561116b565b73ffffffffffffffffffffffffffffffffffffffff161461164b576040517f08c379a00000000000000000000000000000000000000000000000000000000081526004016116429061268b565b60405180910390fd5b50565b61167a7f4910fdfa16fed3260ed0e7147f7cc6da11a60208b5b9406d12a635614ffd914360001b611a67565b60000160009054906101000a900460ff161561169e5761169983611a71565b6117b7565b8273ffffffffffffffffffffffffffffffffffffffff166352d1902d6040518163ffffffff1660e01b8152600401602060405180830381865afa92505050801561170657506040513d601f19601f820116820180604052508101906117039190612df7565b60015b611745576040517f08c379a000000000000000000000000000000000000000000000000000000000815260040161173c90612e96565b60405180910390fd5b7f360894a13ba1a3210667c828492db98dca3e2076cc3735a920a3ca505d382bbc60001b81146117aa576040517f08c379a00000000000000000000000000000000000000000000000000000000081526004016117a190612f28565b60405180910390fd5b506117b6838383611b2a565b5b505050565b6000603360009054906101000a900473ffffffffffffffffffffffffffffffffffffffff16905081603360006101000a81548173ffffffffffffffffffffffffffffffffffffffff021916908373ffffffffffffffffffffffffffffffffffffffff1602179055508173ffffffffffffffffffffffffffffffffffffffff168173ffffffffffffffffffffffffffffffffffffffff167f8be0079c531659141344cd1fd0a4f28419497f9722a3daafe3b4186f6b6457e060405160405180910390a35050565b60008060019054906101000a900460ff16156118f95760018260ff161480156118b157506118af30611b56565b155b6118f0576040517f08c379a00000000000000000000000000000000000000000000000000000000081526004016118e790612fba565b60405180910390fd5b6000905061196d565b8160ff1660008054906101000a900460ff1660ff161061194e576040517f08c379a000000000000000000000000000000000000000000000000000000000815260040161194590612fba565b60405180910390fd5b816000806101000a81548160ff021916908360ff160217905550600190505b919050565b600061197e6001611882565b905080156119a2576001600060016101000a81548160ff0219169083151502179055505b6119aa611b79565b8015611a035760008060016101000a81548160ff0219169083151502179055507f7f26b83ff96e1f2b6a682f133852f6798a09c465da95921460cefb384740249860016040516119fa9190612c6e565b60405180910390a15b50565b600081604051602001611a199190613031565b604051602081830303815290604052805190602001209050919050565b6000806000611a458585611bd2565b91509150611a5281611c53565b819250505092915050565b6000819050919050565b6000819050919050565b611a7a81611b56565b611ab9576040517f08c379a0000000000000000000000000000000000000000000000000000000008152600401611ab0906130c9565b60405180910390fd5b80611ae67f360894a13ba1a3210667c828492db98dca3e2076cc3735a920a3ca505d382bbc60001b611a5d565b60000160006101000a81548173ffffffffffffffffffffffffffffffffffffffff021916908373ffffffffffffffffffffffffffffffffffffffff16021790555050565b611b3383611e1f565b600082511180611b405750805b15611b5157611b4f8383611e6e565b505b505050565b6000808273ffffffffffffffffffffffffffffffffffffffff163b119050919050565b600060019054906101000a900460ff16611bc8576040517f08c379a0000000000000000000000000000000000000000000000000000000008152600401611bbf9061315b565b60405180910390fd5b611bd0611f52565b565b6000806041835103611c135760008060006020860151925060408601519150606086015160001a9050611c0787828585611fb3565b94509450505050611c4c565b6040835103611c43576000806020850151915060408501519050611c388683836120bf565b935093505050611c4c565b60006002915091505b9250929050565b60006004811115611c6757611c6661317b565b5b816004811115611c7a57611c7961317b565b5b0315611e1c5760016004811115611c9457611c9361317b565b5b816004811115611ca757611ca661317b565b5b03611ce7576040517f08c379a0000000000000000000000000000000000000000000000000000000008152600401611cde906131f6565b60405180910390fd5b60026004811115611cfb57611cfa61317b565b5b816004811115611d0e57611d0d61317b565b5b03611d4e576040517f08c379a0000000000000000000000000000000000000000000000000000000008152600401611d4590613262565b60405180910390fd5b60036004811115611d6257611d6161317b565b5b816004811115611d7557611d7461317b565b5b03611db5576040517f08c379a0000000000000000000000000000000000000000000000000000000008152600401611dac906132f4565b60405180910390fd5b600480811115611dc857611dc761317b565b5b816004811115611ddb57611dda61317b565b5b03611e1b576040517f08c379a0000000000000000000000000000000000000000000000000000000008152600401611e1290613386565b60405180910390fd5b5b50565b611e2881611a71565b8073ffffffffffffffffffffffffffffffffffffffff167fbc7cd75a20ee27fd9adebab32041f755214dbc6bffa90cc0225b39da2e5c2d3b60405160405180910390a250565b6060611e7983611b56565b611eb8576040517f08c379a0000000000000000000000000000000000000000000000000000000008152600401611eaf90613418565b60405180910390fd5b6000808473ffffffffffffffffffffffffffffffffffffffff1684604051611ee091906134a7565b600060405180830381855af49150503d8060008114611f1b576040519150601f19603f3d011682016040523d82523d6000602084013e611f20565b606091505b5091509150611f4882826040518060600160405280602781526020016135fe6027913961211e565b9250505092915050565b600060019054906101000a900460ff16611fa1576040517f08c379a0000000000000000000000000000000000000000000000000000000008152600401611f989061315b565b60405180910390fd5b611fb1611fac611474565b6117bc565b565b6000807f7fffffffffffffffffffffffffffffff5d576e7357a4501ddfe92f46681b20a08360001c1115611fee5760006003915091506120b6565b601b8560ff16141580156120065750601c8560ff1614155b156120185760006004915091506120b6565b60006001878787876040516000815260200160405260405161203d94939291906134cd565b6020604051602081039080840390855afa15801561205f573d6000803e3d6000fd5b505050602060405103519050600073ffffffffffffffffffffffffffffffffffffffff168173ffffffffffffffffffffffffffffffffffffffff16036120ad576000600192509250506120b6565b80600092509250505b94509492505050565b60008060007f7fffffffffffffffffffffffffffffffffffffffffffffffffffffffffffffff60001b841690506000601b60ff8660001c901c6121029190613541565b905061211087828885611fb3565b935093505050935093915050565b6060831561212e5782905061217e565b6000835111156121415782518084602001fd5b816040517f08c379a000000000000000000000000000000000000000000000000000000000815260040161217591906135db565b60405180910390fd5b9392505050565b6000604051905090565b600080fd5b600080fd5b600073ffffffffffffffffffffffffffffffffffffffff82169050919050565b60006121c482612199565b9050919050565b6121d4816121b9565b81146121df57600080fd5b50565b6000813590506121f1816121cb565b92915050565b60006020828403121561220d5761220c61218f565b5b600061221b848285016121e2565b91505092915050565b600080fd5b600080fd5b6000601f19601f8301169050919050565b7f4e487b7100000000000000000000000000000000000000000000000000000000600052604160045260246000fd5b6122778261222e565b810181811067ffffffffffffffff821117156122965761229561223f565b5b80604052505050565b60006122a9612185565b90506122b5828261226e565b919050565b600067ffffffffffffffff8211156122d5576122d461223f565b5b6122de8261222e565b9050602081019050919050565b82818337600083830152505050565b600061230d612308846122ba565b61229f565b90508281526020810184848401111561232957612328612229565b5b6123348482856122eb565b509392505050565b600082601f83011261235157612350612224565b5b81356123618482602086016122fa565b91505092915050565b6000819050919050565b61237d8161236a565b811461238857600080fd5b50565b60008135905061239a81612374565b92915050565b6000819050919050565b6123b3816123a0565b81146123be57600080fd5b50565b6000813590506123d0816123aa565b92915050565b600080600080608085870312156123f0576123ef61218f565b5b600085013567ffffffffffffffff81111561240e5761240d612194565b5b61241a8782880161233c565b945050602061242b8782880161238b565b935050604061243c878288016123c1565b925050606061244d878288016123c1565b91505092959194509250565b60008115159050919050565b61246e81612459565b82525050565b60006020820190506124896000830184612465565b92915050565b6124988161236a565b82525050565b60006020820190506124b3600083018461248f565b92915050565b600080604083850312156124d0576124cf61218f565b5b60006124de858286016121e2565b925050602083013567ffffffffffffffff8111156124ff576124fe612194565b5b61250b8582860161233c565b9150509250929050565b61251e816123a0565b82525050565b60006020820190506125396000830184612515565b92915050565b612548816121b9565b82525050565b6000602082019050612563600083018461253f565b92915050565b6000612574826121b9565b9050919050565b61258481612569565b811461258f57600080fd5b50565b6000813590506125a18161257b565b92915050565b6000602082840312156125bd576125bc61218f565b5b60006125cb84828501612592565b91505092915050565b6000602082840312156125ea576125e961218f565b5b60006125f88482850161238b565b91505092915050565b6000602082840312156126175761261661218f565b5b6000612625848285016123c1565b91505092915050565b600082825260208201905092915050565b7f4f776e61626c653a2063616c6c6572206973206e6f7420746865206f776e6572600082015250565b600061267560208361262e565b91506126808261263f565b602082019050919050565b600060208201905081810360008301526126a481612668565b9050919050565b7f46756e666c6f776572204661726d3a20446561646c696e652050617373656400600082015250565b60006126e1601f8361262e565b91506126ec826126ab565b602082019050919050565b60006020820190508181036000830152612710816126d4565b9050919050565b7f46756e666c6f776572204661726d3a204d697373696e67206665650000000000600082015250565b600061274d601b8361262e565b915061275882612717565b602082019050919050565b6000602082019050818103600083015261277c81612740565b9050919050565b7f46756e666c6f776572204661726d3a2053657373696f6e20686173206368616e60008201527f6765640000000000000000000000000000000000000000000000000000000000602082015250565b60006127df60238361262e565b91506127ea82612783565b604082019050919050565b6000602082019050818103600083015261280e816127d2565b9050919050565b600060808201905061282a600083018761248f565b612837602083018661253f565b6128446040830185612515565b6128516060830184612515565b95945050505050565b7f46756e666c6f776572204661726d3a2054782045786563757465640000000000600082015250565b6000612890601b8361262e565b915061289b8261285a565b602082019050919050565b600060208201905081810360008301526128bf81612883565b9050919050565b7f46756e666c6f776572204661726d3a20556e617574686f726973656400000000600082015250565b60006128fc601c8361262e565b9150612907826128c6565b602082019050919050565b6000602082019050818103600083015261292b816128ef565b9050919050565b6000604082019050612947600083018561253f565b6129546020830184612515565b9392505050565b61296481612459565b811461296f57600080fd5b50565b6000815190506129818161295b565b92915050565b60006020828403121561299d5761299c61218f565b5b60006129ab84828501612972565b91505092915050565b600081905092915050565b50565b60006129cf6000836129b4565b91506129da826129bf565b600082019050919050565b60006129f0826129c2565b9150819050919050565b7f46756e666c6f776572204661726d3a20466565204661696c6564000000000000600082015250565b6000612a30601a8361262e565b9150612a3b826129fa565b602082019050919050565b60006020820190508181036000830152612a5f81612a23565b9050919050565b7f46756e6374696f6e206d7573742062652063616c6c6564207468726f7567682060008201527f64656c656761746563616c6c0000000000000000000000000000000000000000602082015250565b6000612ac2602c8361262e565b9150612acd82612a66565b604082019050919050565b60006020820190508181036000830152612af181612ab5565b9050919050565b7f46756e6374696f6e206d7573742062652063616c6c6564207468726f7567682060008201527f6163746976652070726f78790000000000000000000000000000000000000000602082015250565b6000612b54602c8361262e565b9150612b5f82612af8565b604082019050919050565b60006020820190508181036000830152612b8381612b47565b9050919050565b7f555550535570677261646561626c653a206d757374206e6f742062652063616c60008201527f6c6564207468726f7567682064656c656761746563616c6c0000000000000000602082015250565b6000612be660388361262e565b9150612bf182612b8a565b604082019050919050565b60006020820190508181036000830152612c1581612bd9565b9050919050565b6000819050919050565b600060ff82169050919050565b6000819050919050565b6000612c58612c53612c4e84612c1c565b612c33565b612c26565b9050919050565b612c6881612c3d565b82525050565b6000602082019050612c836000830184612c5f565b92915050565b7f4f776e61626c653a206e6577206f776e657220697320746865207a65726f206160008201527f6464726573730000000000000000000000000000000000000000000000000000602082015250565b6000612ce560268361262e565b9150612cf082612c89565b604082019050919050565b60006020820190508181036000830152612d1481612cd8565b9050919050565b60008160601b9050919050565b6000612d3382612d1b565b9050919050565b6000612d4582612d28565b9050919050565b612d5d612d58826121b9565b612d3a565b82525050565b6000819050919050565b612d7e612d798261236a565b612d63565b82525050565b6000819050919050565b612d9f612d9a826123a0565b612d84565b82525050565b6000612db18286612d4c565b601482019150612dc18285612d6d565b602082019150612dd18284612d8e565b602082019150819050949350505050565b600081519050612df181612374565b92915050565b600060208284031215612e0d57612e0c61218f565b5b6000612e1b84828501612de2565b91505092915050565b7f45524331393637557067726164653a206e657720696d706c656d656e7461746960008201527f6f6e206973206e6f742055555053000000000000000000000000000000000000602082015250565b6000612e80602e8361262e565b9150612e8b82612e24565b604082019050919050565b60006020820190508181036000830152612eaf81612e73565b9050919050565b7f45524331393637557067726164653a20756e737570706f727465642070726f7860008201527f6961626c65555549440000000000000000000000000000000000000000000000602082015250565b6000612f1260298361262e565b9150612f1d82612eb6565b604082019050919050565b60006020820190508181036000830152612f4181612f05565b9050919050565b7f496e697469616c697a61626c653a20636f6e747261637420697320616c72656160008201527f647920696e697469616c697a6564000000000000000000000000000000000000602082015250565b6000612fa4602e8361262e565b9150612faf82612f48565b604082019050919050565b60006020820190508181036000830152612fd381612f97565b9050919050565b600081905092915050565b7f19457468657265756d205369676e6564204d6573736167653a0a333200000000600082015250565b600061301b601c83612fda565b915061302682612fe5565b601c82019050919050565b600061303c8261300e565b91506130488284612d6d565b60208201915081905092915050565b7f455243313936373a206e657720696d706c656d656e746174696f6e206973206e60008201527f6f74206120636f6e747261637400000000000000000000000000000000000000602082015250565b60006130b3602d8361262e565b91506130be82613057565b604082019050919050565b600060208201905081810360008301526130e2816130a6565b9050919050565b7f496e697469616c697a61626c653a20636f6e7472616374206973206e6f74206960008201527f6e697469616c697a696e67000000000000000000000000000000000000000000602082015250565b6000613145602b8361262e565b9150613150826130e9565b604082019050919050565b6000602082019050818103600083015261317481613138565b9050919050565b7f4e487b7100000000000000000000000000000000000000000000000000000000600052602160045260246000fd5b7f45434453413a20696e76616c6964207369676e61747572650000000000000000600082015250565b60006131e060188361262e565b91506131eb826131aa565b602082019050919050565b6000602082019050818103600083015261320f816131d3565b9050919050565b7f45434453413a20696e76616c6964207369676e6174757265206c656e67746800600082015250565b600061324c601f8361262e565b915061325782613216565b602082019050919050565b6000602082019050818103600083015261327b8161323f565b9050919050565b7f45434453413a20696e76616c6964207369676e6174757265202773272076616c60008201527f7565000000000000000000000000000000000000000000000000000000000000602082015250565b60006132de60228361262e565b91506132e982613282565b604082019050919050565b6000602082019050818103600083015261330d816132d1565b9050919050565b7f45434453413a20696e76616c6964207369676e6174757265202776272076616c60008201527f7565000000000000000000000000000000000000000000000000000000000000602082015250565b600061337060228361262e565b915061337b82613314565b604082019050919050565b6000602082019050818103600083015261339f81613363565b9050919050565b7f416464726573733a2064656c65676174652063616c6c20746f206e6f6e2d636f60008201527f6e74726163740000000000000000000000000000000000000000000000000000602082015250565b600061340260268361262e565b915061340d826133a6565b604082019050919050565b60006020820190508181036000830152613431816133f5565b9050919050565b600081519050919050565b60005b83811015613461578082015181840152602081019050613446565b83811115613470576000848401525b50505050565b600061348182613438565b61348b81856129b4565b935061349b818560208601613443565b80840191505092915050565b60006134b38284613476565b915081905092915050565b6134c781612c26565b82525050565b60006080820190506134e2600083018761248f565b6134ef60208301866134be565b6134fc604083018561248f565b613509606083018461248f565b95945050505050565b7f4e487b7100000000000000000000000000000000000000000000000000000000600052601160045260246000fd5b600061354c826123a0565b9150613557836123a0565b9250827fffffffffffffffffffffffffffffffffffffffffffffffffffffffffffffffff0382111561358c5761358b613512565b5b828201905092915050565b600081519050919050565b60006135ad82613597565b6135b7818561262e565b93506135c7818560208601613443565b6135d08161222e565b840191505092915050565b600060208201905081810360008301526135f581846135a2565b90509291505056fe416464726573733a206c6f772d6c6576656c2064656c65676174652063616c6c206661696c6564a26469706673582212203238db41c21a475f896adf1957a93eb945deb68e78b79ad14ce5e67ad1cde22f64736f6c634300080e0033",
  "immutableReferences": {
    "685": [
      {
        "length": 32,
        "start": 2390
      },
      {
        "length": 32,
        "start": 2532
      },
      {
        "length": 32,
        "start": 3190
      },
      {
        "length": 32,
        "start": 3332
      },
      {
        "length": 32,
        "start": 3532
      }
    ]
  },
  "source": "   \n// SPDX-License-Identifier: MIT\npragma solidity ^0.8.0;\n\nimport \"@openzeppelin/contracts-upgradeable/proxy/utils/UUPSUpgradeable.sol\";\nimport \"@openzeppelin/contracts/utils/cryptography/ECDSA.sol\";\n\nimport \"./GameOwnerUpgradeable.sol\";\nimport \"./FFFToken.sol\";\n\ncontract Bank is GameOwnerUpgradeable, UUPSUpgradeable {\n\n    using ECDSA for bytes32;\n\n    event SessionChanged(address indexed owner, bytes32 indexed sessionId, bytes32 indexed thxId);\n\n    mapping(bytes32 => bool) public executed;\n\n    mapping(address => bytes32) public sessions;\n    mapping(address => uint) public syncedAt;\n\n    uint private withdrawFee;\n    address private withdrawFeeWallet;\n    address private signer;\n\n\n    FunflowerFarmToken private fffToken;\n\n    function initialize() public override initializer {\n        GameOwnerUpgradeable.initialize();\n        gameRoles[msg.sender] = true;\n        withdrawFee = 1 * (10 ** 17); //0.1\n        withdrawFeeWallet = _msgSender();\n        signer = _msgSender();\n    }\n\n    function setTokens(FunflowerFarmToken _fffToken) public onlyOwner {\n        fffToken = _fffToken;\n    }\n\n    function setWithdrawFee(uint _fee) public onlyOwner {\n        withdrawFee = _fee;\n    }\n\n    function transferSigner(address _signer) public onlyOwner {\n        signer = _signer;\n    }\n\n    function transferWithdrawFeeWallet(address _team) public onlyOwner {\n        withdrawFeeWallet = _team;\n    }\n\n    function _authorizeUpgrade(address) internal override onlyOwner {}\n\n    function getSessionId(address _address) public view returns(bytes32) {\n        bytes32 id = sessions[_address];\n\n        if (id == 0) {\n            // First ID is based on the unique contract\n            id = keccak256(abi.encode(address(this)));\n        }\n\n        return id;\n    }\n\n        // A unique nonce identifer for the account\n    function generateSessionId(address _address) private view returns(bytes32) {\n        return keccak256(abi.encodePacked(_msgSender(), sessions[_address], block.number)).toEthSignedMessageHash();\n    }\n\n    function verify(bytes32 hash, bytes memory signature) private view returns (bool) {\n        bytes32 ethSignedHash = hash.toEthSignedMessageHash();\n        return ethSignedHash.recover(signature) == signer;\n    }\n\n    function withdraw (\n        bytes memory signature,\n        bytes32 sessionId,\n        uint256 fff,\n        uint deadline) \n        payable public returns (bool) {\n        require(deadline >= block.timestamp, \"Funflower Farm: Deadline Passed\");\n        require(msg.value >= withdrawFee, \"Funflower Farm: Missing fee\");\n\n        // Check the session is new or has not changed (already saved or withdrew funds)\n        bytes32 userSessionId = getSessionId(_msgSender());\n        require(\n            userSessionId == sessionId,\n            \"Funflower Farm: Session has changed\"\n        );\n\n        // Start a new session\n        bytes32 newSessionId = generateSessionId(_msgSender());\n        sessions[_msgSender()] = newSessionId;\n        syncedAt[_msgSender()] = block.timestamp;\n\n        // Verify\n        bytes32 txHash = keccak256(abi.encode(sessionId,  _msgSender(), fff, deadline));\n        require(!executed[txHash], \"Funflower Farm: Tx Executed\");\n        require(verify(txHash, signature), \"Funflower Farm: Unauthorised\");\n        executed[txHash] = true;\n\n\n        fffToken.gameMint(msg.sender, fff);\n\n        (bool teamSent,) = withdrawFeeWallet.call{value: msg.value}(\"\");\n        require(teamSent, \"Funflower Farm: Fee Failed\");\n\n        emit SessionChanged(_msgSender(), newSessionId, txHash);\n\n        return true;\n    }\n\n}",
  "sourcePath": "/mnt/c/Users/nfmelendez/crypto/contracts/contracts/Bank.sol",
  "compiler": {
    "name": "solc",
    "version": "0.8.14+commit.80d49f37.Emscripten.clang"
  },
  "schemaVersion": "3.4.4",
  "updatedAt": "2022-05-19T18:07:01.158Z",
  "devdoc": {
    "kind": "dev",
    "methods": {
      "owner()": {
        "details": "Returns the address of the current owner."
      },
      "proxiableUUID()": {
        "details": "Implementation of the ERC1822 {proxiableUUID} function. This returns the storage slot used by the implementation. It is used to validate that the this implementation remains valid after an upgrade. IMPORTANT: A proxy pointing at a proxiable contract should not be considered proxiable itself, because this risks bricking a proxy that upgrades to it, by delegating to itself until out of gas. Thus it is critical that this function revert if invoked through a proxy. This is guaranteed by the `notDelegated` modifier."
      },
      "renounceOwnership()": {
        "details": "Leaves the contract without owner. It will not be possible to call `onlyOwner` functions anymore. Can only be called by the current owner. NOTE: Renouncing ownership will leave the contract without an owner, thereby removing any functionality that is only available to the owner."
      },
      "transferOwnership(address)": {
        "details": "Transfers ownership of the contract to a new account (`newOwner`). Can only be called by the current owner."
      },
      "upgradeTo(address)": {
        "details": "Upgrade the implementation of the proxy to `newImplementation`. Calls {_authorizeUpgrade}. Emits an {Upgraded} event."
      },
      "upgradeToAndCall(address,bytes)": {
        "details": "Upgrade the implementation of the proxy to `newImplementation`, and subsequently execute the function call encoded in `data`. Calls {_authorizeUpgrade}. Emits an {Upgraded} event."
      }
    },
    "version": 1
  },
  "userdoc": {
    "kind": "user",
    "methods": {},
    "version": 1
  }
}