{
  "contractName": "Bank",
  "abi": [
    {
      "anonymous": false,
      "inputs": [
        {
          "indexed": false,
          "internalType": "address",
          "name": "previousAdmin",
          "type": "address"
        },
        {
          "indexed": false,
          "internalType": "address",
          "name": "newAdmin",
          "type": "address"
        }
      ],
      "name": "AdminChanged",
      "type": "event"
    },
    {
      "anonymous": false,
      "inputs": [
        {
          "indexed": true,
          "internalType": "address",
          "name": "beacon",
          "type": "address"
        }
      ],
      "name": "BeaconUpgraded",
      "type": "event"
    },
    {
      "anonymous": false,
      "inputs": [
        {
          "indexed": false,
          "internalType": "uint8",
          "name": "version",
          "type": "uint8"
        }
      ],
      "name": "Initialized",
      "type": "event"
    },
    {
      "anonymous": false,
      "inputs": [
        {
          "indexed": true,
          "internalType": "address",
          "name": "previousOwner",
          "type": "address"
        },
        {
          "indexed": true,
          "internalType": "address",
          "name": "newOwner",
          "type": "address"
        }
      ],
      "name": "OwnershipTransferred",
      "type": "event"
    },
    {
      "anonymous": false,
      "inputs": [
        {
          "indexed": true,
          "internalType": "address",
          "name": "implementation",
          "type": "address"
        }
      ],
      "name": "Upgraded",
      "type": "event"
    },
    {
      "inputs": [
        {
          "internalType": "address",
          "name": "_game",
          "type": "address"
        }
      ],
      "name": "addGameRole",
      "outputs": [],
      "stateMutability": "nonpayable",
      "type": "function"
    },
    {
      "inputs": [],
      "name": "owner",
      "outputs": [
        {
          "internalType": "address",
          "name": "",
          "type": "address"
        }
      ],
      "stateMutability": "view",
      "type": "function"
    },
    {
      "inputs": [],
      "name": "proxiableUUID",
      "outputs": [
        {
          "internalType": "bytes32",
          "name": "",
          "type": "bytes32"
        }
      ],
      "stateMutability": "view",
      "type": "function"
    },
    {
      "inputs": [
        {
          "internalType": "address",
          "name": "_game",
          "type": "address"
        }
      ],
      "name": "removeGameRole",
      "outputs": [],
      "stateMutability": "nonpayable",
      "type": "function"
    },
    {
      "inputs": [],
      "name": "renounceOwnership",
      "outputs": [],
      "stateMutability": "nonpayable",
      "type": "function"
    },
    {
      "inputs": [
        {
          "internalType": "address",
          "name": "newOwner",
          "type": "address"
        }
      ],
      "name": "transferOwnership",
      "outputs": [],
      "stateMutability": "nonpayable",
      "type": "function"
    },
    {
      "inputs": [
        {
          "internalType": "address",
          "name": "newImplementation",
          "type": "address"
        }
      ],
      "name": "upgradeTo",
      "outputs": [],
      "stateMutability": "nonpayable",
      "type": "function"
    },
    {
      "inputs": [
        {
          "internalType": "address",
          "name": "newImplementation",
          "type": "address"
        },
        {
          "internalType": "bytes",
          "name": "data",
          "type": "bytes"
        }
      ],
      "name": "upgradeToAndCall",
      "outputs": [],
      "stateMutability": "payable",
      "type": "function"
    },
    {
      "inputs": [],
      "name": "initialize",
      "outputs": [],
      "stateMutability": "nonpayable",
      "type": "function"
    },
    {
      "inputs": [
        {
          "internalType": "contract FunflowerFarmToken",
          "name": "_fffToken",
          "type": "address"
        }
      ],
      "name": "setTokens",
      "outputs": [],
      "stateMutability": "nonpayable",
      "type": "function"
    },
    {
      "inputs": [
        {
          "internalType": "bytes",
          "name": "signature",
          "type": "bytes"
        },
        {
          "internalType": "bytes32",
          "name": "sessionId",
          "type": "bytes32"
        },
        {
          "internalType": "uint256",
          "name": "fff",
          "type": "uint256"
        }
      ],
      "name": "withdraw",
      "outputs": [
        {
          "internalType": "bool",
          "name": "",
          "type": "bool"
        }
      ],
      "stateMutability": "payable",
      "type": "function"
    }
  ],
  "bytecode": "0x60a06040523073ffffffffffffffffffffffffffffffffffffffff1660809073ffffffffffffffffffffffffffffffffffffffff1681525034801561004357600080fd5b5060805161204861007b60003960008181610317015281816103a50152818161049f0152818161052d01526105dd01526120486000f3fe60806040526004361061009c5760003560e01c80637323b8fa116100645780637323b8fa146101515780638129fc1c1461017a5780638da5cb5b14610191578063a639eb4d146101bc578063e286dd96146101e5578063f2fde38b146102155761009c565b806319892b51146100a15780633659cfe6146100ca5780634f1ef286146100f357806352d1902d1461010f578063715018a61461013a575b600080fd5b3480156100ad57600080fd5b506100c860048036038101906100c391906113e4565b61023e565b005b3480156100d657600080fd5b506100f160048036038101906100ec91906113e4565b610315565b005b61010d60048036038101906101089190611557565b61049d565b005b34801561011b57600080fd5b506101246105d9565b60405161013191906115cc565b60405180910390f35b34801561014657600080fd5b5061014f610692565b005b34801561015d57600080fd5b50610178600480360381019061017391906113e4565b61071a565b005b34801561018657600080fd5b5061018f6107f1565b005b34801561019d57600080fd5b506101a66108dd565b6040516101b391906115f6565b60405180910390f35b3480156101c857600080fd5b506101e360048036038101906101de919061164f565b610907565b005b6101ff60048036038101906101fa91906116de565b6109c7565b60405161020c9190611768565b60405180910390f35b34801561022157600080fd5b5061023c600480360381019061023791906113e4565b610a75565b005b610246610b6c565b73ffffffffffffffffffffffffffffffffffffffff166102646108dd565b73ffffffffffffffffffffffffffffffffffffffff16146102ba576040517f08c379a00000000000000000000000000000000000000000000000000000000081526004016102b1906117e0565b60405180910390fd5b6000606560008373ffffffffffffffffffffffffffffffffffffffff1673ffffffffffffffffffffffffffffffffffffffff16815260200190815260200160002060006101000a81548160ff02191690831515021790555050565b7f000000000000000000000000000000000000000000000000000000000000000073ffffffffffffffffffffffffffffffffffffffff163073ffffffffffffffffffffffffffffffffffffffff16036103a3576040517f08c379a000000000000000000000000000000000000000000000000000000000815260040161039a90611872565b60405180910390fd5b7f000000000000000000000000000000000000000000000000000000000000000073ffffffffffffffffffffffffffffffffffffffff166103e2610b74565b73ffffffffffffffffffffffffffffffffffffffff1614610438576040517f08c379a000000000000000000000000000000000000000000000000000000000815260040161042f90611904565b60405180910390fd5b61044181610bcb565b61049a81600067ffffffffffffffff8111156104605761045f61142c565b5b6040519080825280601f01601f1916602001820160405280156104925781602001600182028036833780820191505090505b506000610c4a565b50565b7f000000000000000000000000000000000000000000000000000000000000000073ffffffffffffffffffffffffffffffffffffffff163073ffffffffffffffffffffffffffffffffffffffff160361052b576040517f08c379a000000000000000000000000000000000000000000000000000000000815260040161052290611872565b60405180910390fd5b7f000000000000000000000000000000000000000000000000000000000000000073ffffffffffffffffffffffffffffffffffffffff1661056a610b74565b73ffffffffffffffffffffffffffffffffffffffff16146105c0576040517f08c379a00000000000000000000000000000000000000000000000000000000081526004016105b790611904565b60405180910390fd5b6105c982610bcb565b6105d582826001610c4a565b5050565b60007f000000000000000000000000000000000000000000000000000000000000000073ffffffffffffffffffffffffffffffffffffffff163073ffffffffffffffffffffffffffffffffffffffff1614610669576040517f08c379a000000000000000000000000000000000000000000000000000000000815260040161066090611996565b60405180910390fd5b7f360894a13ba1a3210667c828492db98dca3e2076cc3735a920a3ca505d382bbc60001b905090565b61069a610b6c565b73ffffffffffffffffffffffffffffffffffffffff166106b86108dd565b73ffffffffffffffffffffffffffffffffffffffff161461070e576040517f08c379a0000000000000000000000000000000000000000000000000000000008152600401610705906117e0565b60405180910390fd5b6107186000610db8565b565b610722610b6c565b73ffffffffffffffffffffffffffffffffffffffff166107406108dd565b73ffffffffffffffffffffffffffffffffffffffff1614610796576040517f08c379a000000000000000000000000000000000000000000000000000000000815260040161078d906117e0565b60405180910390fd5b6001606560008373ffffffffffffffffffffffffffffffffffffffff1673ffffffffffffffffffffffffffffffffffffffff16815260200190815260200160002060006101000a81548160ff02191690831515021790555050565b60006107fd6001610e7e565b90508015610821576001600060016101000a81548160ff0219169083151502179055505b610829610f6e565b6001606560003373ffffffffffffffffffffffffffffffffffffffff1673ffffffffffffffffffffffffffffffffffffffff16815260200190815260200160002060006101000a81548160ff02191690831515021790555080156108da5760008060016101000a81548160ff0219169083151502179055507f7f26b83ff96e1f2b6a682f133852f6798a09c465da95921460cefb384740249860016040516108d19190611a08565b60405180910390a15b50565b6000603360009054906101000a900473ffffffffffffffffffffffffffffffffffffffff16905090565b61090f610b6c565b73ffffffffffffffffffffffffffffffffffffffff1661092d6108dd565b73ffffffffffffffffffffffffffffffffffffffff1614610983576040517f08c379a000000000000000000000000000000000000000000000000000000000815260040161097a906117e0565b60405180910390fd5b8060ca60006101000a81548173ffffffffffffffffffffffffffffffffffffffff021916908373ffffffffffffffffffffffffffffffffffffffff16021790555050565b600060ca60009054906101000a900473ffffffffffffffffffffffffffffffffffffffff1673ffffffffffffffffffffffffffffffffffffffff16634eb9029933846040518363ffffffff1660e01b8152600401610a26929190611a32565b6020604051808303816000875af1158015610a45573d6000803e3d6000fd5b505050506040513d601f19601f82011682018060405250810190610a699190611a87565b50600190509392505050565b610a7d610b6c565b73ffffffffffffffffffffffffffffffffffffffff16610a9b6108dd565b73ffffffffffffffffffffffffffffffffffffffff1614610af1576040517f08c379a0000000000000000000000000000000000000000000000000000000008152600401610ae8906117e0565b60405180910390fd5b600073ffffffffffffffffffffffffffffffffffffffff168173ffffffffffffffffffffffffffffffffffffffff1603610b60576040517f08c379a0000000000000000000000000000000000000000000000000000000008152600401610b5790611b26565b60405180910390fd5b610b6981610db8565b50565b600033905090565b6000610ba27f360894a13ba1a3210667c828492db98dca3e2076cc3735a920a3ca505d382bbc60001b611002565b60000160009054906101000a900473ffffffffffffffffffffffffffffffffffffffff16905090565b610bd3610b6c565b73ffffffffffffffffffffffffffffffffffffffff16610bf16108dd565b73ffffffffffffffffffffffffffffffffffffffff1614610c47576040517f08c379a0000000000000000000000000000000000000000000000000000000008152600401610c3e906117e0565b60405180910390fd5b50565b610c767f4910fdfa16fed3260ed0e7147f7cc6da11a60208b5b9406d12a635614ffd914360001b61100c565b60000160009054906101000a900460ff1615610c9a57610c9583611016565b610db3565b8273ffffffffffffffffffffffffffffffffffffffff166352d1902d6040518163ffffffff1660e01b8152600401602060405180830381865afa925050508015610d0257506040513d601f19601f82011682018060405250810190610cff9190611b5b565b60015b610d41576040517f08c379a0000000000000000000000000000000000000000000000000000000008152600401610d3890611bfa565b60405180910390fd5b7f360894a13ba1a3210667c828492db98dca3e2076cc3735a920a3ca505d382bbc60001b8114610da6576040517f08c379a0000000000000000000000000000000000000000000000000000000008152600401610d9d90611c8c565b60405180910390fd5b50610db28383836110cf565b5b505050565b6000603360009054906101000a900473ffffffffffffffffffffffffffffffffffffffff16905081603360006101000a81548173ffffffffffffffffffffffffffffffffffffffff021916908373ffffffffffffffffffffffffffffffffffffffff1602179055508173ffffffffffffffffffffffffffffffffffffffff168173ffffffffffffffffffffffffffffffffffffffff167f8be0079c531659141344cd1fd0a4f28419497f9722a3daafe3b4186f6b6457e060405160405180910390a35050565b60008060019054906101000a900460ff1615610ef55760018260ff16148015610ead5750610eab306110fb565b155b610eec576040517f08c379a0000000000000000000000000000000000000000000000000000000008152600401610ee390611d1e565b60405180910390fd5b60009050610f69565b8160ff1660008054906101000a900460ff1660ff1610610f4a576040517f08c379a0000000000000000000000000000000000000000000000000000000008152600401610f4190611d1e565b60405180910390fd5b816000806101000a81548160ff021916908360ff160217905550600190505b919050565b6000610f7a6001610e7e565b90508015610f9e576001600060016101000a81548160ff0219169083151502179055505b610fa661111e565b8015610fff5760008060016101000a81548160ff0219169083151502179055507f7f26b83ff96e1f2b6a682f133852f6798a09c465da95921460cefb38474024986001604051610ff69190611a08565b60405180910390a15b50565b6000819050919050565b6000819050919050565b61101f816110fb565b61105e576040517f08c379a000000000000000000000000000000000000000000000000000000000815260040161105590611db0565b60405180910390fd5b8061108b7f360894a13ba1a3210667c828492db98dca3e2076cc3735a920a3ca505d382bbc60001b611002565b60000160006101000a81548173ffffffffffffffffffffffffffffffffffffffff021916908373ffffffffffffffffffffffffffffffffffffffff16021790555050565b6110d883611177565b6000825111806110e55750805b156110f6576110f483836111c6565b505b505050565b6000808273ffffffffffffffffffffffffffffffffffffffff163b119050919050565b600060019054906101000a900460ff1661116d576040517f08c379a000000000000000000000000000000000000000000000000000000000815260040161116490611e42565b60405180910390fd5b6111756112aa565b565b61118081611016565b8073ffffffffffffffffffffffffffffffffffffffff167fbc7cd75a20ee27fd9adebab32041f755214dbc6bffa90cc0225b39da2e5c2d3b60405160405180910390a250565b60606111d1836110fb565b611210576040517f08c379a000000000000000000000000000000000000000000000000000000000815260040161120790611ed4565b60405180910390fd5b6000808473ffffffffffffffffffffffffffffffffffffffff16846040516112389190611f6e565b600060405180830381855af49150503d8060008114611273576040519150601f19603f3d011682016040523d82523d6000602084013e611278565b606091505b50915091506112a08282604051806060016040528060278152602001611fec6027913961130b565b9250505092915050565b600060019054906101000a900460ff166112f9576040517f08c379a00000000000000000000000000000000000000000000000000000000081526004016112f090611e42565b60405180910390fd5b611309611304610b6c565b610db8565b565b6060831561131b5782905061136b565b60008351111561132e5782518084602001fd5b816040517f08c379a00000000000000000000000000000000000000000000000000000000081526004016113629190611fc9565b60405180910390fd5b9392505050565b6000604051905090565b600080fd5b600080fd5b600073ffffffffffffffffffffffffffffffffffffffff82169050919050565b60006113b182611386565b9050919050565b6113c1816113a6565b81146113cc57600080fd5b50565b6000813590506113de816113b8565b92915050565b6000602082840312156113fa576113f961137c565b5b6000611408848285016113cf565b91505092915050565b600080fd5b600080fd5b6000601f19601f8301169050919050565b7f4e487b7100000000000000000000000000000000000000000000000000000000600052604160045260246000fd5b6114648261141b565b810181811067ffffffffffffffff821117156114835761148261142c565b5b80604052505050565b6000611496611372565b90506114a2828261145b565b919050565b600067ffffffffffffffff8211156114c2576114c161142c565b5b6114cb8261141b565b9050602081019050919050565b82818337600083830152505050565b60006114fa6114f5846114a7565b61148c565b90508281526020810184848401111561151657611515611416565b5b6115218482856114d8565b509392505050565b600082601f83011261153e5761153d611411565b5b813561154e8482602086016114e7565b91505092915050565b6000806040838503121561156e5761156d61137c565b5b600061157c858286016113cf565b925050602083013567ffffffffffffffff81111561159d5761159c611381565b5b6115a985828601611529565b9150509250929050565b6000819050919050565b6115c6816115b3565b82525050565b60006020820190506115e160008301846115bd565b92915050565b6115f0816113a6565b82525050565b600060208201905061160b60008301846115e7565b92915050565b600061161c826113a6565b9050919050565b61162c81611611565b811461163757600080fd5b50565b60008135905061164981611623565b92915050565b6000602082840312156116655761166461137c565b5b60006116738482850161163a565b91505092915050565b611685816115b3565b811461169057600080fd5b50565b6000813590506116a28161167c565b92915050565b6000819050919050565b6116bb816116a8565b81146116c657600080fd5b50565b6000813590506116d8816116b2565b92915050565b6000806000606084860312156116f7576116f661137c565b5b600084013567ffffffffffffffff81111561171557611714611381565b5b61172186828701611529565b935050602061173286828701611693565b9250506040611743868287016116c9565b9150509250925092565b60008115159050919050565b6117628161174d565b82525050565b600060208201905061177d6000830184611759565b92915050565b600082825260208201905092915050565b7f4f776e61626c653a2063616c6c6572206973206e6f7420746865206f776e6572600082015250565b60006117ca602083611783565b91506117d582611794565b602082019050919050565b600060208201905081810360008301526117f9816117bd565b9050919050565b7f46756e6374696f6e206d7573742062652063616c6c6564207468726f7567682060008201527f64656c656761746563616c6c0000000000000000000000000000000000000000602082015250565b600061185c602c83611783565b915061186782611800565b604082019050919050565b6000602082019050818103600083015261188b8161184f565b9050919050565b7f46756e6374696f6e206d7573742062652063616c6c6564207468726f7567682060008201527f6163746976652070726f78790000000000000000000000000000000000000000602082015250565b60006118ee602c83611783565b91506118f982611892565b604082019050919050565b6000602082019050818103600083015261191d816118e1565b9050919050565b7f555550535570677261646561626c653a206d757374206e6f742062652063616c60008201527f6c6564207468726f7567682064656c656761746563616c6c0000000000000000602082015250565b6000611980603883611783565b915061198b82611924565b604082019050919050565b600060208201905081810360008301526119af81611973565b9050919050565b6000819050919050565b600060ff82169050919050565b6000819050919050565b60006119f26119ed6119e8846119b6565b6119cd565b6119c0565b9050919050565b611a02816119d7565b82525050565b6000602082019050611a1d60008301846119f9565b92915050565b611a2c816116a8565b82525050565b6000604082019050611a4760008301856115e7565b611a546020830184611a23565b9392505050565b611a648161174d565b8114611a6f57600080fd5b50565b600081519050611a8181611a5b565b92915050565b600060208284031215611a9d57611a9c61137c565b5b6000611aab84828501611a72565b91505092915050565b7f4f776e61626c653a206e6577206f776e657220697320746865207a65726f206160008201527f6464726573730000000000000000000000000000000000000000000000000000602082015250565b6000611b10602683611783565b9150611b1b82611ab4565b604082019050919050565b60006020820190508181036000830152611b3f81611b03565b9050919050565b600081519050611b558161167c565b92915050565b600060208284031215611b7157611b7061137c565b5b6000611b7f84828501611b46565b91505092915050565b7f45524331393637557067726164653a206e657720696d706c656d656e7461746960008201527f6f6e206973206e6f742055555053000000000000000000000000000000000000602082015250565b6000611be4602e83611783565b9150611bef82611b88565b604082019050919050565b60006020820190508181036000830152611c1381611bd7565b9050919050565b7f45524331393637557067726164653a20756e737570706f727465642070726f7860008201527f6961626c65555549440000000000000000000000000000000000000000000000602082015250565b6000611c76602983611783565b9150611c8182611c1a565b604082019050919050565b60006020820190508181036000830152611ca581611c69565b9050919050565b7f496e697469616c697a61626c653a20636f6e747261637420697320616c72656160008201527f647920696e697469616c697a6564000000000000000000000000000000000000602082015250565b6000611d08602e83611783565b9150611d1382611cac565b604082019050919050565b60006020820190508181036000830152611d3781611cfb565b9050919050565b7f455243313936373a206e657720696d706c656d656e746174696f6e206973206e60008201527f6f74206120636f6e747261637400000000000000000000000000000000000000602082015250565b6000611d9a602d83611783565b9150611da582611d3e565b604082019050919050565b60006020820190508181036000830152611dc981611d8d565b9050919050565b7f496e697469616c697a61626c653a20636f6e7472616374206973206e6f74206960008201527f6e697469616c697a696e67000000000000000000000000000000000000000000602082015250565b6000611e2c602b83611783565b9150611e3782611dd0565b604082019050919050565b60006020820190508181036000830152611e5b81611e1f565b9050919050565b7f416464726573733a2064656c65676174652063616c6c20746f206e6f6e2d636f60008201527f6e74726163740000000000000000000000000000000000000000000000000000602082015250565b6000611ebe602683611783565b9150611ec982611e62565b604082019050919050565b60006020820190508181036000830152611eed81611eb1565b9050919050565b600081519050919050565b600081905092915050565b60005b83811015611f28578082015181840152602081019050611f0d565b83811115611f37576000848401525b50505050565b6000611f4882611ef4565b611f528185611eff565b9350611f62818560208601611f0a565b80840191505092915050565b6000611f7a8284611f3d565b915081905092915050565b600081519050919050565b6000611f9b82611f85565b611fa58185611783565b9350611fb5818560208601611f0a565b611fbe8161141b565b840191505092915050565b60006020820190508181036000830152611fe38184611f90565b90509291505056fe416464726573733a206c6f772d6c6576656c2064656c65676174652063616c6c206661696c6564a2646970667358221220685a08e4561e949b4830448737583874311fcbd383b1b91153cd7f5b3c40fa3064736f6c634300080d0033",
  "immutableReferences": {
    "685": [
      {
        "length": 32,
        "start": 791
      },
      {
        "length": 32,
        "start": 933
      },
      {
        "length": 32,
        "start": 1183
      },
      {
        "length": 32,
        "start": 1325
      },
      {
        "length": 32,
        "start": 1501
      }
    ]
  },
  "source": "   \n// SPDX-License-Identifier: MIT\npragma solidity ^0.8.0;\n\nimport \"@openzeppelin/contracts-upgradeable/proxy/utils/UUPSUpgradeable.sol\";\n\nimport \"./GameOwnerUpgradeable.sol\";\nimport \"./FFFToken.sol\";\n\ncontract Bank is GameOwnerUpgradeable, UUPSUpgradeable {\n\n    FunflowerFarmToken private fffToken;\n\n    function initialize() public override initializer {\n        GameOwnerUpgradeable.initialize();\n        gameRoles[msg.sender] = true;\n    }\n\n    function setTokens(FunflowerFarmToken _fffToken) public onlyOwner {\n        fffToken = _fffToken;\n    }\n\n    function _authorizeUpgrade(address) internal override onlyOwner {}\n\n    function withdraw(\n        bytes memory signature,\n        bytes32 sessionId,\n        uint256 fff) \n        payable public returns (bool) {\n        fffToken.gameMint(msg.sender, fff);\n        return true;\n    }\n\n}",
  "sourcePath": "/mnt/c/Users/nfmelendez/crypto/contracts/contracts/Bank.sol",
  "compiler": {
    "name": "solc",
    "version": "0.8.13+commit.abaa5c0e.Emscripten.clang"
  },
  "schemaVersion": "3.4.4",
  "updatedAt": "2022-05-13T20:39:14.106Z",
  "devdoc": {
    "kind": "dev",
    "methods": {
      "owner()": {
        "details": "Returns the address of the current owner."
      },
      "proxiableUUID()": {
        "details": "Implementation of the ERC1822 {proxiableUUID} function. This returns the storage slot used by the implementation. It is used to validate that the this implementation remains valid after an upgrade. IMPORTANT: A proxy pointing at a proxiable contract should not be considered proxiable itself, because this risks bricking a proxy that upgrades to it, by delegating to itself until out of gas. Thus it is critical that this function revert if invoked through a proxy. This is guaranteed by the `notDelegated` modifier."
      },
      "renounceOwnership()": {
        "details": "Leaves the contract without owner. It will not be possible to call `onlyOwner` functions anymore. Can only be called by the current owner. NOTE: Renouncing ownership will leave the contract without an owner, thereby removing any functionality that is only available to the owner."
      },
      "transferOwnership(address)": {
        "details": "Transfers ownership of the contract to a new account (`newOwner`). Can only be called by the current owner."
      },
      "upgradeTo(address)": {
        "details": "Upgrade the implementation of the proxy to `newImplementation`. Calls {_authorizeUpgrade}. Emits an {Upgraded} event."
      },
      "upgradeToAndCall(address,bytes)": {
        "details": "Upgrade the implementation of the proxy to `newImplementation`, and subsequently execute the function call encoded in `data`. Calls {_authorizeUpgrade}. Emits an {Upgraded} event."
      }
    },
    "version": 1
  },
  "userdoc": {
    "kind": "user",
    "methods": {},
    "version": 1
  }
}