{
  "contractName": "Bank",
  "abi": [
    {
      "anonymous": false,
      "inputs": [
        {
          "indexed": false,
          "internalType": "address",
          "name": "previousAdmin",
          "type": "address"
        },
        {
          "indexed": false,
          "internalType": "address",
          "name": "newAdmin",
          "type": "address"
        }
      ],
      "name": "AdminChanged",
      "type": "event"
    },
    {
      "anonymous": false,
      "inputs": [
        {
          "indexed": true,
          "internalType": "address",
          "name": "beacon",
          "type": "address"
        }
      ],
      "name": "BeaconUpgraded",
      "type": "event"
    },
    {
      "anonymous": false,
      "inputs": [
        {
          "indexed": false,
          "internalType": "uint8",
          "name": "version",
          "type": "uint8"
        }
      ],
      "name": "Initialized",
      "type": "event"
    },
    {
      "anonymous": false,
      "inputs": [
        {
          "indexed": true,
          "internalType": "address",
          "name": "previousOwner",
          "type": "address"
        },
        {
          "indexed": true,
          "internalType": "address",
          "name": "newOwner",
          "type": "address"
        }
      ],
      "name": "OwnershipTransferred",
      "type": "event"
    },
    {
      "anonymous": false,
      "inputs": [
        {
          "indexed": true,
          "internalType": "address",
          "name": "owner",
          "type": "address"
        },
        {
          "indexed": true,
          "internalType": "bytes32",
          "name": "sessionId",
          "type": "bytes32"
        },
        {
          "indexed": true,
          "internalType": "bytes32",
          "name": "thxId",
          "type": "bytes32"
        }
      ],
      "name": "SessionChanged",
      "type": "event"
    },
    {
      "anonymous": false,
      "inputs": [
        {
          "indexed": true,
          "internalType": "address",
          "name": "implementation",
          "type": "address"
        }
      ],
      "name": "Upgraded",
      "type": "event"
    },
    {
      "inputs": [
        {
          "internalType": "address",
          "name": "_game",
          "type": "address"
        }
      ],
      "name": "addGameRole",
      "outputs": [],
      "stateMutability": "nonpayable",
      "type": "function"
    },
    {
      "inputs": [
        {
          "internalType": "bytes32",
          "name": "",
          "type": "bytes32"
        }
      ],
      "name": "executed",
      "outputs": [
        {
          "internalType": "bool",
          "name": "",
          "type": "bool"
        }
      ],
      "stateMutability": "view",
      "type": "function",
      "constant": true
    },
    {
      "inputs": [],
      "name": "owner",
      "outputs": [
        {
          "internalType": "address",
          "name": "",
          "type": "address"
        }
      ],
      "stateMutability": "view",
      "type": "function",
      "constant": true
    },
    {
      "inputs": [],
      "name": "proxiableUUID",
      "outputs": [
        {
          "internalType": "bytes32",
          "name": "",
          "type": "bytes32"
        }
      ],
      "stateMutability": "view",
      "type": "function",
      "constant": true
    },
    {
      "inputs": [
        {
          "internalType": "address",
          "name": "_game",
          "type": "address"
        }
      ],
      "name": "removeGameRole",
      "outputs": [],
      "stateMutability": "nonpayable",
      "type": "function"
    },
    {
      "inputs": [],
      "name": "renounceOwnership",
      "outputs": [],
      "stateMutability": "nonpayable",
      "type": "function"
    },
    {
      "inputs": [
        {
          "internalType": "address",
          "name": "",
          "type": "address"
        }
      ],
      "name": "sessions",
      "outputs": [
        {
          "internalType": "bytes32",
          "name": "",
          "type": "bytes32"
        }
      ],
      "stateMutability": "view",
      "type": "function",
      "constant": true
    },
    {
      "inputs": [
        {
          "internalType": "address",
          "name": "",
          "type": "address"
        }
      ],
      "name": "syncedAt",
      "outputs": [
        {
          "internalType": "uint256",
          "name": "",
          "type": "uint256"
        }
      ],
      "stateMutability": "view",
      "type": "function",
      "constant": true
    },
    {
      "inputs": [
        {
          "internalType": "address",
          "name": "newOwner",
          "type": "address"
        }
      ],
      "name": "transferOwnership",
      "outputs": [],
      "stateMutability": "nonpayable",
      "type": "function"
    },
    {
      "inputs": [
        {
          "internalType": "address",
          "name": "newImplementation",
          "type": "address"
        }
      ],
      "name": "upgradeTo",
      "outputs": [],
      "stateMutability": "nonpayable",
      "type": "function"
    },
    {
      "inputs": [
        {
          "internalType": "address",
          "name": "newImplementation",
          "type": "address"
        },
        {
          "internalType": "bytes",
          "name": "data",
          "type": "bytes"
        }
      ],
      "name": "upgradeToAndCall",
      "outputs": [],
      "stateMutability": "payable",
      "type": "function",
      "payable": true
    },
    {
      "inputs": [],
      "name": "initialize",
      "outputs": [],
      "stateMutability": "nonpayable",
      "type": "function"
    },
    {
      "inputs": [
        {
          "internalType": "contract FunflowerFarmToken",
          "name": "_fffToken",
          "type": "address"
        }
      ],
      "name": "setTokens",
      "outputs": [],
      "stateMutability": "nonpayable",
      "type": "function"
    },
    {
      "inputs": [
        {
          "internalType": "uint256",
          "name": "_fee",
          "type": "uint256"
        }
      ],
      "name": "setWithdrawFee",
      "outputs": [],
      "stateMutability": "nonpayable",
      "type": "function"
    },
    {
      "inputs": [
        {
          "internalType": "address",
          "name": "_signer",
          "type": "address"
        }
      ],
      "name": "transferSigner",
      "outputs": [],
      "stateMutability": "nonpayable",
      "type": "function"
    },
    {
      "inputs": [
        {
          "internalType": "address",
          "name": "_team",
          "type": "address"
        }
      ],
      "name": "transferWithdrawFeeWallet",
      "outputs": [],
      "stateMutability": "nonpayable",
      "type": "function"
    },
    {
      "inputs": [
        {
          "internalType": "address",
          "name": "_address",
          "type": "address"
        }
      ],
      "name": "getSessionId",
      "outputs": [
        {
          "internalType": "bytes32",
          "name": "",
          "type": "bytes32"
        }
      ],
      "stateMutability": "view",
      "type": "function",
      "constant": true
    },
    {
      "inputs": [
        {
          "internalType": "bytes32",
          "name": "txHash",
          "type": "bytes32"
        }
      ],
      "name": "isTransactionExecuted",
      "outputs": [
        {
          "internalType": "bool",
          "name": "",
          "type": "bool"
        }
      ],
      "stateMutability": "view",
      "type": "function",
      "constant": true
    },
    {
      "inputs": [
        {
          "internalType": "bytes",
          "name": "signature",
          "type": "bytes"
        },
        {
          "internalType": "bytes32",
          "name": "sessionId",
          "type": "bytes32"
        },
        {
          "internalType": "uint256",
          "name": "fff",
          "type": "uint256"
        },
        {
          "internalType": "uint256",
          "name": "deadline",
          "type": "uint256"
        }
      ],
      "name": "withdraw",
      "outputs": [
        {
          "internalType": "bool",
          "name": "",
          "type": "bool"
        }
      ],
      "stateMutability": "payable",
      "type": "function",
      "payable": true
    },
    {
      "inputs": [
        {
          "internalType": "bytes",
          "name": "signature",
          "type": "bytes"
        },
        {
          "internalType": "bytes32",
          "name": "sessionId",
          "type": "bytes32"
        },
        {
          "internalType": "uint256",
          "name": "fff",
          "type": "uint256"
        },
        {
          "internalType": "uint256",
          "name": "deadline",
          "type": "uint256"
        }
      ],
      "name": "deposit",
      "outputs": [
        {
          "internalType": "bool",
          "name": "",
          "type": "bool"
        }
      ],
      "stateMutability": "nonpayable",
      "type": "function"
    }
  ],
  "bytecode": "0x60a06040523073ffffffffffffffffffffffffffffffffffffffff1660809073ffffffffffffffffffffffffffffffffffffffff1681525034801561004357600080fd5b50608051613ac561007b60003960008181610a1001528181610a9e01528181610d3001528181610dbe0152610e860152613ac56000f3fe60806040526004361061011f5760003560e01c8063715018a6116100a0578063a9fcfb3311610064578063a9fcfb33146103a1578063b6ac642a146103de578063c49d30b214610407578063dcde42c714610444578063f2fde38b146104815761011f565b8063715018a6146102f65780637323b8fa1461030d5780638129fc1c146103365780638da5cb5b1461034d578063a639eb4d146103785761011f565b806339a885af116100e757806339a885af1461020c578063431a1b97146102355780634f1ef28614610272578063512a87741461028e57806352d1902d146102cb5761011f565b806302489a8e1461012457806319892b5114610161578063260cd43b1461018a5780633659cfe6146101ba5780633660a084146101e3575b600080fd5b34801561013057600080fd5b5061014b60048036038101906101469190612603565b6104aa565b604051610158919061264b565b60405180910390f35b34801561016d57600080fd5b50610188600480360381019061018391906126c4565b6104d4565b005b6101a4600480360381019061019f919061286d565b6105ab565b6040516101b1919061264b565b60405180910390f35b3480156101c657600080fd5b506101e160048036038101906101dc91906126c4565b610a0e565b005b3480156101ef57600080fd5b5061020a600480360381019061020591906126c4565b610b96565b005b34801561021857600080fd5b50610233600480360381019061022e91906126c4565b610c56565b005b34801561024157600080fd5b5061025c600480360381019061025791906126c4565b610d16565b60405161026991906128ff565b60405180910390f35b61028c6004803603810190610287919061291a565b610d2e565b005b34801561029a57600080fd5b506102b560048036038101906102b091906126c4565b610e6a565b6040516102c29190612985565b60405180910390f35b3480156102d757600080fd5b506102e0610e82565b6040516102ed91906128ff565b60405180910390f35b34801561030257600080fd5b5061030b610f3b565b005b34801561031957600080fd5b50610334600480360381019061032f91906126c4565b610fc3565b005b34801561034257600080fd5b5061034b61109a565b005b34801561035957600080fd5b50610362611225565b60405161036f91906129af565b60405180910390f35b34801561038457600080fd5b5061039f600480360381019061039a9190612a08565b61124f565b005b3480156103ad57600080fd5b506103c860048036038101906103c39190612603565b61130f565b6040516103d5919061264b565b60405180910390f35b3480156103ea57600080fd5b5061040560048036038101906104009190612a35565b61132f565b005b34801561041357600080fd5b5061042e600480360381019061042991906126c4565b6113b5565b60405161043b91906128ff565b60405180910390f35b34801561045057600080fd5b5061046b6004803603810190610466919061286d565b611437565b604051610478919061264b565b60405180910390f35b34801561048d57600080fd5b506104a860048036038101906104a391906126c4565b6117b1565b005b600060ca600083815260200190815260200160002060009054906101000a900460ff169050919050565b6104dc6118a8565b73ffffffffffffffffffffffffffffffffffffffff166104fa611225565b73ffffffffffffffffffffffffffffffffffffffff1614610550576040517f08c379a000000000000000000000000000000000000000000000000000000000815260040161054790612abf565b60405180910390fd5b6000606560008373ffffffffffffffffffffffffffffffffffffffff1673ffffffffffffffffffffffffffffffffffffffff16815260200190815260200160002060006101000a81548160ff02191690831515021790555050565b600060cd543410156105f2576040517f08c379a00000000000000000000000000000000000000000000000000000000081526004016105e990612b2b565b60405180910390fd5b42821015610635576040517f08c379a000000000000000000000000000000000000000000000000000000000815260040161062c90612b97565b60405180910390fd5b60006106476106426118a8565b6113b5565b905084811461068b576040517f08c379a000000000000000000000000000000000000000000000000000000000815260040161068290612c29565b60405180910390fd5b600061069d6106986118a8565b6118b0565b90508060cb60006106ac6118a8565b73ffffffffffffffffffffffffffffffffffffffff1673ffffffffffffffffffffffffffffffffffffffff168152602001908152602001600020819055504260cc60006106f76118a8565b73ffffffffffffffffffffffffffffffffffffffff1673ffffffffffffffffffffffffffffffffffffffff168152602001908152602001600020819055506000866107406118a8565b87876040516020016107559493929190612c49565b60405160208183030381529060405280519060200120905060ca600082815260200190815260200160002060009054906101000a900460ff16156107ce576040517f08c379a00000000000000000000000000000000000000000000000000000000081526004016107c590612cda565b60405180910390fd5b6107d88189611932565b610817576040517f08c379a000000000000000000000000000000000000000000000000000000000815260040161080e90612d46565b60405180910390fd5b600160ca600083815260200190815260200160002060006101000a81548160ff02191690831515021790555060d060009054906101000a900473ffffffffffffffffffffffffffffffffffffffff1673ffffffffffffffffffffffffffffffffffffffff16634eb9029933886040518363ffffffff1660e01b81526004016108a0929190612d66565b6020604051808303816000875af11580156108bf573d6000803e3d6000fd5b505050506040513d601f19601f820116820180604052508101906108e39190612dbb565b50600060ce60009054906101000a900473ffffffffffffffffffffffffffffffffffffffff1673ffffffffffffffffffffffffffffffffffffffff163460405161092c90612e19565b60006040518083038185875af1925050503d8060008114610969576040519150601f19603f3d011682016040523d82523d6000602084013e61096e565b606091505b50509050806109b2576040517f08c379a00000000000000000000000000000000000000000000000000000000081526004016109a990612e7a565b60405180910390fd5b81836109bc6118a8565b73ffffffffffffffffffffffffffffffffffffffff167fcac9af989a516c4c60edc5fbf71447795c7f8d6c5037e3e8d7d19b07b4c3c72960405160405180910390a46001945050505050949350505050565b7f000000000000000000000000000000000000000000000000000000000000000073ffffffffffffffffffffffffffffffffffffffff163073ffffffffffffffffffffffffffffffffffffffff1603610a9c576040517f08c379a0000000000000000000000000000000000000000000000000000000008152600401610a9390612f0c565b60405180910390fd5b7f000000000000000000000000000000000000000000000000000000000000000073ffffffffffffffffffffffffffffffffffffffff16610adb6119ac565b73ffffffffffffffffffffffffffffffffffffffff1614610b31576040517f08c379a0000000000000000000000000000000000000000000000000000000008152600401610b2890612f9e565b60405180910390fd5b610b3a81611a03565b610b9381600067ffffffffffffffff811115610b5957610b5861270c565b5b6040519080825280601f01601f191660200182016040528015610b8b5781602001600182028036833780820191505090505b506000611a82565b50565b610b9e6118a8565b73ffffffffffffffffffffffffffffffffffffffff16610bbc611225565b73ffffffffffffffffffffffffffffffffffffffff1614610c12576040517f08c379a0000000000000000000000000000000000000000000000000000000008152600401610c0990612abf565b60405180910390fd5b8060cf60006101000a81548173ffffffffffffffffffffffffffffffffffffffff021916908373ffffffffffffffffffffffffffffffffffffffff16021790555050565b610c5e6118a8565b73ffffffffffffffffffffffffffffffffffffffff16610c7c611225565b73ffffffffffffffffffffffffffffffffffffffff1614610cd2576040517f08c379a0000000000000000000000000000000000000000000000000000000008152600401610cc990612abf565b60405180910390fd5b8060ce60006101000a81548173ffffffffffffffffffffffffffffffffffffffff021916908373ffffffffffffffffffffffffffffffffffffffff16021790555050565b60cb6020528060005260406000206000915090505481565b7f000000000000000000000000000000000000000000000000000000000000000073ffffffffffffffffffffffffffffffffffffffff163073ffffffffffffffffffffffffffffffffffffffff1603610dbc576040517f08c379a0000000000000000000000000000000000000000000000000000000008152600401610db390612f0c565b60405180910390fd5b7f000000000000000000000000000000000000000000000000000000000000000073ffffffffffffffffffffffffffffffffffffffff16610dfb6119ac565b73ffffffffffffffffffffffffffffffffffffffff1614610e51576040517f08c379a0000000000000000000000000000000000000000000000000000000008152600401610e4890612f9e565b60405180910390fd5b610e5a82611a03565b610e6682826001611a82565b5050565b60cc6020528060005260406000206000915090505481565b60007f000000000000000000000000000000000000000000000000000000000000000073ffffffffffffffffffffffffffffffffffffffff163073ffffffffffffffffffffffffffffffffffffffff1614610f12576040517f08c379a0000000000000000000000000000000000000000000000000000000008152600401610f0990613030565b60405180910390fd5b7f360894a13ba1a3210667c828492db98dca3e2076cc3735a920a3ca505d382bbc60001b905090565b610f436118a8565b73ffffffffffffffffffffffffffffffffffffffff16610f61611225565b73ffffffffffffffffffffffffffffffffffffffff1614610fb7576040517f08c379a0000000000000000000000000000000000000000000000000000000008152600401610fae90612abf565b60405180910390fd5b610fc16000611bf0565b565b610fcb6118a8565b73ffffffffffffffffffffffffffffffffffffffff16610fe9611225565b73ffffffffffffffffffffffffffffffffffffffff161461103f576040517f08c379a000000000000000000000000000000000000000000000000000000000815260040161103690612abf565b60405180910390fd5b6001606560008373ffffffffffffffffffffffffffffffffffffffff1673ffffffffffffffffffffffffffffffffffffffff16815260200190815260200160002060006101000a81548160ff02191690831515021790555050565b60006110a66001611cb6565b905080156110ca576001600060016101000a81548160ff0219169083151502179055505b6110d2611da6565b6001606560003373ffffffffffffffffffffffffffffffffffffffff1673ffffffffffffffffffffffffffffffffffffffff16815260200190815260200160002060006101000a81548160ff02191690831515021790555067016345785d8a000060cd819055506111416118a8565b60ce60006101000a81548173ffffffffffffffffffffffffffffffffffffffff021916908373ffffffffffffffffffffffffffffffffffffffff1602179055506111896118a8565b60cf60006101000a81548173ffffffffffffffffffffffffffffffffffffffff021916908373ffffffffffffffffffffffffffffffffffffffff16021790555080156112225760008060016101000a81548160ff0219169083151502179055507f7f26b83ff96e1f2b6a682f133852f6798a09c465da95921460cefb3847402498600160405161121991906130a2565b60405180910390a15b50565b6000603360009054906101000a900473ffffffffffffffffffffffffffffffffffffffff16905090565b6112576118a8565b73ffffffffffffffffffffffffffffffffffffffff16611275611225565b73ffffffffffffffffffffffffffffffffffffffff16146112cb576040517f08c379a00000000000000000000000000000000000000000000000000000000081526004016112c290612abf565b60405180910390fd5b8060d060006101000a81548173ffffffffffffffffffffffffffffffffffffffff021916908373ffffffffffffffffffffffffffffffffffffffff16021790555050565b60ca6020528060005260406000206000915054906101000a900460ff1681565b6113376118a8565b73ffffffffffffffffffffffffffffffffffffffff16611355611225565b73ffffffffffffffffffffffffffffffffffffffff16146113ab576040517f08c379a00000000000000000000000000000000000000000000000000000000081526004016113a290612abf565b60405180910390fd5b8060cd8190555050565b60008060cb60008473ffffffffffffffffffffffffffffffffffffffff1673ffffffffffffffffffffffffffffffffffffffff1681526020019081526020016000205490506000801b810361142e573060405160200161141591906129af565b6040516020818303038152906040528051906020012090505b80915050919050565b60004282101561147c576040517f08c379a000000000000000000000000000000000000000000000000000000000815260040161147390612b97565b60405180910390fd5b600061148e6114896118a8565b6113b5565b90508481146114d2576040517f08c379a00000000000000000000000000000000000000000000000000000000081526004016114c990612c29565b60405180910390fd5b60006114e46114df6118a8565b6118b0565b90508060cb60006114f36118a8565b73ffffffffffffffffffffffffffffffffffffffff1673ffffffffffffffffffffffffffffffffffffffff168152602001908152602001600020819055504260cc600061153e6118a8565b73ffffffffffffffffffffffffffffffffffffffff1673ffffffffffffffffffffffffffffffffffffffff168152602001908152602001600020819055506000866115876118a8565b878760405160200161159c9493929190612c49565b60405160208183030381529060405280519060200120905060ca600082815260200190815260200160002060009054906101000a900460ff1615611615576040517f08c379a000000000000000000000000000000000000000000000000000000000815260040161160c90612cda565b60405180910390fd5b61161f8189611932565b61165e576040517f08c379a000000000000000000000000000000000000000000000000000000000815260040161165590612d46565b60405180910390fd5b600160ca600083815260200190815260200160002060006101000a81548160ff02191690831515021790555060d060009054906101000a900473ffffffffffffffffffffffffffffffffffffffff1673ffffffffffffffffffffffffffffffffffffffff166362252bc36116d06118a8565b60ce60009054906101000a900473ffffffffffffffffffffffffffffffffffffffff16896040518463ffffffff1660e01b8152600401611712939291906130bd565b6020604051808303816000875af1158015611731573d6000803e3d6000fd5b505050506040513d601f19601f820116820180604052508101906117559190612dbb565b5080826117606118a8565b73ffffffffffffffffffffffffffffffffffffffff167fcac9af989a516c4c60edc5fbf71447795c7f8d6c5037e3e8d7d19b07b4c3c72960405160405180910390a460019350505050949350505050565b6117b96118a8565b73ffffffffffffffffffffffffffffffffffffffff166117d7611225565b73ffffffffffffffffffffffffffffffffffffffff161461182d576040517f08c379a000000000000000000000000000000000000000000000000000000000815260040161182490612abf565b60405180910390fd5b600073ffffffffffffffffffffffffffffffffffffffff168173ffffffffffffffffffffffffffffffffffffffff160361189c576040517f08c379a000000000000000000000000000000000000000000000000000000000815260040161189390613166565b60405180910390fd5b6118a581611bf0565b50565b600033905090565b600061192b6118bd6118a8565b60cb60008573ffffffffffffffffffffffffffffffffffffffff1673ffffffffffffffffffffffffffffffffffffffff168152602001908152602001600020544360405160200161191093929190613210565b60405160208183030381529060405280519060200120611e3a565b9050919050565b60008061193e84611e3a565b905060cf60009054906101000a900473ffffffffffffffffffffffffffffffffffffffff1673ffffffffffffffffffffffffffffffffffffffff1661198c8483611e6a90919063ffffffff16565b73ffffffffffffffffffffffffffffffffffffffff161491505092915050565b60006119da7f360894a13ba1a3210667c828492db98dca3e2076cc3735a920a3ca505d382bbc60001b611e91565b60000160009054906101000a900473ffffffffffffffffffffffffffffffffffffffff16905090565b611a0b6118a8565b73ffffffffffffffffffffffffffffffffffffffff16611a29611225565b73ffffffffffffffffffffffffffffffffffffffff1614611a7f576040517f08c379a0000000000000000000000000000000000000000000000000000000008152600401611a7690612abf565b60405180910390fd5b50565b611aae7f4910fdfa16fed3260ed0e7147f7cc6da11a60208b5b9406d12a635614ffd914360001b611e9b565b60000160009054906101000a900460ff1615611ad257611acd83611ea5565b611beb565b8273ffffffffffffffffffffffffffffffffffffffff166352d1902d6040518163ffffffff1660e01b8152600401602060405180830381865afa925050508015611b3a57506040513d601f19601f82011682018060405250810190611b379190613262565b60015b611b79576040517f08c379a0000000000000000000000000000000000000000000000000000000008152600401611b7090613301565b60405180910390fd5b7f360894a13ba1a3210667c828492db98dca3e2076cc3735a920a3ca505d382bbc60001b8114611bde576040517f08c379a0000000000000000000000000000000000000000000000000000000008152600401611bd590613393565b60405180910390fd5b50611bea838383611f5e565b5b505050565b6000603360009054906101000a900473ffffffffffffffffffffffffffffffffffffffff16905081603360006101000a81548173ffffffffffffffffffffffffffffffffffffffff021916908373ffffffffffffffffffffffffffffffffffffffff1602179055508173ffffffffffffffffffffffffffffffffffffffff168173ffffffffffffffffffffffffffffffffffffffff167f8be0079c531659141344cd1fd0a4f28419497f9722a3daafe3b4186f6b6457e060405160405180910390a35050565b60008060019054906101000a900460ff1615611d2d5760018260ff16148015611ce55750611ce330611f8a565b155b611d24576040517f08c379a0000000000000000000000000000000000000000000000000000000008152600401611d1b90613425565b60405180910390fd5b60009050611da1565b8160ff1660008054906101000a900460ff1660ff1610611d82576040517f08c379a0000000000000000000000000000000000000000000000000000000008152600401611d7990613425565b60405180910390fd5b816000806101000a81548160ff021916908360ff160217905550600190505b919050565b6000611db26001611cb6565b90508015611dd6576001600060016101000a81548160ff0219169083151502179055505b611dde611fad565b8015611e375760008060016101000a81548160ff0219169083151502179055507f7f26b83ff96e1f2b6a682f133852f6798a09c465da95921460cefb38474024986001604051611e2e91906130a2565b60405180910390a15b50565b600081604051602001611e4d919061349c565b604051602081830303815290604052805190602001209050919050565b6000806000611e798585612006565b91509150611e8681612087565b819250505092915050565b6000819050919050565b6000819050919050565b611eae81611f8a565b611eed576040517f08c379a0000000000000000000000000000000000000000000000000000000008152600401611ee490613534565b60405180910390fd5b80611f1a7f360894a13ba1a3210667c828492db98dca3e2076cc3735a920a3ca505d382bbc60001b611e91565b60000160006101000a81548173ffffffffffffffffffffffffffffffffffffffff021916908373ffffffffffffffffffffffffffffffffffffffff16021790555050565b611f6783612253565b600082511180611f745750805b15611f8557611f8383836122a2565b505b505050565b6000808273ffffffffffffffffffffffffffffffffffffffff163b119050919050565b600060019054906101000a900460ff16611ffc576040517f08c379a0000000000000000000000000000000000000000000000000000000008152600401611ff3906135c6565b60405180910390fd5b612004612386565b565b60008060418351036120475760008060006020860151925060408601519150606086015160001a905061203b878285856123e7565b94509450505050612080565b604083510361207757600080602085015191506040850151905061206c8683836124f3565b935093505050612080565b60006002915091505b9250929050565b6000600481111561209b5761209a6135e6565b5b8160048111156120ae576120ad6135e6565b5b031561225057600160048111156120c8576120c76135e6565b5b8160048111156120db576120da6135e6565b5b0361211b576040517f08c379a000000000000000000000000000000000000000000000000000000000815260040161211290613661565b60405180910390fd5b6002600481111561212f5761212e6135e6565b5b816004811115612142576121416135e6565b5b03612182576040517f08c379a0000000000000000000000000000000000000000000000000000000008152600401612179906136cd565b60405180910390fd5b60036004811115612196576121956135e6565b5b8160048111156121a9576121a86135e6565b5b036121e9576040517f08c379a00000000000000000000000000000000000000000000000000000000081526004016121e09061375f565b60405180910390fd5b6004808111156121fc576121fb6135e6565b5b81600481111561220f5761220e6135e6565b5b0361224f576040517f08c379a0000000000000000000000000000000000000000000000000000000008152600401612246906137f1565b60405180910390fd5b5b50565b61225c81611ea5565b8073ffffffffffffffffffffffffffffffffffffffff167fbc7cd75a20ee27fd9adebab32041f755214dbc6bffa90cc0225b39da2e5c2d3b60405160405180910390a250565b60606122ad83611f8a565b6122ec576040517f08c379a00000000000000000000000000000000000000000000000000000000081526004016122e390613883565b60405180910390fd5b6000808473ffffffffffffffffffffffffffffffffffffffff16846040516123149190613912565b600060405180830381855af49150503d806000811461234f576040519150601f19603f3d011682016040523d82523d6000602084013e612354565b606091505b509150915061237c8282604051806060016040528060278152602001613a6960279139612552565b9250505092915050565b600060019054906101000a900460ff166123d5576040517f08c379a00000000000000000000000000000000000000000000000000000000081526004016123cc906135c6565b60405180910390fd5b6123e56123e06118a8565b611bf0565b565b6000807f7fffffffffffffffffffffffffffffff5d576e7357a4501ddfe92f46681b20a08360001c11156124225760006003915091506124ea565b601b8560ff161415801561243a5750601c8560ff1614155b1561244c5760006004915091506124ea565b6000600187878787604051600081526020016040526040516124719493929190613938565b6020604051602081039080840390855afa158015612493573d6000803e3d6000fd5b505050602060405103519050600073ffffffffffffffffffffffffffffffffffffffff168173ffffffffffffffffffffffffffffffffffffffff16036124e1576000600192509250506124ea565b80600092509250505b94509492505050565b60008060007f7fffffffffffffffffffffffffffffffffffffffffffffffffffffffffffffff60001b841690506000601b60ff8660001c901c61253691906139ac565b9050612544878288856123e7565b935093505050935093915050565b60608315612562578290506125b2565b6000835111156125755782518084602001fd5b816040517f08c379a00000000000000000000000000000000000000000000000000000000081526004016125a99190613a46565b60405180910390fd5b9392505050565b6000604051905090565b600080fd5b600080fd5b6000819050919050565b6125e0816125cd565b81146125eb57600080fd5b50565b6000813590506125fd816125d7565b92915050565b600060208284031215612619576126186125c3565b5b6000612627848285016125ee565b91505092915050565b60008115159050919050565b61264581612630565b82525050565b6000602082019050612660600083018461263c565b92915050565b600073ffffffffffffffffffffffffffffffffffffffff82169050919050565b600061269182612666565b9050919050565b6126a181612686565b81146126ac57600080fd5b50565b6000813590506126be81612698565b92915050565b6000602082840312156126da576126d96125c3565b5b60006126e8848285016126af565b91505092915050565b600080fd5b600080fd5b6000601f19601f8301169050919050565b7f4e487b7100000000000000000000000000000000000000000000000000000000600052604160045260246000fd5b612744826126fb565b810181811067ffffffffffffffff821117156127635761276261270c565b5b80604052505050565b60006127766125b9565b9050612782828261273b565b919050565b600067ffffffffffffffff8211156127a2576127a161270c565b5b6127ab826126fb565b9050602081019050919050565b82818337600083830152505050565b60006127da6127d584612787565b61276c565b9050828152602081018484840111156127f6576127f56126f6565b5b6128018482856127b8565b509392505050565b600082601f83011261281e5761281d6126f1565b5b813561282e8482602086016127c7565b91505092915050565b6000819050919050565b61284a81612837565b811461285557600080fd5b50565b60008135905061286781612841565b92915050565b60008060008060808587031215612887576128866125c3565b5b600085013567ffffffffffffffff8111156128a5576128a46125c8565b5b6128b187828801612809565b94505060206128c2878288016125ee565b93505060406128d387828801612858565b92505060606128e487828801612858565b91505092959194509250565b6128f9816125cd565b82525050565b600060208201905061291460008301846128f0565b92915050565b60008060408385031215612931576129306125c3565b5b600061293f858286016126af565b925050602083013567ffffffffffffffff8111156129605761295f6125c8565b5b61296c85828601612809565b9150509250929050565b61297f81612837565b82525050565b600060208201905061299a6000830184612976565b92915050565b6129a981612686565b82525050565b60006020820190506129c460008301846129a0565b92915050565b60006129d582612686565b9050919050565b6129e5816129ca565b81146129f057600080fd5b50565b600081359050612a02816129dc565b92915050565b600060208284031215612a1e57612a1d6125c3565b5b6000612a2c848285016129f3565b91505092915050565b600060208284031215612a4b57612a4a6125c3565b5b6000612a5984828501612858565b91505092915050565b600082825260208201905092915050565b7f4f776e61626c653a2063616c6c6572206973206e6f7420746865206f776e6572600082015250565b6000612aa9602083612a62565b9150612ab482612a73565b602082019050919050565b60006020820190508181036000830152612ad881612a9c565b9050919050565b7f46756e666c6f776572204661726d3a204d697373696e67206665650000000000600082015250565b6000612b15601b83612a62565b9150612b2082612adf565b602082019050919050565b60006020820190508181036000830152612b4481612b08565b9050919050565b7f46756e666c6f776572204661726d3a20446561646c696e652050617373656400600082015250565b6000612b81601f83612a62565b9150612b8c82612b4b565b602082019050919050565b60006020820190508181036000830152612bb081612b74565b9050919050565b7f46756e666c6f776572204661726d3a2053657373696f6e20686173206368616e60008201527f6765640000000000000000000000000000000000000000000000000000000000602082015250565b6000612c13602383612a62565b9150612c1e82612bb7565b604082019050919050565b60006020820190508181036000830152612c4281612c06565b9050919050565b6000608082019050612c5e60008301876128f0565b612c6b60208301866129a0565b612c786040830185612976565b612c856060830184612976565b95945050505050565b7f46756e666c6f776572204661726d3a2054782045786563757465640000000000600082015250565b6000612cc4601b83612a62565b9150612ccf82612c8e565b602082019050919050565b60006020820190508181036000830152612cf381612cb7565b9050919050565b7f46756e666c6f776572204661726d3a20556e617574686f726973656400000000600082015250565b6000612d30601c83612a62565b9150612d3b82612cfa565b602082019050919050565b60006020820190508181036000830152612d5f81612d23565b9050919050565b6000604082019050612d7b60008301856129a0565b612d886020830184612976565b9392505050565b612d9881612630565b8114612da357600080fd5b50565b600081519050612db581612d8f565b92915050565b600060208284031215612dd157612dd06125c3565b5b6000612ddf84828501612da6565b91505092915050565b600081905092915050565b50565b6000612e03600083612de8565b9150612e0e82612df3565b600082019050919050565b6000612e2482612df6565b9150819050919050565b7f46756e666c6f776572204661726d3a20466565204661696c6564000000000000600082015250565b6000612e64601a83612a62565b9150612e6f82612e2e565b602082019050919050565b60006020820190508181036000830152612e9381612e57565b9050919050565b7f46756e6374696f6e206d7573742062652063616c6c6564207468726f7567682060008201527f64656c656761746563616c6c0000000000000000000000000000000000000000602082015250565b6000612ef6602c83612a62565b9150612f0182612e9a565b604082019050919050565b60006020820190508181036000830152612f2581612ee9565b9050919050565b7f46756e6374696f6e206d7573742062652063616c6c6564207468726f7567682060008201527f6163746976652070726f78790000000000000000000000000000000000000000602082015250565b6000612f88602c83612a62565b9150612f9382612f2c565b604082019050919050565b60006020820190508181036000830152612fb781612f7b565b9050919050565b7f555550535570677261646561626c653a206d757374206e6f742062652063616c60008201527f6c6564207468726f7567682064656c656761746563616c6c0000000000000000602082015250565b600061301a603883612a62565b915061302582612fbe565b604082019050919050565b600060208201905081810360008301526130498161300d565b9050919050565b6000819050919050565b600060ff82169050919050565b6000819050919050565b600061308c61308761308284613050565b613067565b61305a565b9050919050565b61309c81613071565b82525050565b60006020820190506130b76000830184613093565b92915050565b60006060820190506130d260008301866129a0565b6130df60208301856129a0565b6130ec6040830184612976565b949350505050565b7f4f776e61626c653a206e6577206f776e657220697320746865207a65726f206160008201527f6464726573730000000000000000000000000000000000000000000000000000602082015250565b6000613150602683612a62565b915061315b826130f4565b604082019050919050565b6000602082019050818103600083015261317f81613143565b9050919050565b60008160601b9050919050565b600061319e82613186565b9050919050565b60006131b082613193565b9050919050565b6131c86131c382612686565b6131a5565b82525050565b6000819050919050565b6131e96131e4826125cd565b6131ce565b82525050565b6000819050919050565b61320a61320582612837565b6131ef565b82525050565b600061321c82866131b7565b60148201915061322c82856131d8565b60208201915061323c82846131f9565b602082019150819050949350505050565b60008151905061325c816125d7565b92915050565b600060208284031215613278576132776125c3565b5b60006132868482850161324d565b91505092915050565b7f45524331393637557067726164653a206e657720696d706c656d656e7461746960008201527f6f6e206973206e6f742055555053000000000000000000000000000000000000602082015250565b60006132eb602e83612a62565b91506132f68261328f565b604082019050919050565b6000602082019050818103600083015261331a816132de565b9050919050565b7f45524331393637557067726164653a20756e737570706f727465642070726f7860008201527f6961626c65555549440000000000000000000000000000000000000000000000602082015250565b600061337d602983612a62565b915061338882613321565b604082019050919050565b600060208201905081810360008301526133ac81613370565b9050919050565b7f496e697469616c697a61626c653a20636f6e747261637420697320616c72656160008201527f647920696e697469616c697a6564000000000000000000000000000000000000602082015250565b600061340f602e83612a62565b915061341a826133b3565b604082019050919050565b6000602082019050818103600083015261343e81613402565b9050919050565b600081905092915050565b7f19457468657265756d205369676e6564204d6573736167653a0a333200000000600082015250565b6000613486601c83613445565b915061349182613450565b601c82019050919050565b60006134a782613479565b91506134b382846131d8565b60208201915081905092915050565b7f455243313936373a206e657720696d706c656d656e746174696f6e206973206e60008201527f6f74206120636f6e747261637400000000000000000000000000000000000000602082015250565b600061351e602d83612a62565b9150613529826134c2565b604082019050919050565b6000602082019050818103600083015261354d81613511565b9050919050565b7f496e697469616c697a61626c653a20636f6e7472616374206973206e6f74206960008201527f6e697469616c697a696e67000000000000000000000000000000000000000000602082015250565b60006135b0602b83612a62565b91506135bb82613554565b604082019050919050565b600060208201905081810360008301526135df816135a3565b9050919050565b7f4e487b7100000000000000000000000000000000000000000000000000000000600052602160045260246000fd5b7f45434453413a20696e76616c6964207369676e61747572650000000000000000600082015250565b600061364b601883612a62565b915061365682613615565b602082019050919050565b6000602082019050818103600083015261367a8161363e565b9050919050565b7f45434453413a20696e76616c6964207369676e6174757265206c656e67746800600082015250565b60006136b7601f83612a62565b91506136c282613681565b602082019050919050565b600060208201905081810360008301526136e6816136aa565b9050919050565b7f45434453413a20696e76616c6964207369676e6174757265202773272076616c60008201527f7565000000000000000000000000000000000000000000000000000000000000602082015250565b6000613749602283612a62565b9150613754826136ed565b604082019050919050565b600060208201905081810360008301526137788161373c565b9050919050565b7f45434453413a20696e76616c6964207369676e6174757265202776272076616c60008201527f7565000000000000000000000000000000000000000000000000000000000000602082015250565b60006137db602283612a62565b91506137e68261377f565b604082019050919050565b6000602082019050818103600083015261380a816137ce565b9050919050565b7f416464726573733a2064656c65676174652063616c6c20746f206e6f6e2d636f60008201527f6e74726163740000000000000000000000000000000000000000000000000000602082015250565b600061386d602683612a62565b915061387882613811565b604082019050919050565b6000602082019050818103600083015261389c81613860565b9050919050565b600081519050919050565b60005b838110156138cc5780820151818401526020810190506138b1565b838111156138db576000848401525b50505050565b60006138ec826138a3565b6138f68185612de8565b93506139068185602086016138ae565b80840191505092915050565b600061391e82846138e1565b915081905092915050565b6139328161305a565b82525050565b600060808201905061394d60008301876128f0565b61395a6020830186613929565b61396760408301856128f0565b61397460608301846128f0565b95945050505050565b7f4e487b7100000000000000000000000000000000000000000000000000000000600052601160045260246000fd5b60006139b782612837565b91506139c283612837565b9250827fffffffffffffffffffffffffffffffffffffffffffffffffffffffffffffffff038211156139f7576139f661397d565b5b828201905092915050565b600081519050919050565b6000613a1882613a02565b613a228185612a62565b9350613a328185602086016138ae565b613a3b816126fb565b840191505092915050565b60006020820190508181036000830152613a608184613a0d565b90509291505056fe416464726573733a206c6f772d6c6576656c2064656c65676174652063616c6c206661696c6564a2646970667358221220ab23013365092898fb549a07c2360be79843c3cb9e0d143a01d22e17a1ba953264736f6c634300080e0033",
  "immutableReferences": {
    "685": [
      {
        "length": 32,
        "start": 2576
      },
      {
        "length": 32,
        "start": 2718
      },
      {
        "length": 32,
        "start": 3376
      },
      {
        "length": 32,
        "start": 3518
      },
      {
        "length": 32,
        "start": 3718
      }
    ]
  },
  "source": "   \n// SPDX-License-Identifier: MIT\npragma solidity ^0.8.0;\n\nimport \"@openzeppelin/contracts-upgradeable/proxy/utils/UUPSUpgradeable.sol\";\nimport \"@openzeppelin/contracts/utils/cryptography/ECDSA.sol\";\n\nimport \"./GameOwnerUpgradeable.sol\";\nimport \"./FFFToken.sol\";\n\ncontract Bank is GameOwnerUpgradeable, UUPSUpgradeable {\n\n    using ECDSA for bytes32;\n\n    event SessionChanged(address indexed owner, bytes32 indexed sessionId, bytes32 indexed thxId);\n\n    mapping(bytes32 => bool) public executed;\n\n    mapping(address => bytes32) public sessions;\n    mapping(address => uint) public syncedAt;\n\n    uint private withdrawFee;\n    address private withdrawFeeWallet;\n    address private signer;\n\n\n    FunflowerFarmToken private fffToken;\n\n    function initialize() public override initializer {\n        GameOwnerUpgradeable.initialize();\n        gameRoles[msg.sender] = true;\n        withdrawFee = 1 * (10 ** 17); //0.1\n        withdrawFeeWallet = _msgSender();\n        signer = _msgSender();\n    }\n\n    function setTokens(FunflowerFarmToken _fffToken) public onlyOwner {\n        fffToken = _fffToken;\n    }\n\n    function setWithdrawFee(uint _fee) public onlyOwner {\n        withdrawFee = _fee;\n    }\n\n    function transferSigner(address _signer) public onlyOwner {\n        signer = _signer;\n    }\n\n    function transferWithdrawFeeWallet(address _team) public onlyOwner {\n        withdrawFeeWallet = _team;\n    }\n\n    function _authorizeUpgrade(address) internal override onlyOwner {}\n\n    function getSessionId(address _address) public view returns(bytes32) {\n        bytes32 id = sessions[_address];\n\n        if (id == 0) {\n            // First ID is based on the unique contract\n            id = keccak256(abi.encode(address(this)));\n        }\n\n        return id;\n    }\n\n    function isTransactionExecuted(bytes32 txHash) public view returns(bool) {\n        return executed[txHash];\n    }\n\n        // A unique nonce identifer for the account\n    function generateSessionId(address _address) private view returns(bytes32) {\n        return keccak256(abi.encodePacked(_msgSender(), sessions[_address], block.number)).toEthSignedMessageHash();\n    }\n\n    function verify(bytes32 hash, bytes memory signature) private view returns (bool) {\n        bytes32 ethSignedHash = hash.toEthSignedMessageHash();\n        return ethSignedHash.recover(signature) == signer;\n    }\n\n    function withdraw (\n        bytes memory signature,\n        bytes32 sessionId,\n        uint256 fff,\n        uint deadline) \n        payable public returns (bool) {\n        require(msg.value >= withdrawFee, \"Funflower Farm: Missing fee\");\n        require(deadline >= block.timestamp, \"Funflower Farm: Deadline Passed\");\n\n        // Check the session is new or has not changed (already saved or withdrew funds)\n        bytes32 userSessionId = getSessionId(_msgSender());\n        require(\n            userSessionId == sessionId,\n            \"Funflower Farm: Session has changed\"\n        );\n\n        // Start a new session\n        bytes32 newSessionId = generateSessionId(_msgSender());\n        sessions[_msgSender()] = newSessionId;\n        syncedAt[_msgSender()] = block.timestamp;\n\n        // Verify\n        bytes32 txHash = keccak256(abi.encode(sessionId,  _msgSender(), fff, deadline));\n        require(!executed[txHash], \"Funflower Farm: Tx Executed\");\n        require(verify(txHash, signature), \"Funflower Farm: Unauthorised\");\n        executed[txHash] = true;\n\n\n        fffToken.gameMint(msg.sender, fff);\n        (bool teamSent,) = withdrawFeeWallet.call{value: msg.value}(\"\");\n        require(teamSent, \"Funflower Farm: Fee Failed\");\n\n        emit SessionChanged(_msgSender(), newSessionId, txHash);\n\n        return true;\n    }\n\n    function deposit (\n        bytes memory signature,\n        bytes32 sessionId,\n        uint256 fff,\n        uint deadline) \n        public returns (bool) {\n        require(deadline >= block.timestamp, \"Funflower Farm: Deadline Passed\");\n\n        // Check the session is new or has not changed (already saved or withdrew funds)\n        bytes32 userSessionId = getSessionId(_msgSender());\n        require(\n            userSessionId == sessionId,\n            \"Funflower Farm: Session has changed\"\n        );\n\n        // Start a new session\n        bytes32 newSessionId = generateSessionId(_msgSender());\n        sessions[_msgSender()] = newSessionId;\n        syncedAt[_msgSender()] = block.timestamp;\n\n        // Verify\n        bytes32 txHash = keccak256(abi.encode(sessionId,  _msgSender(), fff, deadline));\n        require(!executed[txHash], \"Funflower Farm: Tx Executed\");\n        require(verify(txHash, signature), \"Funflower Farm: Unauthorised\");\n        executed[txHash] = true;\n\n\n        fffToken.gameTransfer(_msgSender(), withdrawFeeWallet, fff);\n\n        emit SessionChanged(_msgSender(), newSessionId, txHash);\n\n        return true;\n    }\n\n}",
  "sourcePath": "/mnt/c/Users/nfmelendez/crypto/contracts/contracts/Bank.sol",
  "compiler": {
    "name": "solc",
    "version": "0.8.14+commit.80d49f37.Emscripten.clang"
  },
  "schemaVersion": "3.4.4",
  "updatedAt": "2022-06-06T19:49:35.442Z",
  "networkType": "ethereum",
  "devdoc": {
    "kind": "dev",
    "methods": {
      "owner()": {
        "details": "Returns the address of the current owner."
      },
      "proxiableUUID()": {
        "details": "Implementation of the ERC1822 {proxiableUUID} function. This returns the storage slot used by the implementation. It is used to validate that the this implementation remains valid after an upgrade. IMPORTANT: A proxy pointing at a proxiable contract should not be considered proxiable itself, because this risks bricking a proxy that upgrades to it, by delegating to itself until out of gas. Thus it is critical that this function revert if invoked through a proxy. This is guaranteed by the `notDelegated` modifier."
      },
      "renounceOwnership()": {
        "details": "Leaves the contract without owner. It will not be possible to call `onlyOwner` functions anymore. Can only be called by the current owner. NOTE: Renouncing ownership will leave the contract without an owner, thereby removing any functionality that is only available to the owner."
      },
      "transferOwnership(address)": {
        "details": "Transfers ownership of the contract to a new account (`newOwner`). Can only be called by the current owner."
      },
      "upgradeTo(address)": {
        "details": "Upgrade the implementation of the proxy to `newImplementation`. Calls {_authorizeUpgrade}. Emits an {Upgraded} event."
      },
      "upgradeToAndCall(address,bytes)": {
        "details": "Upgrade the implementation of the proxy to `newImplementation`, and subsequently execute the function call encoded in `data`. Calls {_authorizeUpgrade}. Emits an {Upgraded} event."
      }
    },
    "version": 1
  },
  "userdoc": {
    "kind": "user",
    "methods": {},
    "version": 1
  }
}