{
  "contractName": "FunflowerFarmToken",
  "abi": [
    {
      "inputs": [],
      "stateMutability": "payable",
      "type": "constructor",
      "payable": true
    },
    {
      "anonymous": false,
      "inputs": [
        {
          "indexed": true,
          "internalType": "address",
          "name": "owner",
          "type": "address"
        },
        {
          "indexed": true,
          "internalType": "address",
          "name": "spender",
          "type": "address"
        },
        {
          "indexed": false,
          "internalType": "uint256",
          "name": "value",
          "type": "uint256"
        }
      ],
      "name": "Approval",
      "type": "event"
    },
    {
      "anonymous": false,
      "inputs": [
        {
          "indexed": true,
          "internalType": "address",
          "name": "previousOwner",
          "type": "address"
        },
        {
          "indexed": true,
          "internalType": "address",
          "name": "newOwner",
          "type": "address"
        }
      ],
      "name": "OwnershipTransferred",
      "type": "event"
    },
    {
      "anonymous": false,
      "inputs": [
        {
          "indexed": false,
          "internalType": "address",
          "name": "account",
          "type": "address"
        }
      ],
      "name": "Paused",
      "type": "event"
    },
    {
      "anonymous": false,
      "inputs": [
        {
          "indexed": true,
          "internalType": "address",
          "name": "from",
          "type": "address"
        },
        {
          "indexed": true,
          "internalType": "address",
          "name": "to",
          "type": "address"
        },
        {
          "indexed": false,
          "internalType": "uint256",
          "name": "value",
          "type": "uint256"
        }
      ],
      "name": "Transfer",
      "type": "event"
    },
    {
      "anonymous": false,
      "inputs": [
        {
          "indexed": false,
          "internalType": "address",
          "name": "account",
          "type": "address"
        }
      ],
      "name": "Unpaused",
      "type": "event"
    },
    {
      "inputs": [
        {
          "internalType": "address",
          "name": "_game",
          "type": "address"
        }
      ],
      "name": "addGameRole",
      "outputs": [],
      "stateMutability": "nonpayable",
      "type": "function"
    },
    {
      "inputs": [
        {
          "internalType": "address",
          "name": "owner",
          "type": "address"
        },
        {
          "internalType": "address",
          "name": "spender",
          "type": "address"
        }
      ],
      "name": "allowance",
      "outputs": [
        {
          "internalType": "uint256",
          "name": "",
          "type": "uint256"
        }
      ],
      "stateMutability": "view",
      "type": "function",
      "constant": true
    },
    {
      "inputs": [
        {
          "internalType": "address",
          "name": "spender",
          "type": "address"
        },
        {
          "internalType": "uint256",
          "name": "amount",
          "type": "uint256"
        }
      ],
      "name": "approve",
      "outputs": [
        {
          "internalType": "bool",
          "name": "",
          "type": "bool"
        }
      ],
      "stateMutability": "nonpayable",
      "type": "function"
    },
    {
      "inputs": [
        {
          "internalType": "address",
          "name": "account",
          "type": "address"
        }
      ],
      "name": "balanceOf",
      "outputs": [
        {
          "internalType": "uint256",
          "name": "",
          "type": "uint256"
        }
      ],
      "stateMutability": "view",
      "type": "function",
      "constant": true
    },
    {
      "inputs": [],
      "name": "decimals",
      "outputs": [
        {
          "internalType": "uint8",
          "name": "",
          "type": "uint8"
        }
      ],
      "stateMutability": "view",
      "type": "function",
      "constant": true
    },
    {
      "inputs": [
        {
          "internalType": "address",
          "name": "spender",
          "type": "address"
        },
        {
          "internalType": "uint256",
          "name": "subtractedValue",
          "type": "uint256"
        }
      ],
      "name": "decreaseAllowance",
      "outputs": [
        {
          "internalType": "bool",
          "name": "",
          "type": "bool"
        }
      ],
      "stateMutability": "nonpayable",
      "type": "function"
    },
    {
      "inputs": [
        {
          "internalType": "address",
          "name": "spender",
          "type": "address"
        },
        {
          "internalType": "uint256",
          "name": "addedValue",
          "type": "uint256"
        }
      ],
      "name": "increaseAllowance",
      "outputs": [
        {
          "internalType": "bool",
          "name": "",
          "type": "bool"
        }
      ],
      "stateMutability": "nonpayable",
      "type": "function"
    },
    {
      "inputs": [],
      "name": "name",
      "outputs": [
        {
          "internalType": "string",
          "name": "",
          "type": "string"
        }
      ],
      "stateMutability": "view",
      "type": "function",
      "constant": true
    },
    {
      "inputs": [],
      "name": "owner",
      "outputs": [
        {
          "internalType": "address",
          "name": "",
          "type": "address"
        }
      ],
      "stateMutability": "view",
      "type": "function",
      "constant": true
    },
    {
      "inputs": [],
      "name": "paused",
      "outputs": [
        {
          "internalType": "bool",
          "name": "",
          "type": "bool"
        }
      ],
      "stateMutability": "view",
      "type": "function",
      "constant": true
    },
    {
      "inputs": [
        {
          "internalType": "address",
          "name": "_game",
          "type": "address"
        }
      ],
      "name": "removeGameRole",
      "outputs": [],
      "stateMutability": "nonpayable",
      "type": "function"
    },
    {
      "inputs": [],
      "name": "renounceOwnership",
      "outputs": [],
      "stateMutability": "nonpayable",
      "type": "function"
    },
    {
      "inputs": [],
      "name": "symbol",
      "outputs": [
        {
          "internalType": "string",
          "name": "",
          "type": "string"
        }
      ],
      "stateMutability": "view",
      "type": "function",
      "constant": true
    },
    {
      "inputs": [],
      "name": "totalSupply",
      "outputs": [
        {
          "internalType": "uint256",
          "name": "",
          "type": "uint256"
        }
      ],
      "stateMutability": "view",
      "type": "function",
      "constant": true
    },
    {
      "inputs": [
        {
          "internalType": "address",
          "name": "to",
          "type": "address"
        },
        {
          "internalType": "uint256",
          "name": "amount",
          "type": "uint256"
        }
      ],
      "name": "transfer",
      "outputs": [
        {
          "internalType": "bool",
          "name": "",
          "type": "bool"
        }
      ],
      "stateMutability": "nonpayable",
      "type": "function"
    },
    {
      "inputs": [
        {
          "internalType": "address",
          "name": "from",
          "type": "address"
        },
        {
          "internalType": "address",
          "name": "to",
          "type": "address"
        },
        {
          "internalType": "uint256",
          "name": "amount",
          "type": "uint256"
        }
      ],
      "name": "transferFrom",
      "outputs": [
        {
          "internalType": "bool",
          "name": "",
          "type": "bool"
        }
      ],
      "stateMutability": "nonpayable",
      "type": "function"
    },
    {
      "inputs": [
        {
          "internalType": "address",
          "name": "newOwner",
          "type": "address"
        }
      ],
      "name": "transferOwnership",
      "outputs": [],
      "stateMutability": "nonpayable",
      "type": "function"
    },
    {
      "inputs": [
        {
          "internalType": "address",
          "name": "account",
          "type": "address"
        },
        {
          "internalType": "uint256",
          "name": "amount",
          "type": "uint256"
        }
      ],
      "name": "gameMint",
      "outputs": [
        {
          "internalType": "bool",
          "name": "",
          "type": "bool"
        }
      ],
      "stateMutability": "nonpayable",
      "type": "function"
    },
    {
      "inputs": [
        {
          "internalType": "address",
          "name": "account",
          "type": "address"
        },
        {
          "internalType": "uint256",
          "name": "amount",
          "type": "uint256"
        }
      ],
      "name": "gameBurn",
      "outputs": [
        {
          "internalType": "bool",
          "name": "",
          "type": "bool"
        }
      ],
      "stateMutability": "nonpayable",
      "type": "function"
    },
    {
      "inputs": [
        {
          "internalType": "address",
          "name": "from",
          "type": "address"
        },
        {
          "internalType": "address",
          "name": "to",
          "type": "address"
        },
        {
          "internalType": "uint256",
          "name": "amount",
          "type": "uint256"
        }
      ],
      "name": "gameTransfer",
      "outputs": [
        {
          "internalType": "bool",
          "name": "",
          "type": "bool"
        }
      ],
      "stateMutability": "nonpayable",
      "type": "function"
    },
    {
      "inputs": [
        {
          "internalType": "address",
          "name": "spender",
          "type": "address"
        },
        {
          "internalType": "uint256",
          "name": "amount",
          "type": "uint256"
        }
      ],
      "name": "gameApprove",
      "outputs": [
        {
          "internalType": "bool",
          "name": "",
          "type": "bool"
        }
      ],
      "stateMutability": "nonpayable",
      "type": "function"
    },
    {
      "inputs": [],
      "name": "pause",
      "outputs": [],
      "stateMutability": "nonpayable",
      "type": "function"
    },
    {
      "inputs": [],
      "name": "unPause",
      "outputs": [],
      "stateMutability": "nonpayable",
      "type": "function"
    }
  ],
  "bytecode": "0x60806040526969e10de76676d08000006007556040518060400160405280600e81526020017f46756e666c6f776572204661726d0000000000000000000000000000000000008152506040518060400160405280600381526020017f464646000000000000000000000000000000000000000000000000000000000081525081600390805190602001906200009692919062000436565b508060049080519060200190620000af92919062000436565b5050506000600560006101000a81548160ff021916908315150217905550620000ed620000e16200015f60201b60201c565b6200016760201b60201c565b6001600660003373ffffffffffffffffffffffffffffffffffffffff1673ffffffffffffffffffffffffffffffffffffffff16815260200190815260200160002060006101000a81548160ff02191690831515021790555062000159336007546200022d60201b60201c565b62000729565b600033905090565b6000600560019054906101000a900473ffffffffffffffffffffffffffffffffffffffff16905081600560016101000a81548173ffffffffffffffffffffffffffffffffffffffff021916908373ffffffffffffffffffffffffffffffffffffffff1602179055508173ffffffffffffffffffffffffffffffffffffffff168173ffffffffffffffffffffffffffffffffffffffff167f8be0079c531659141344cd1fd0a4f28419497f9722a3daafe3b4186f6b6457e060405160405180910390a35050565b600073ffffffffffffffffffffffffffffffffffffffff168273ffffffffffffffffffffffffffffffffffffffff16036200029f576040517f08c379a0000000000000000000000000000000000000000000000000000000008152600401620002969062000547565b60405180910390fd5b620002b360008383620003a560201b60201c565b8060026000828254620002c79190620005a2565b92505081905550806000808473ffffffffffffffffffffffffffffffffffffffff1673ffffffffffffffffffffffffffffffffffffffff16815260200190815260200160002060008282546200031e9190620005a2565b925050819055508173ffffffffffffffffffffffffffffffffffffffff16600073ffffffffffffffffffffffffffffffffffffffff167fddf252ad1be2c89b69c2b068fc378daa952ba7f163c4a11628f55a4df523b3ef8360405162000385919062000610565b60405180910390a3620003a1600083836200041560201b60201c565b5050565b620003bd8383836200041a60201b620011371760201c565b620003cd6200041f60201b60201c565b1562000410576040517f08c379a00000000000000000000000000000000000000000000000000000000081526004016200040790620006a3565b60405180910390fd5b505050565b505050565b505050565b6000600560009054906101000a900460ff16905090565b8280546200044490620006f4565b90600052602060002090601f016020900481019282620004685760008555620004b4565b82601f106200048357805160ff1916838001178555620004b4565b82800160010185558215620004b4579182015b82811115620004b357825182559160200191906001019062000496565b5b509050620004c39190620004c7565b5090565b5b80821115620004e2576000816000905550600101620004c8565b5090565b600082825260208201905092915050565b7f45524332303a206d696e7420746f20746865207a65726f206164647265737300600082015250565b60006200052f601f83620004e6565b91506200053c82620004f7565b602082019050919050565b60006020820190508181036000830152620005628162000520565b9050919050565b6000819050919050565b7f4e487b7100000000000000000000000000000000000000000000000000000000600052601160045260246000fd5b6000620005af8262000569565b9150620005bc8362000569565b9250827fffffffffffffffffffffffffffffffffffffffffffffffffffffffffffffffff03821115620005f457620005f362000573565b5b828201905092915050565b6200060a8162000569565b82525050565b6000602082019050620006276000830184620005ff565b92915050565b7f45524332305061757361626c653a20746f6b656e207472616e7366657220776860008201527f696c652070617573656400000000000000000000000000000000000000000000602082015250565b60006200068b602a83620004e6565b915062000698826200062d565b604082019050919050565b60006020820190508181036000830152620006be816200067c565b9050919050565b7f4e487b7100000000000000000000000000000000000000000000000000000000600052602260045260246000fd5b600060028204905060018216806200070d57607f821691505b602082108103620007235762000722620006c5565b5b50919050565b61287b80620007396000396000f3fe608060405234801561001057600080fd5b506004361061014d5760003560e01c806370a08231116100c3578063a457c2d71161007c578063a457c2d7146103a2578063a8a99ce8146103d2578063a9059cbb14610402578063dd62ed3e14610432578063f2fde38b14610462578063f7b188a51461047e5761014d565b806370a0823114610306578063715018a6146103365780637323b8fa146103405780638456cb591461035c5780638da5cb5b1461036657806395d89b41146103845761014d565b8063271292f511610115578063271292f51461020a578063313ce5671461023a57806339509351146102585780634eb90299146102885780635c975abb146102b857806362252bc3146102d65761014d565b806306fdde0314610152578063095ea7b31461017057806318160ddd146101a057806319892b51146101be57806323b872dd146101da575b600080fd5b61015a610488565b6040516101679190611c4e565b60405180910390f35b61018a60048036038101906101859190611d09565b61051a565b6040516101979190611d64565b60405180910390f35b6101a861053d565b6040516101b59190611d8e565b60405180910390f35b6101d860048036038101906101d39190611da9565b610547565b005b6101f460048036038101906101ef9190611dd6565b61061e565b6040516102019190611d64565b60405180910390f35b610224600480360381019061021f9190611d09565b61064d565b6040516102319190611d64565b60405180910390f35b610242610745565b60405161024f9190611e45565b60405180910390f35b610272600480360381019061026d9190611d09565b61074e565b60405161027f9190611d64565b60405180910390f35b6102a2600480360381019061029d9190611d09565b6107f8565b6040516102af9190611d64565b60405180910390f35b6102c06108f0565b6040516102cd9190611d64565b60405180910390f35b6102f060048036038101906102eb9190611dd6565b610907565b6040516102fd9190611d64565b60405180910390f35b610320600480360381019061031b9190611da9565b610a01565b60405161032d9190611d8e565b60405180910390f35b61033e610a49565b005b61035a60048036038101906103559190611da9565b610ad1565b005b610364610ba8565b005b61036e610c4c565b60405161037b9190611e6f565b60405180910390f35b61038c610c76565b6040516103999190611c4e565b60405180910390f35b6103bc60048036038101906103b79190611d09565b610d08565b6040516103c99190611d64565b60405180910390f35b6103ec60048036038101906103e79190611d09565b610df2565b6040516103f99190611d64565b60405180910390f35b61041c60048036038101906104179190611d09565b610ef2565b6040516104299190611d64565b60405180910390f35b61044c60048036038101906104479190611e8a565b610f15565b6040516104599190611d8e565b60405180910390f35b61047c60048036038101906104779190611da9565b610f9c565b005b610486611093565b005b60606003805461049790611ef9565b80601f01602080910402602001604051908101604052809291908181526020018280546104c390611ef9565b80156105105780601f106104e557610100808354040283529160200191610510565b820191906000526020600020905b8154815290600101906020018083116104f357829003601f168201915b5050505050905090565b60008061052561113c565b9050610532818585611144565b600191505092915050565b6000600254905090565b61054f61113c565b73ffffffffffffffffffffffffffffffffffffffff1661056d610c4c565b73ffffffffffffffffffffffffffffffffffffffff16146105c3576040517f08c379a00000000000000000000000000000000000000000000000000000000081526004016105ba90611f76565b60405180910390fd5b6000600660008373ffffffffffffffffffffffffffffffffffffffff1673ffffffffffffffffffffffffffffffffffffffff16815260200190815260200160002060006101000a81548160ff02191690831515021790555050565b60008061062961113c565b905061063685828561130d565b610641858585611399565b60019150509392505050565b6000600115156006600061065f61113c565b73ffffffffffffffffffffffffffffffffffffffff1673ffffffffffffffffffffffffffffffffffffffff16815260200190815260200160002060009054906101000a900460ff161515146106e9576040517f08c379a00000000000000000000000000000000000000000000000000000000081526004016106e090612008565b60405180910390fd5b6106f16108f0565b15610731576040517f08c379a000000000000000000000000000000000000000000000000000000000815260040161072890612074565b60405180910390fd5b61073b8383611618565b6001905092915050565b60006012905090565b60008061075961113c565b90506107ed818585600160008673ffffffffffffffffffffffffffffffffffffffff1673ffffffffffffffffffffffffffffffffffffffff16815260200190815260200160002060008973ffffffffffffffffffffffffffffffffffffffff1673ffffffffffffffffffffffffffffffffffffffff168152602001908152602001600020546107e891906120c3565b611144565b600191505092915050565b6000600115156006600061080a61113c565b73ffffffffffffffffffffffffffffffffffffffff1673ffffffffffffffffffffffffffffffffffffffff16815260200190815260200160002060009054906101000a900460ff16151514610894576040517f08c379a000000000000000000000000000000000000000000000000000000000815260040161088b90612008565b60405180910390fd5b61089c6108f0565b156108dc576040517f08c379a00000000000000000000000000000000000000000000000000000000081526004016108d390612074565b60405180910390fd5b6108e683836117ee565b6001905092915050565b6000600560009054906101000a900460ff16905090565b6000600115156006600061091961113c565b73ffffffffffffffffffffffffffffffffffffffff1673ffffffffffffffffffffffffffffffffffffffff16815260200190815260200160002060009054906101000a900460ff161515146109a3576040517f08c379a000000000000000000000000000000000000000000000000000000000815260040161099a90612008565b60405180910390fd5b6109ab6108f0565b156109eb576040517f08c379a00000000000000000000000000000000000000000000000000000000081526004016109e290612074565b60405180910390fd5b6109f6848484611399565b600190509392505050565b60008060008373ffffffffffffffffffffffffffffffffffffffff1673ffffffffffffffffffffffffffffffffffffffff168152602001908152602001600020549050919050565b610a5161113c565b73ffffffffffffffffffffffffffffffffffffffff16610a6f610c4c565b73ffffffffffffffffffffffffffffffffffffffff1614610ac5576040517f08c379a0000000000000000000000000000000000000000000000000000000008152600401610abc90611f76565b60405180910390fd5b610acf600061194d565b565b610ad961113c565b73ffffffffffffffffffffffffffffffffffffffff16610af7610c4c565b73ffffffffffffffffffffffffffffffffffffffff1614610b4d576040517f08c379a0000000000000000000000000000000000000000000000000000000008152600401610b4490611f76565b60405180910390fd5b6001600660008373ffffffffffffffffffffffffffffffffffffffff1673ffffffffffffffffffffffffffffffffffffffff16815260200190815260200160002060006101000a81548160ff02191690831515021790555050565b6001151560066000610bb861113c565b73ffffffffffffffffffffffffffffffffffffffff1673ffffffffffffffffffffffffffffffffffffffff16815260200190815260200160002060009054906101000a900460ff16151514610c42576040517f08c379a0000000000000000000000000000000000000000000000000000000008152600401610c3990612008565b60405180910390fd5b610c4a611a13565b565b6000600560019054906101000a900473ffffffffffffffffffffffffffffffffffffffff16905090565b606060048054610c8590611ef9565b80601f0160208091040260200160405190810160405280929190818152602001828054610cb190611ef9565b8015610cfe5780601f10610cd357610100808354040283529160200191610cfe565b820191906000526020600020905b815481529060010190602001808311610ce157829003601f168201915b5050505050905090565b600080610d1361113c565b90506000600160008373ffffffffffffffffffffffffffffffffffffffff1673ffffffffffffffffffffffffffffffffffffffff16815260200190815260200160002060008673ffffffffffffffffffffffffffffffffffffffff1673ffffffffffffffffffffffffffffffffffffffff16815260200190815260200160002054905083811015610dd9576040517f08c379a0000000000000000000000000000000000000000000000000000000008152600401610dd09061218b565b60405180910390fd5b610de68286868403611144565b60019250505092915050565b60006001151560066000610e0461113c565b73ffffffffffffffffffffffffffffffffffffffff1673ffffffffffffffffffffffffffffffffffffffff16815260200190815260200160002060009054906101000a900460ff16151514610e8e576040517f08c379a0000000000000000000000000000000000000000000000000000000008152600401610e8590612008565b60405180910390fd5b610e966108f0565b15610ed6576040517f08c379a0000000000000000000000000000000000000000000000000000000008152600401610ecd90612074565b60405180910390fd5b610ee8610ee161113c565b8484611144565b6001905092915050565b600080610efd61113c565b9050610f0a818585611399565b600191505092915050565b6000600160008473ffffffffffffffffffffffffffffffffffffffff1673ffffffffffffffffffffffffffffffffffffffff16815260200190815260200160002060008373ffffffffffffffffffffffffffffffffffffffff1673ffffffffffffffffffffffffffffffffffffffff16815260200190815260200160002054905092915050565b610fa461113c565b73ffffffffffffffffffffffffffffffffffffffff16610fc2610c4c565b73ffffffffffffffffffffffffffffffffffffffff1614611018576040517f08c379a000000000000000000000000000000000000000000000000000000000815260040161100f90611f76565b60405180910390fd5b600073ffffffffffffffffffffffffffffffffffffffff168173ffffffffffffffffffffffffffffffffffffffff1603611087576040517f08c379a000000000000000000000000000000000000000000000000000000000815260040161107e9061221d565b60405180910390fd5b6110908161194d565b50565b60011515600660006110a361113c565b73ffffffffffffffffffffffffffffffffffffffff1673ffffffffffffffffffffffffffffffffffffffff16815260200190815260200160002060009054906101000a900460ff1615151461112d576040517f08c379a000000000000000000000000000000000000000000000000000000000815260040161112490612008565b60405180910390fd5b611135611ab6565b565b505050565b600033905090565b600073ffffffffffffffffffffffffffffffffffffffff168373ffffffffffffffffffffffffffffffffffffffff16036111b3576040517f08c379a00000000000000000000000000000000000000000000000000000000081526004016111aa906122af565b60405180910390fd5b600073ffffffffffffffffffffffffffffffffffffffff168273ffffffffffffffffffffffffffffffffffffffff1603611222576040517f08c379a000000000000000000000000000000000000000000000000000000000815260040161121990612341565b60405180910390fd5b80600160008573ffffffffffffffffffffffffffffffffffffffff1673ffffffffffffffffffffffffffffffffffffffff16815260200190815260200160002060008473ffffffffffffffffffffffffffffffffffffffff1673ffffffffffffffffffffffffffffffffffffffff168152602001908152602001600020819055508173ffffffffffffffffffffffffffffffffffffffff168373ffffffffffffffffffffffffffffffffffffffff167f8c5be1e5ebec7d5bd14f71427d1e84f3dd0314c0f7b2291e5b200ac8c7c3b925836040516113009190611d8e565b60405180910390a3505050565b60006113198484610f15565b90507fffffffffffffffffffffffffffffffffffffffffffffffffffffffffffffffff81146113935781811015611385576040517f08c379a000000000000000000000000000000000000000000000000000000000815260040161137c906123ad565b60405180910390fd5b6113928484848403611144565b5b50505050565b600073ffffffffffffffffffffffffffffffffffffffff168373ffffffffffffffffffffffffffffffffffffffff1603611408576040517f08c379a00000000000000000000000000000000000000000000000000000000081526004016113ff9061243f565b60405180910390fd5b600073ffffffffffffffffffffffffffffffffffffffff168273ffffffffffffffffffffffffffffffffffffffff1603611477576040517f08c379a000000000000000000000000000000000000000000000000000000000815260040161146e906124d1565b60405180910390fd5b611482838383611b58565b60008060008573ffffffffffffffffffffffffffffffffffffffff1673ffffffffffffffffffffffffffffffffffffffff16815260200190815260200160002054905081811015611508576040517f08c379a00000000000000000000000000000000000000000000000000000000081526004016114ff90612563565b60405180910390fd5b8181036000808673ffffffffffffffffffffffffffffffffffffffff1673ffffffffffffffffffffffffffffffffffffffff16815260200190815260200160002081905550816000808573ffffffffffffffffffffffffffffffffffffffff1673ffffffffffffffffffffffffffffffffffffffff168152602001908152602001600020600082825461159b91906120c3565b925050819055508273ffffffffffffffffffffffffffffffffffffffff168473ffffffffffffffffffffffffffffffffffffffff167fddf252ad1be2c89b69c2b068fc378daa952ba7f163c4a11628f55a4df523b3ef846040516115ff9190611d8e565b60405180910390a3611612848484611bb0565b50505050565b600073ffffffffffffffffffffffffffffffffffffffff168273ffffffffffffffffffffffffffffffffffffffff1603611687576040517f08c379a000000000000000000000000000000000000000000000000000000000815260040161167e906125f5565b60405180910390fd5b61169382600083611b58565b60008060008473ffffffffffffffffffffffffffffffffffffffff1673ffffffffffffffffffffffffffffffffffffffff16815260200190815260200160002054905081811015611719576040517f08c379a000000000000000000000000000000000000000000000000000000000815260040161171090612687565b60405180910390fd5b8181036000808573ffffffffffffffffffffffffffffffffffffffff1673ffffffffffffffffffffffffffffffffffffffff16815260200190815260200160002081905550816002600082825461177091906126a7565b92505081905550600073ffffffffffffffffffffffffffffffffffffffff168373ffffffffffffffffffffffffffffffffffffffff167fddf252ad1be2c89b69c2b068fc378daa952ba7f163c4a11628f55a4df523b3ef846040516117d59190611d8e565b60405180910390a36117e983600084611bb0565b505050565b600073ffffffffffffffffffffffffffffffffffffffff168273ffffffffffffffffffffffffffffffffffffffff160361185d576040517f08c379a000000000000000000000000000000000000000000000000000000000815260040161185490612727565b60405180910390fd5b61186960008383611b58565b806002600082825461187b91906120c3565b92505081905550806000808473ffffffffffffffffffffffffffffffffffffffff1673ffffffffffffffffffffffffffffffffffffffff16815260200190815260200160002060008282546118d091906120c3565b925050819055508173ffffffffffffffffffffffffffffffffffffffff16600073ffffffffffffffffffffffffffffffffffffffff167fddf252ad1be2c89b69c2b068fc378daa952ba7f163c4a11628f55a4df523b3ef836040516119359190611d8e565b60405180910390a361194960008383611bb0565b5050565b6000600560019054906101000a900473ffffffffffffffffffffffffffffffffffffffff16905081600560016101000a81548173ffffffffffffffffffffffffffffffffffffffff021916908373ffffffffffffffffffffffffffffffffffffffff1602179055508173ffffffffffffffffffffffffffffffffffffffff168173ffffffffffffffffffffffffffffffffffffffff167f8be0079c531659141344cd1fd0a4f28419497f9722a3daafe3b4186f6b6457e060405160405180910390a35050565b611a1b6108f0565b15611a5b576040517f08c379a0000000000000000000000000000000000000000000000000000000008152600401611a5290612074565b60405180910390fd5b6001600560006101000a81548160ff0219169083151502179055507f62e78cea01bee320cd4e420270b5ea74000d11b0c9f74754ebdbfc544b05a258611a9f61113c565b604051611aac9190611e6f565b60405180910390a1565b611abe6108f0565b611afd576040517f08c379a0000000000000000000000000000000000000000000000000000000008152600401611af490612793565b60405180910390fd5b6000600560006101000a81548160ff0219169083151502179055507f5db9ee0a495bf2e6ff9c91a7834c1ba4fdd244a5e8aa4e537bd38aeae4b073aa611b4161113c565b604051611b4e9190611e6f565b60405180910390a1565b611b63838383611137565b611b6b6108f0565b15611bab576040517f08c379a0000000000000000000000000000000000000000000000000000000008152600401611ba290612825565b60405180910390fd5b505050565b505050565b600081519050919050565b600082825260208201905092915050565b60005b83811015611bef578082015181840152602081019050611bd4565b83811115611bfe576000848401525b50505050565b6000601f19601f8301169050919050565b6000611c2082611bb5565b611c2a8185611bc0565b9350611c3a818560208601611bd1565b611c4381611c04565b840191505092915050565b60006020820190508181036000830152611c688184611c15565b905092915050565b600080fd5b600073ffffffffffffffffffffffffffffffffffffffff82169050919050565b6000611ca082611c75565b9050919050565b611cb081611c95565b8114611cbb57600080fd5b50565b600081359050611ccd81611ca7565b92915050565b6000819050919050565b611ce681611cd3565b8114611cf157600080fd5b50565b600081359050611d0381611cdd565b92915050565b60008060408385031215611d2057611d1f611c70565b5b6000611d2e85828601611cbe565b9250506020611d3f85828601611cf4565b9150509250929050565b60008115159050919050565b611d5e81611d49565b82525050565b6000602082019050611d796000830184611d55565b92915050565b611d8881611cd3565b82525050565b6000602082019050611da36000830184611d7f565b92915050565b600060208284031215611dbf57611dbe611c70565b5b6000611dcd84828501611cbe565b91505092915050565b600080600060608486031215611def57611dee611c70565b5b6000611dfd86828701611cbe565b9350506020611e0e86828701611cbe565b9250506040611e1f86828701611cf4565b9150509250925092565b600060ff82169050919050565b611e3f81611e29565b82525050565b6000602082019050611e5a6000830184611e36565b92915050565b611e6981611c95565b82525050565b6000602082019050611e846000830184611e60565b92915050565b60008060408385031215611ea157611ea0611c70565b5b6000611eaf85828601611cbe565b9250506020611ec085828601611cbe565b9150509250929050565b7f4e487b7100000000000000000000000000000000000000000000000000000000600052602260045260246000fd5b60006002820490506001821680611f1157607f821691505b602082108103611f2457611f23611eca565b5b50919050565b7f4f776e61626c653a2063616c6c6572206973206e6f7420746865206f776e6572600082015250565b6000611f60602083611bc0565b9150611f6b82611f2a565b602082019050919050565b60006020820190508181036000830152611f8f81611f53565b9050919050565b7f46756e666c6f776572204661726d3a20596f7520617265206e6f74207468652060008201527f67616d6500000000000000000000000000000000000000000000000000000000602082015250565b6000611ff2602483611bc0565b9150611ffd82611f96565b604082019050919050565b6000602082019050818103600083015261202181611fe5565b9050919050565b7f5061757361626c653a2070617573656400000000000000000000000000000000600082015250565b600061205e601083611bc0565b915061206982612028565b602082019050919050565b6000602082019050818103600083015261208d81612051565b9050919050565b7f4e487b7100000000000000000000000000000000000000000000000000000000600052601160045260246000fd5b60006120ce82611cd3565b91506120d983611cd3565b9250827fffffffffffffffffffffffffffffffffffffffffffffffffffffffffffffffff0382111561210e5761210d612094565b5b828201905092915050565b7f45524332303a2064656372656173656420616c6c6f77616e63652062656c6f7760008201527f207a65726f000000000000000000000000000000000000000000000000000000602082015250565b6000612175602583611bc0565b915061218082612119565b604082019050919050565b600060208201905081810360008301526121a481612168565b9050919050565b7f4f776e61626c653a206e6577206f776e657220697320746865207a65726f206160008201527f6464726573730000000000000000000000000000000000000000000000000000602082015250565b6000612207602683611bc0565b9150612212826121ab565b604082019050919050565b60006020820190508181036000830152612236816121fa565b9050919050565b7f45524332303a20617070726f76652066726f6d20746865207a65726f2061646460008201527f7265737300000000000000000000000000000000000000000000000000000000602082015250565b6000612299602483611bc0565b91506122a48261223d565b604082019050919050565b600060208201905081810360008301526122c88161228c565b9050919050565b7f45524332303a20617070726f766520746f20746865207a65726f20616464726560008201527f7373000000000000000000000000000000000000000000000000000000000000602082015250565b600061232b602283611bc0565b9150612336826122cf565b604082019050919050565b6000602082019050818103600083015261235a8161231e565b9050919050565b7f45524332303a20696e73756666696369656e7420616c6c6f77616e6365000000600082015250565b6000612397601d83611bc0565b91506123a282612361565b602082019050919050565b600060208201905081810360008301526123c68161238a565b9050919050565b7f45524332303a207472616e736665722066726f6d20746865207a65726f20616460008201527f6472657373000000000000000000000000000000000000000000000000000000602082015250565b6000612429602583611bc0565b9150612434826123cd565b604082019050919050565b600060208201905081810360008301526124588161241c565b9050919050565b7f45524332303a207472616e7366657220746f20746865207a65726f206164647260008201527f6573730000000000000000000000000000000000000000000000000000000000602082015250565b60006124bb602383611bc0565b91506124c68261245f565b604082019050919050565b600060208201905081810360008301526124ea816124ae565b9050919050565b7f45524332303a207472616e7366657220616d6f756e742065786365656473206260008201527f616c616e63650000000000000000000000000000000000000000000000000000602082015250565b600061254d602683611bc0565b9150612558826124f1565b604082019050919050565b6000602082019050818103600083015261257c81612540565b9050919050565b7f45524332303a206275726e2066726f6d20746865207a65726f2061646472657360008201527f7300000000000000000000000000000000000000000000000000000000000000602082015250565b60006125df602183611bc0565b91506125ea82612583565b604082019050919050565b6000602082019050818103600083015261260e816125d2565b9050919050565b7f45524332303a206275726e20616d6f756e7420657863656564732062616c616e60008201527f6365000000000000000000000000000000000000000000000000000000000000602082015250565b6000612671602283611bc0565b915061267c82612615565b604082019050919050565b600060208201905081810360008301526126a081612664565b9050919050565b60006126b282611cd3565b91506126bd83611cd3565b9250828210156126d0576126cf612094565b5b828203905092915050565b7f45524332303a206d696e7420746f20746865207a65726f206164647265737300600082015250565b6000612711601f83611bc0565b915061271c826126db565b602082019050919050565b6000602082019050818103600083015261274081612704565b9050919050565b7f5061757361626c653a206e6f7420706175736564000000000000000000000000600082015250565b600061277d601483611bc0565b915061278882612747565b602082019050919050565b600060208201905081810360008301526127ac81612770565b9050919050565b7f45524332305061757361626c653a20746f6b656e207472616e7366657220776860008201527f696c652070617573656400000000000000000000000000000000000000000000602082015250565b600061280f602a83611bc0565b915061281a826127b3565b604082019050919050565b6000602082019050818103600083015261283e81612802565b905091905056fea2646970667358221220f9ea0bdd76dec76346c761d107cbec1fbbcf6eafed3d3da1f287b9f75f19a40464736f6c634300080d0033",
  "immutableReferences": {},
  "source": "\n   \n// SPDX-License-Identifier: MIT\npragma solidity ^0.8.0;\n\nimport \"@openzeppelin/contracts/token/ERC20/extensions/ERC20Pausable.sol\";\nimport \"./GameOwner.sol\";\n\ncontract FunflowerFarmToken is ERC20Pausable, GameOwner {\n\n  uint256 private TEAM_INITIAL_MINT = 500000*10**18; // 500000 FFF\n\n  constructor() payable ERC20(\"Funflower Farm\", \"FFF\") {\n      gameRoles[msg.sender] = true;\n      _mint(msg.sender, TEAM_INITIAL_MINT);\n  }\n  \n  function gameMint(address account, uint256 amount) public onlyGame whenNotPaused returns (bool){\n\t  _mint(account, amount);\n    return true;\n }\n\n  function gameBurn(address account, uint256 amount) public onlyGame whenNotPaused returns (bool){\n\t  _burn(account, amount);\n    return true;\n  }\n\n  function gameTransfer(address from, address to, uint256 amount) public onlyGame whenNotPaused returns (bool){\n\t  _transfer(from, to, amount);\n    return true;\n  }\n\n  function gameApprove(address spender, uint256 amount) public onlyGame whenNotPaused returns (bool) {\n    _approve(_msgSender(), spender, amount);\n    return true;\n  }\n\n  function pause() public onlyGame {\n    _pause();\n  }\n\n  function unPause() public onlyGame {\n    _unpause();\n  }\n\n}\n",
  "sourcePath": "/mnt/c/Users/nfmelendez/crypto/contracts/contracts/FFFToken.sol",
  "compiler": {
    "name": "solc",
    "version": "0.8.13+commit.abaa5c0e.Emscripten.clang"
  },
  "schemaVersion": "3.4.4",
  "updatedAt": "2022-05-10T17:24:45.894Z",
  "networkType": "ethereum",
  "devdoc": {
    "kind": "dev",
    "methods": {
      "allowance(address,address)": {
        "details": "See {IERC20-allowance}."
      },
      "approve(address,uint256)": {
        "details": "See {IERC20-approve}. NOTE: If `amount` is the maximum `uint256`, the allowance is not updated on `transferFrom`. This is semantically equivalent to an infinite approval. Requirements: - `spender` cannot be the zero address."
      },
      "balanceOf(address)": {
        "details": "See {IERC20-balanceOf}."
      },
      "decimals()": {
        "details": "Returns the number of decimals used to get its user representation. For example, if `decimals` equals `2`, a balance of `505` tokens should be displayed to a user as `5.05` (`505 / 10 ** 2`). Tokens usually opt for a value of 18, imitating the relationship between Ether and Wei. This is the value {ERC20} uses, unless this function is overridden; NOTE: This information is only used for _display_ purposes: it in no way affects any of the arithmetic of the contract, including {IERC20-balanceOf} and {IERC20-transfer}."
      },
      "decreaseAllowance(address,uint256)": {
        "details": "Atomically decreases the allowance granted to `spender` by the caller. This is an alternative to {approve} that can be used as a mitigation for problems described in {IERC20-approve}. Emits an {Approval} event indicating the updated allowance. Requirements: - `spender` cannot be the zero address. - `spender` must have allowance for the caller of at least `subtractedValue`."
      },
      "increaseAllowance(address,uint256)": {
        "details": "Atomically increases the allowance granted to `spender` by the caller. This is an alternative to {approve} that can be used as a mitigation for problems described in {IERC20-approve}. Emits an {Approval} event indicating the updated allowance. Requirements: - `spender` cannot be the zero address."
      },
      "name()": {
        "details": "Returns the name of the token."
      },
      "owner()": {
        "details": "Returns the address of the current owner."
      },
      "paused()": {
        "details": "Returns true if the contract is paused, and false otherwise."
      },
      "renounceOwnership()": {
        "details": "Leaves the contract without owner. It will not be possible to call `onlyOwner` functions anymore. Can only be called by the current owner. NOTE: Renouncing ownership will leave the contract without an owner, thereby removing any functionality that is only available to the owner."
      },
      "symbol()": {
        "details": "Returns the symbol of the token, usually a shorter version of the name."
      },
      "totalSupply()": {
        "details": "See {IERC20-totalSupply}."
      },
      "transfer(address,uint256)": {
        "details": "See {IERC20-transfer}. Requirements: - `to` cannot be the zero address. - the caller must have a balance of at least `amount`."
      },
      "transferFrom(address,address,uint256)": {
        "details": "See {IERC20-transferFrom}. Emits an {Approval} event indicating the updated allowance. This is not required by the EIP. See the note at the beginning of {ERC20}. NOTE: Does not update the allowance if the current allowance is the maximum `uint256`. Requirements: - `from` and `to` cannot be the zero address. - `from` must have a balance of at least `amount`. - the caller must have allowance for ``from``'s tokens of at least `amount`."
      },
      "transferOwnership(address)": {
        "details": "Transfers ownership of the contract to a new account (`newOwner`). Can only be called by the current owner."
      }
    },
    "version": 1
  },
  "userdoc": {
    "kind": "user",
    "methods": {},
    "version": 1
  }
}