{
  "contractName": "GameOwnerUpgradeable",
  "abi": [
    {
      "anonymous": false,
      "inputs": [
        {
          "indexed": false,
          "internalType": "uint8",
          "name": "version",
          "type": "uint8"
        }
      ],
      "name": "Initialized",
      "type": "event"
    },
    {
      "anonymous": false,
      "inputs": [
        {
          "indexed": true,
          "internalType": "address",
          "name": "previousOwner",
          "type": "address"
        },
        {
          "indexed": true,
          "internalType": "address",
          "name": "newOwner",
          "type": "address"
        }
      ],
      "name": "OwnershipTransferred",
      "type": "event"
    },
    {
      "inputs": [],
      "name": "owner",
      "outputs": [
        {
          "internalType": "address",
          "name": "",
          "type": "address"
        }
      ],
      "stateMutability": "view",
      "type": "function"
    },
    {
      "inputs": [],
      "name": "renounceOwnership",
      "outputs": [],
      "stateMutability": "nonpayable",
      "type": "function"
    },
    {
      "inputs": [
        {
          "internalType": "address",
          "name": "newOwner",
          "type": "address"
        }
      ],
      "name": "transferOwnership",
      "outputs": [],
      "stateMutability": "nonpayable",
      "type": "function"
    },
    {
      "inputs": [],
      "name": "initialize",
      "outputs": [],
      "stateMutability": "nonpayable",
      "type": "function"
    },
    {
      "inputs": [
        {
          "internalType": "address",
          "name": "_game",
          "type": "address"
        }
      ],
      "name": "addGameRole",
      "outputs": [],
      "stateMutability": "nonpayable",
      "type": "function"
    },
    {
      "inputs": [
        {
          "internalType": "address",
          "name": "_game",
          "type": "address"
        }
      ],
      "name": "removeGameRole",
      "outputs": [],
      "stateMutability": "nonpayable",
      "type": "function"
    }
  ],
  "bytecode": "0x608060405234801561001057600080fd5b50610b03806100206000396000f3fe608060405234801561001057600080fd5b50600436106100625760003560e01c806319892b5114610067578063715018a6146100835780637323b8fa1461008d5780638129fc1c146100a95780638da5cb5b146100b3578063f2fde38b146100d1575b600080fd5b610081600480360381019061007c91906107d6565b6100ed565b005b61008b6101c4565b005b6100a760048036038101906100a291906107d6565b61024c565b005b6100b1610323565b005b6100bb6103b7565b6040516100c89190610812565b60405180910390f35b6100eb60048036038101906100e691906107d6565b6103e1565b005b6100f56104d8565b73ffffffffffffffffffffffffffffffffffffffff166101136103b7565b73ffffffffffffffffffffffffffffffffffffffff1614610169576040517f08c379a00000000000000000000000000000000000000000000000000000000081526004016101609061088a565b60405180910390fd5b6000606560008373ffffffffffffffffffffffffffffffffffffffff1673ffffffffffffffffffffffffffffffffffffffff16815260200190815260200160002060006101000a81548160ff02191690831515021790555050565b6101cc6104d8565b73ffffffffffffffffffffffffffffffffffffffff166101ea6103b7565b73ffffffffffffffffffffffffffffffffffffffff1614610240576040517f08c379a00000000000000000000000000000000000000000000000000000000081526004016102379061088a565b60405180910390fd5b61024a60006104e0565b565b6102546104d8565b73ffffffffffffffffffffffffffffffffffffffff166102726103b7565b73ffffffffffffffffffffffffffffffffffffffff16146102c8576040517f08c379a00000000000000000000000000000000000000000000000000000000081526004016102bf9061088a565b60405180910390fd5b6001606560008373ffffffffffffffffffffffffffffffffffffffff1673ffffffffffffffffffffffffffffffffffffffff16815260200190815260200160002060006101000a81548160ff02191690831515021790555050565b600061032f60016105a6565b90508015610353576001600060016101000a81548160ff0219169083151502179055505b61035b610696565b80156103b45760008060016101000a81548160ff0219169083151502179055507f7f26b83ff96e1f2b6a682f133852f6798a09c465da95921460cefb384740249860016040516103ab91906108fc565b60405180910390a15b50565b6000603360009054906101000a900473ffffffffffffffffffffffffffffffffffffffff16905090565b6103e96104d8565b73ffffffffffffffffffffffffffffffffffffffff166104076103b7565b73ffffffffffffffffffffffffffffffffffffffff161461045d576040517f08c379a00000000000000000000000000000000000000000000000000000000081526004016104549061088a565b60405180910390fd5b600073ffffffffffffffffffffffffffffffffffffffff168173ffffffffffffffffffffffffffffffffffffffff16036104cc576040517f08c379a00000000000000000000000000000000000000000000000000000000081526004016104c390610989565b60405180910390fd5b6104d5816104e0565b50565b600033905090565b6000603360009054906101000a900473ffffffffffffffffffffffffffffffffffffffff16905081603360006101000a81548173ffffffffffffffffffffffffffffffffffffffff021916908373ffffffffffffffffffffffffffffffffffffffff1602179055508173ffffffffffffffffffffffffffffffffffffffff168173ffffffffffffffffffffffffffffffffffffffff167f8be0079c531659141344cd1fd0a4f28419497f9722a3daafe3b4186f6b6457e060405160405180910390a35050565b60008060019054906101000a900460ff161561061d5760018260ff161480156105d557506105d3306106ef565b155b610614576040517f08c379a000000000000000000000000000000000000000000000000000000000815260040161060b90610a1b565b60405180910390fd5b60009050610691565b8160ff1660008054906101000a900460ff1660ff1610610672576040517f08c379a000000000000000000000000000000000000000000000000000000000815260040161066990610a1b565b60405180910390fd5b816000806101000a81548160ff021916908360ff160217905550600190505b919050565b600060019054906101000a900460ff166106e5576040517f08c379a00000000000000000000000000000000000000000000000000000000081526004016106dc90610aad565b60405180910390fd5b6106ed610712565b565b6000808273ffffffffffffffffffffffffffffffffffffffff163b119050919050565b600060019054906101000a900460ff16610761576040517f08c379a000000000000000000000000000000000000000000000000000000000815260040161075890610aad565b60405180910390fd5b61077161076c6104d8565b6104e0565b565b600080fd5b600073ffffffffffffffffffffffffffffffffffffffff82169050919050565b60006107a382610778565b9050919050565b6107b381610798565b81146107be57600080fd5b50565b6000813590506107d0816107aa565b92915050565b6000602082840312156107ec576107eb610773565b5b60006107fa848285016107c1565b91505092915050565b61080c81610798565b82525050565b60006020820190506108276000830184610803565b92915050565b600082825260208201905092915050565b7f4f776e61626c653a2063616c6c6572206973206e6f7420746865206f776e6572600082015250565b600061087460208361082d565b915061087f8261083e565b602082019050919050565b600060208201905081810360008301526108a381610867565b9050919050565b6000819050919050565b600060ff82169050919050565b6000819050919050565b60006108e66108e16108dc846108aa565b6108c1565b6108b4565b9050919050565b6108f6816108cb565b82525050565b600060208201905061091160008301846108ed565b92915050565b7f4f776e61626c653a206e6577206f776e657220697320746865207a65726f206160008201527f6464726573730000000000000000000000000000000000000000000000000000602082015250565b600061097360268361082d565b915061097e82610917565b604082019050919050565b600060208201905081810360008301526109a281610966565b9050919050565b7f496e697469616c697a61626c653a20636f6e747261637420697320616c72656160008201527f647920696e697469616c697a6564000000000000000000000000000000000000602082015250565b6000610a05602e8361082d565b9150610a10826109a9565b604082019050919050565b60006020820190508181036000830152610a34816109f8565b9050919050565b7f496e697469616c697a61626c653a20636f6e7472616374206973206e6f74206960008201527f6e697469616c697a696e67000000000000000000000000000000000000000000602082015250565b6000610a97602b8361082d565b9150610aa282610a3b565b604082019050919050565b60006020820190508181036000830152610ac681610a8a565b905091905056fea2646970667358221220b11621c70ade13659091da9724cfa0df909cc63b0164be32ca5b2dbea91248d564736f6c634300080d0033",
  "immutableReferences": {},
  "source": "// SPDX-License-Identifier: MIT\npragma solidity ^0.8.0;\n\nimport \"@openzeppelin/contracts-upgradeable/access/OwnableUpgradeable.sol\";\n\n\ncontract GameOwnerUpgradeable is OwnableUpgradeable {\n  mapping (address => bool) gameRoles;\n\n  function initialize() virtual public initializer  {\n    OwnableUpgradeable.__Ownable_init();\n  }\n\n  function addGameRole(address _game) public onlyOwner {\n      gameRoles[_game] = true;\n  }\n\n  function removeGameRole(address _game) public onlyOwner {\n      gameRoles[_game] = false;\n  }\n\n  modifier onlyGame {\n    require(gameRoles[_msgSender()] == true, \"Funflower Farm: You are not the game\");\n    _;\n  }\n\n}",
  "sourcePath": "/mnt/c/Users/nfmelendez/crypto/contracts/contracts/GameOwnerUpgradeable.sol",
  "compiler": {
    "name": "solc",
    "version": "0.8.13+commit.abaa5c0e.Emscripten.clang"
  },
  "schemaVersion": "3.4.4",
  "updatedAt": "2022-05-17T13:50:37.665Z",
  "devdoc": {
    "kind": "dev",
    "methods": {
      "owner()": {
        "details": "Returns the address of the current owner."
      },
      "renounceOwnership()": {
        "details": "Leaves the contract without owner. It will not be possible to call `onlyOwner` functions anymore. Can only be called by the current owner. NOTE: Renouncing ownership will leave the contract without an owner, thereby removing any functionality that is only available to the owner."
      },
      "transferOwnership(address)": {
        "details": "Transfers ownership of the contract to a new account (`newOwner`). Can only be called by the current owner."
      }
    },
    "version": 1
  },
  "userdoc": {
    "kind": "user",
    "methods": {},
    "version": 1
  }
}