{
  "contractName": "TestBank",
  "abi": [
    {
      "anonymous": false,
      "inputs": [
        {
          "indexed": false,
          "internalType": "address",
          "name": "previousAdmin",
          "type": "address"
        },
        {
          "indexed": false,
          "internalType": "address",
          "name": "newAdmin",
          "type": "address"
        }
      ],
      "name": "AdminChanged",
      "type": "event"
    },
    {
      "anonymous": false,
      "inputs": [
        {
          "indexed": true,
          "internalType": "address",
          "name": "beacon",
          "type": "address"
        }
      ],
      "name": "BeaconUpgraded",
      "type": "event"
    },
    {
      "anonymous": false,
      "inputs": [
        {
          "indexed": false,
          "internalType": "uint8",
          "name": "version",
          "type": "uint8"
        }
      ],
      "name": "Initialized",
      "type": "event"
    },
    {
      "anonymous": false,
      "inputs": [
        {
          "indexed": true,
          "internalType": "address",
          "name": "previousOwner",
          "type": "address"
        },
        {
          "indexed": true,
          "internalType": "address",
          "name": "newOwner",
          "type": "address"
        }
      ],
      "name": "OwnershipTransferred",
      "type": "event"
    },
    {
      "anonymous": false,
      "inputs": [
        {
          "indexed": true,
          "internalType": "address",
          "name": "implementation",
          "type": "address"
        }
      ],
      "name": "Upgraded",
      "type": "event"
    },
    {
      "inputs": [
        {
          "internalType": "address",
          "name": "_game",
          "type": "address"
        }
      ],
      "name": "addGameRole",
      "outputs": [],
      "stateMutability": "nonpayable",
      "type": "function"
    },
    {
      "inputs": [
        {
          "internalType": "bytes32",
          "name": "",
          "type": "bytes32"
        }
      ],
      "name": "executed",
      "outputs": [
        {
          "internalType": "bool",
          "name": "",
          "type": "bool"
        }
      ],
      "stateMutability": "view",
      "type": "function"
    },
    {
      "inputs": [],
      "name": "owner",
      "outputs": [
        {
          "internalType": "address",
          "name": "",
          "type": "address"
        }
      ],
      "stateMutability": "view",
      "type": "function"
    },
    {
      "inputs": [],
      "name": "proxiableUUID",
      "outputs": [
        {
          "internalType": "bytes32",
          "name": "",
          "type": "bytes32"
        }
      ],
      "stateMutability": "view",
      "type": "function"
    },
    {
      "inputs": [
        {
          "internalType": "address",
          "name": "_game",
          "type": "address"
        }
      ],
      "name": "removeGameRole",
      "outputs": [],
      "stateMutability": "nonpayable",
      "type": "function"
    },
    {
      "inputs": [],
      "name": "renounceOwnership",
      "outputs": [],
      "stateMutability": "nonpayable",
      "type": "function"
    },
    {
      "inputs": [
        {
          "internalType": "address",
          "name": "",
          "type": "address"
        }
      ],
      "name": "sessions",
      "outputs": [
        {
          "internalType": "bytes32",
          "name": "",
          "type": "bytes32"
        }
      ],
      "stateMutability": "view",
      "type": "function"
    },
    {
      "inputs": [
        {
          "internalType": "address",
          "name": "",
          "type": "address"
        }
      ],
      "name": "syncedAt",
      "outputs": [
        {
          "internalType": "uint256",
          "name": "",
          "type": "uint256"
        }
      ],
      "stateMutability": "view",
      "type": "function"
    },
    {
      "inputs": [
        {
          "internalType": "address",
          "name": "newOwner",
          "type": "address"
        }
      ],
      "name": "transferOwnership",
      "outputs": [],
      "stateMutability": "nonpayable",
      "type": "function"
    },
    {
      "inputs": [
        {
          "internalType": "address",
          "name": "newImplementation",
          "type": "address"
        }
      ],
      "name": "upgradeTo",
      "outputs": [],
      "stateMutability": "nonpayable",
      "type": "function"
    },
    {
      "inputs": [
        {
          "internalType": "address",
          "name": "newImplementation",
          "type": "address"
        },
        {
          "internalType": "bytes",
          "name": "data",
          "type": "bytes"
        }
      ],
      "name": "upgradeToAndCall",
      "outputs": [],
      "stateMutability": "payable",
      "type": "function"
    },
    {
      "inputs": [],
      "name": "initialize",
      "outputs": [],
      "stateMutability": "nonpayable",
      "type": "function"
    },
    {
      "inputs": [
        {
          "internalType": "contract FunflowerFarmToken",
          "name": "_fffToken",
          "type": "address"
        },
        {
          "internalType": "contract TestToken",
          "name": "_testToken",
          "type": "address"
        }
      ],
      "name": "setTokens",
      "outputs": [],
      "stateMutability": "nonpayable",
      "type": "function"
    },
    {
      "inputs": [
        {
          "internalType": "uint256",
          "name": "fff",
          "type": "uint256"
        },
        {
          "internalType": "uint256",
          "name": "ttt",
          "type": "uint256"
        }
      ],
      "name": "withdraw",
      "outputs": [
        {
          "internalType": "bool",
          "name": "",
          "type": "bool"
        }
      ],
      "stateMutability": "nonpayable",
      "type": "function"
    }
  ],
  "bytecode": "0x60a06040523073ffffffffffffffffffffffffffffffffffffffff1660809073ffffffffffffffffffffffffffffffffffffffff1681525034801561004357600080fd5b506080516122f761007b6000396000818161041c015281816104aa01528181610718015281816107a6015261086e01526122f76000f3fe6080604052600436106100dd5760003560e01c8063715018a61161007f5780638da5cb5b116100595780638da5cb5b14610289578063a9fcfb33146102b4578063cbc7854e146102f1578063f2fde38b1461031a576100dd565b8063715018a6146102325780637323b8fa146102495780638129fc1c14610272576100dd565b8063441a3e70116100bb578063441a3e70146101715780634f1ef286146101ae578063512a8774146101ca57806352d1902d14610207576100dd565b806319892b51146100e25780633659cfe61461010b578063431a1b9714610134575b600080fd5b3480156100ee57600080fd5b5061010960048036038101906101049190611629565b610343565b005b34801561011757600080fd5b50610132600480360381019061012d9190611629565b61041a565b005b34801561014057600080fd5b5061015b60048036038101906101569190611629565b6105a2565b604051610168919061166f565b60405180910390f35b34801561017d57600080fd5b50610198600480360381019061019391906116c0565b6105ba565b6040516101a5919061171b565b60405180910390f35b6101c860048036038101906101c3919061187c565b610716565b005b3480156101d657600080fd5b506101f160048036038101906101ec9190611629565b610852565b6040516101fe91906118e7565b60405180910390f35b34801561021357600080fd5b5061021c61086a565b604051610229919061166f565b60405180910390f35b34801561023e57600080fd5b50610247610923565b005b34801561025557600080fd5b50610270600480360381019061026b9190611629565b6109ab565b005b34801561027e57600080fd5b50610287610a82565b005b34801561029557600080fd5b5061029e610b6e565b6040516102ab9190611911565b60405180910390f35b3480156102c057600080fd5b506102db60048036038101906102d69190611958565b610b98565b6040516102e8919061171b565b60405180910390f35b3480156102fd57600080fd5b5061031860048036038101906103139190611a01565b610bb8565b005b34801561032657600080fd5b50610341600480360381019061033c9190611629565b610cba565b005b61034b610db1565b73ffffffffffffffffffffffffffffffffffffffff16610369610b6e565b73ffffffffffffffffffffffffffffffffffffffff16146103bf576040517f08c379a00000000000000000000000000000000000000000000000000000000081526004016103b690611a9e565b60405180910390fd5b6000606560008373ffffffffffffffffffffffffffffffffffffffff1673ffffffffffffffffffffffffffffffffffffffff16815260200190815260200160002060006101000a81548160ff02191690831515021790555050565b7f000000000000000000000000000000000000000000000000000000000000000073ffffffffffffffffffffffffffffffffffffffff163073ffffffffffffffffffffffffffffffffffffffff16036104a8576040517f08c379a000000000000000000000000000000000000000000000000000000000815260040161049f90611b30565b60405180910390fd5b7f000000000000000000000000000000000000000000000000000000000000000073ffffffffffffffffffffffffffffffffffffffff166104e7610db9565b73ffffffffffffffffffffffffffffffffffffffff161461053d576040517f08c379a000000000000000000000000000000000000000000000000000000000815260040161053490611bc2565b60405180910390fd5b61054681610e10565b61059f81600067ffffffffffffffff81111561056557610564611751565b5b6040519080825280601f01601f1916602001820160405280156105975781602001600182028036833780820191505090505b506000610e8f565b50565b60cb6020528060005260406000206000915090505481565b600060d060009054906101000a900473ffffffffffffffffffffffffffffffffffffffff1673ffffffffffffffffffffffffffffffffffffffff16634eb90299610602610db1565b856040518363ffffffff1660e01b8152600401610620929190611be2565b6020604051808303816000875af115801561063f573d6000803e3d6000fd5b505050506040513d601f19601f820116820180604052508101906106639190611c37565b5060d160009054906101000a900473ffffffffffffffffffffffffffffffffffffffff1673ffffffffffffffffffffffffffffffffffffffff16634eb902996106aa610db1565b846040518363ffffffff1660e01b81526004016106c8929190611be2565b6020604051808303816000875af11580156106e7573d6000803e3d6000fd5b505050506040513d601f19601f8201168201806040525081019061070b9190611c37565b506001905092915050565b7f000000000000000000000000000000000000000000000000000000000000000073ffffffffffffffffffffffffffffffffffffffff163073ffffffffffffffffffffffffffffffffffffffff16036107a4576040517f08c379a000000000000000000000000000000000000000000000000000000000815260040161079b90611b30565b60405180910390fd5b7f000000000000000000000000000000000000000000000000000000000000000073ffffffffffffffffffffffffffffffffffffffff166107e3610db9565b73ffffffffffffffffffffffffffffffffffffffff1614610839576040517f08c379a000000000000000000000000000000000000000000000000000000000815260040161083090611bc2565b60405180910390fd5b61084282610e10565b61084e82826001610e8f565b5050565b60cc6020528060005260406000206000915090505481565b60007f000000000000000000000000000000000000000000000000000000000000000073ffffffffffffffffffffffffffffffffffffffff163073ffffffffffffffffffffffffffffffffffffffff16146108fa576040517f08c379a00000000000000000000000000000000000000000000000000000000081526004016108f190611cd6565b60405180910390fd5b7f360894a13ba1a3210667c828492db98dca3e2076cc3735a920a3ca505d382bbc60001b905090565b61092b610db1565b73ffffffffffffffffffffffffffffffffffffffff16610949610b6e565b73ffffffffffffffffffffffffffffffffffffffff161461099f576040517f08c379a000000000000000000000000000000000000000000000000000000000815260040161099690611a9e565b60405180910390fd5b6109a96000610ffd565b565b6109b3610db1565b73ffffffffffffffffffffffffffffffffffffffff166109d1610b6e565b73ffffffffffffffffffffffffffffffffffffffff1614610a27576040517f08c379a0000000000000000000000000000000000000000000000000000000008152600401610a1e90611a9e565b60405180910390fd5b6001606560008373ffffffffffffffffffffffffffffffffffffffff1673ffffffffffffffffffffffffffffffffffffffff16815260200190815260200160002060006101000a81548160ff02191690831515021790555050565b6000610a8e60016110c3565b90508015610ab2576001600060016101000a81548160ff0219169083151502179055505b610aba6111b3565b6001606560003373ffffffffffffffffffffffffffffffffffffffff1673ffffffffffffffffffffffffffffffffffffffff16815260200190815260200160002060006101000a81548160ff0219169083151502179055508015610b6b5760008060016101000a81548160ff0219169083151502179055507f7f26b83ff96e1f2b6a682f133852f6798a09c465da95921460cefb38474024986001604051610b629190611d48565b60405180910390a15b50565b6000603360009054906101000a900473ffffffffffffffffffffffffffffffffffffffff16905090565b60ca6020528060005260406000206000915054906101000a900460ff1681565b610bc0610db1565b73ffffffffffffffffffffffffffffffffffffffff16610bde610b6e565b73ffffffffffffffffffffffffffffffffffffffff1614610c34576040517f08c379a0000000000000000000000000000000000000000000000000000000008152600401610c2b90611a9e565b60405180910390fd5b8160d060006101000a81548173ffffffffffffffffffffffffffffffffffffffff021916908373ffffffffffffffffffffffffffffffffffffffff1602179055508060d160006101000a81548173ffffffffffffffffffffffffffffffffffffffff021916908373ffffffffffffffffffffffffffffffffffffffff1602179055505050565b610cc2610db1565b73ffffffffffffffffffffffffffffffffffffffff16610ce0610b6e565b73ffffffffffffffffffffffffffffffffffffffff1614610d36576040517f08c379a0000000000000000000000000000000000000000000000000000000008152600401610d2d90611a9e565b60405180910390fd5b600073ffffffffffffffffffffffffffffffffffffffff168173ffffffffffffffffffffffffffffffffffffffff1603610da5576040517f08c379a0000000000000000000000000000000000000000000000000000000008152600401610d9c90611dd5565b60405180910390fd5b610dae81610ffd565b50565b600033905090565b6000610de77f360894a13ba1a3210667c828492db98dca3e2076cc3735a920a3ca505d382bbc60001b611247565b60000160009054906101000a900473ffffffffffffffffffffffffffffffffffffffff16905090565b610e18610db1565b73ffffffffffffffffffffffffffffffffffffffff16610e36610b6e565b73ffffffffffffffffffffffffffffffffffffffff1614610e8c576040517f08c379a0000000000000000000000000000000000000000000000000000000008152600401610e8390611a9e565b60405180910390fd5b50565b610ebb7f4910fdfa16fed3260ed0e7147f7cc6da11a60208b5b9406d12a635614ffd914360001b611251565b60000160009054906101000a900460ff1615610edf57610eda8361125b565b610ff8565b8273ffffffffffffffffffffffffffffffffffffffff166352d1902d6040518163ffffffff1660e01b8152600401602060405180830381865afa925050508015610f4757506040513d601f19601f82011682018060405250810190610f449190611e0a565b60015b610f86576040517f08c379a0000000000000000000000000000000000000000000000000000000008152600401610f7d90611ea9565b60405180910390fd5b7f360894a13ba1a3210667c828492db98dca3e2076cc3735a920a3ca505d382bbc60001b8114610feb576040517f08c379a0000000000000000000000000000000000000000000000000000000008152600401610fe290611f3b565b60405180910390fd5b50610ff7838383611314565b5b505050565b6000603360009054906101000a900473ffffffffffffffffffffffffffffffffffffffff16905081603360006101000a81548173ffffffffffffffffffffffffffffffffffffffff021916908373ffffffffffffffffffffffffffffffffffffffff1602179055508173ffffffffffffffffffffffffffffffffffffffff168173ffffffffffffffffffffffffffffffffffffffff167f8be0079c531659141344cd1fd0a4f28419497f9722a3daafe3b4186f6b6457e060405160405180910390a35050565b60008060019054906101000a900460ff161561113a5760018260ff161480156110f257506110f030611340565b155b611131576040517f08c379a000000000000000000000000000000000000000000000000000000000815260040161112890611fcd565b60405180910390fd5b600090506111ae565b8160ff1660008054906101000a900460ff1660ff161061118f576040517f08c379a000000000000000000000000000000000000000000000000000000000815260040161118690611fcd565b60405180910390fd5b816000806101000a81548160ff021916908360ff160217905550600190505b919050565b60006111bf60016110c3565b905080156111e3576001600060016101000a81548160ff0219169083151502179055505b6111eb611363565b80156112445760008060016101000a81548160ff0219169083151502179055507f7f26b83ff96e1f2b6a682f133852f6798a09c465da95921460cefb3847402498600160405161123b9190611d48565b60405180910390a15b50565b6000819050919050565b6000819050919050565b61126481611340565b6112a3576040517f08c379a000000000000000000000000000000000000000000000000000000000815260040161129a9061205f565b60405180910390fd5b806112d07f360894a13ba1a3210667c828492db98dca3e2076cc3735a920a3ca505d382bbc60001b611247565b60000160006101000a81548173ffffffffffffffffffffffffffffffffffffffff021916908373ffffffffffffffffffffffffffffffffffffffff16021790555050565b61131d836113bc565b60008251118061132a5750805b1561133b57611339838361140b565b505b505050565b6000808273ffffffffffffffffffffffffffffffffffffffff163b119050919050565b600060019054906101000a900460ff166113b2576040517f08c379a00000000000000000000000000000000000000000000000000000000081526004016113a9906120f1565b60405180910390fd5b6113ba6114ef565b565b6113c58161125b565b8073ffffffffffffffffffffffffffffffffffffffff167fbc7cd75a20ee27fd9adebab32041f755214dbc6bffa90cc0225b39da2e5c2d3b60405160405180910390a250565b606061141683611340565b611455576040517f08c379a000000000000000000000000000000000000000000000000000000000815260040161144c90612183565b60405180910390fd5b6000808473ffffffffffffffffffffffffffffffffffffffff168460405161147d919061221d565b600060405180830381855af49150503d80600081146114b8576040519150601f19603f3d011682016040523d82523d6000602084013e6114bd565b606091505b50915091506114e5828260405180606001604052806027815260200161229b60279139611550565b9250505092915050565b600060019054906101000a900460ff1661153e576040517f08c379a0000000000000000000000000000000000000000000000000000000008152600401611535906120f1565b60405180910390fd5b61154e611549610db1565b610ffd565b565b60608315611560578290506115b0565b6000835111156115735782518084602001fd5b816040517f08c379a00000000000000000000000000000000000000000000000000000000081526004016115a79190612278565b60405180910390fd5b9392505050565b6000604051905090565b600080fd5b600080fd5b600073ffffffffffffffffffffffffffffffffffffffff82169050919050565b60006115f6826115cb565b9050919050565b611606816115eb565b811461161157600080fd5b50565b600081359050611623816115fd565b92915050565b60006020828403121561163f5761163e6115c1565b5b600061164d84828501611614565b91505092915050565b6000819050919050565b61166981611656565b82525050565b60006020820190506116846000830184611660565b92915050565b6000819050919050565b61169d8161168a565b81146116a857600080fd5b50565b6000813590506116ba81611694565b92915050565b600080604083850312156116d7576116d66115c1565b5b60006116e5858286016116ab565b92505060206116f6858286016116ab565b9150509250929050565b60008115159050919050565b61171581611700565b82525050565b6000602082019050611730600083018461170c565b92915050565b600080fd5b600080fd5b6000601f19601f8301169050919050565b7f4e487b7100000000000000000000000000000000000000000000000000000000600052604160045260246000fd5b61178982611740565b810181811067ffffffffffffffff821117156117a8576117a7611751565b5b80604052505050565b60006117bb6115b7565b90506117c78282611780565b919050565b600067ffffffffffffffff8211156117e7576117e6611751565b5b6117f082611740565b9050602081019050919050565b82818337600083830152505050565b600061181f61181a846117cc565b6117b1565b90508281526020810184848401111561183b5761183a61173b565b5b6118468482856117fd565b509392505050565b600082601f83011261186357611862611736565b5b813561187384826020860161180c565b91505092915050565b60008060408385031215611893576118926115c1565b5b60006118a185828601611614565b925050602083013567ffffffffffffffff8111156118c2576118c16115c6565b5b6118ce8582860161184e565b9150509250929050565b6118e18161168a565b82525050565b60006020820190506118fc60008301846118d8565b92915050565b61190b816115eb565b82525050565b60006020820190506119266000830184611902565b92915050565b61193581611656565b811461194057600080fd5b50565b6000813590506119528161192c565b92915050565b60006020828403121561196e5761196d6115c1565b5b600061197c84828501611943565b91505092915050565b6000611990826115eb565b9050919050565b6119a081611985565b81146119ab57600080fd5b50565b6000813590506119bd81611997565b92915050565b60006119ce826115eb565b9050919050565b6119de816119c3565b81146119e957600080fd5b50565b6000813590506119fb816119d5565b92915050565b60008060408385031215611a1857611a176115c1565b5b6000611a26858286016119ae565b9250506020611a37858286016119ec565b9150509250929050565b600082825260208201905092915050565b7f4f776e61626c653a2063616c6c6572206973206e6f7420746865206f776e6572600082015250565b6000611a88602083611a41565b9150611a9382611a52565b602082019050919050565b60006020820190508181036000830152611ab781611a7b565b9050919050565b7f46756e6374696f6e206d7573742062652063616c6c6564207468726f7567682060008201527f64656c656761746563616c6c0000000000000000000000000000000000000000602082015250565b6000611b1a602c83611a41565b9150611b2582611abe565b604082019050919050565b60006020820190508181036000830152611b4981611b0d565b9050919050565b7f46756e6374696f6e206d7573742062652063616c6c6564207468726f7567682060008201527f6163746976652070726f78790000000000000000000000000000000000000000602082015250565b6000611bac602c83611a41565b9150611bb782611b50565b604082019050919050565b60006020820190508181036000830152611bdb81611b9f565b9050919050565b6000604082019050611bf76000830185611902565b611c0460208301846118d8565b9392505050565b611c1481611700565b8114611c1f57600080fd5b50565b600081519050611c3181611c0b565b92915050565b600060208284031215611c4d57611c4c6115c1565b5b6000611c5b84828501611c22565b91505092915050565b7f555550535570677261646561626c653a206d757374206e6f742062652063616c60008201527f6c6564207468726f7567682064656c656761746563616c6c0000000000000000602082015250565b6000611cc0603883611a41565b9150611ccb82611c64565b604082019050919050565b60006020820190508181036000830152611cef81611cb3565b9050919050565b6000819050919050565b600060ff82169050919050565b6000819050919050565b6000611d32611d2d611d2884611cf6565b611d0d565b611d00565b9050919050565b611d4281611d17565b82525050565b6000602082019050611d5d6000830184611d39565b92915050565b7f4f776e61626c653a206e6577206f776e657220697320746865207a65726f206160008201527f6464726573730000000000000000000000000000000000000000000000000000602082015250565b6000611dbf602683611a41565b9150611dca82611d63565b604082019050919050565b60006020820190508181036000830152611dee81611db2565b9050919050565b600081519050611e048161192c565b92915050565b600060208284031215611e2057611e1f6115c1565b5b6000611e2e84828501611df5565b91505092915050565b7f45524331393637557067726164653a206e657720696d706c656d656e7461746960008201527f6f6e206973206e6f742055555053000000000000000000000000000000000000602082015250565b6000611e93602e83611a41565b9150611e9e82611e37565b604082019050919050565b60006020820190508181036000830152611ec281611e86565b9050919050565b7f45524331393637557067726164653a20756e737570706f727465642070726f7860008201527f6961626c65555549440000000000000000000000000000000000000000000000602082015250565b6000611f25602983611a41565b9150611f3082611ec9565b604082019050919050565b60006020820190508181036000830152611f5481611f18565b9050919050565b7f496e697469616c697a61626c653a20636f6e747261637420697320616c72656160008201527f647920696e697469616c697a6564000000000000000000000000000000000000602082015250565b6000611fb7602e83611a41565b9150611fc282611f5b565b604082019050919050565b60006020820190508181036000830152611fe681611faa565b9050919050565b7f455243313936373a206e657720696d706c656d656e746174696f6e206973206e60008201527f6f74206120636f6e747261637400000000000000000000000000000000000000602082015250565b6000612049602d83611a41565b915061205482611fed565b604082019050919050565b600060208201905081810360008301526120788161203c565b9050919050565b7f496e697469616c697a61626c653a20636f6e7472616374206973206e6f74206960008201527f6e697469616c697a696e67000000000000000000000000000000000000000000602082015250565b60006120db602b83611a41565b91506120e68261207f565b604082019050919050565b6000602082019050818103600083015261210a816120ce565b9050919050565b7f416464726573733a2064656c65676174652063616c6c20746f206e6f6e2d636f60008201527f6e74726163740000000000000000000000000000000000000000000000000000602082015250565b600061216d602683611a41565b915061217882612111565b604082019050919050565b6000602082019050818103600083015261219c81612160565b9050919050565b600081519050919050565b600081905092915050565b60005b838110156121d75780820151818401526020810190506121bc565b838111156121e6576000848401525b50505050565b60006121f7826121a3565b61220181856121ae565b93506122118185602086016121b9565b80840191505092915050565b600061222982846121ec565b915081905092915050565b600081519050919050565b600061224a82612234565b6122548185611a41565b93506122648185602086016121b9565b61226d81611740565b840191505092915050565b60006020820190508181036000830152612292818461223f565b90509291505056fe416464726573733a206c6f772d6c6576656c2064656c65676174652063616c6c206661696c6564a2646970667358221220139a467030bbd5e76e6fa5d3b0d8bbd20dd131c966fb12cf58d7e857e741687b64736f6c634300080e0033",
  "immutableReferences": {
    "685": [
      {
        "length": 32,
        "start": 1052
      },
      {
        "length": 32,
        "start": 1194
      },
      {
        "length": 32,
        "start": 1816
      },
      {
        "length": 32,
        "start": 1958
      },
      {
        "length": 32,
        "start": 2158
      }
    ]
  },
  "source": "   \n// SPDX-License-Identifier: MIT\npragma solidity ^0.8.0;\n\nimport \"@openzeppelin/contracts-upgradeable/proxy/utils/UUPSUpgradeable.sol\";\n\nimport \"./GameOwnerUpgradeable.sol\";\nimport \"./FFFToken.sol\";\nimport \"./TestToken.sol\";\n\n\ncontract TestBank is GameOwnerUpgradeable, UUPSUpgradeable {\n\n    mapping(bytes32 => bool) public executed;\n\n    // Farm ID to saved timestamp\n    mapping(address => bytes32) public sessions;\n    mapping(address => uint) public syncedAt;\n\n    uint private withdrawFee;\n    address private withdrawFeeWallet;\n    address private signer;\n\n    FunflowerFarmToken private fffToken;\n    TestToken private testToken;\n\n    function initialize() public override initializer {\n        GameOwnerUpgradeable.initialize();\n        gameRoles[msg.sender] = true;\n    }\n\n    function setTokens(FunflowerFarmToken _fffToken, TestToken _testToken) public onlyOwner {\n        fffToken = _fffToken;\n        testToken = _testToken;\n    }\n\n    function _authorizeUpgrade(address) internal override onlyOwner {}\n\n    function withdraw(uint256 fff, uint256 ttt) public returns (bool) {\n        fffToken.gameMint(_msgSender(), fff);\n        testToken.gameMint(_msgSender(), ttt);\n        return true;\n    }\n\n}",
  "sourcePath": "/mnt/c/Users/nfmelendez/crypto/contracts/contracts/TestBank.sol",
  "compiler": {
    "name": "solc",
    "version": "0.8.14+commit.80d49f37.Emscripten.clang"
  },
  "schemaVersion": "3.4.4",
  "updatedAt": "2022-06-06T19:41:27.792Z",
  "devdoc": {
    "kind": "dev",
    "methods": {
      "owner()": {
        "details": "Returns the address of the current owner."
      },
      "proxiableUUID()": {
        "details": "Implementation of the ERC1822 {proxiableUUID} function. This returns the storage slot used by the implementation. It is used to validate that the this implementation remains valid after an upgrade. IMPORTANT: A proxy pointing at a proxiable contract should not be considered proxiable itself, because this risks bricking a proxy that upgrades to it, by delegating to itself until out of gas. Thus it is critical that this function revert if invoked through a proxy. This is guaranteed by the `notDelegated` modifier."
      },
      "renounceOwnership()": {
        "details": "Leaves the contract without owner. It will not be possible to call `onlyOwner` functions anymore. Can only be called by the current owner. NOTE: Renouncing ownership will leave the contract without an owner, thereby removing any functionality that is only available to the owner."
      },
      "transferOwnership(address)": {
        "details": "Transfers ownership of the contract to a new account (`newOwner`). Can only be called by the current owner."
      },
      "upgradeTo(address)": {
        "details": "Upgrade the implementation of the proxy to `newImplementation`. Calls {_authorizeUpgrade}. Emits an {Upgraded} event."
      },
      "upgradeToAndCall(address,bytes)": {
        "details": "Upgrade the implementation of the proxy to `newImplementation`, and subsequently execute the function call encoded in `data`. Calls {_authorizeUpgrade}. Emits an {Upgraded} event."
      }
    },
    "version": 1
  },
  "userdoc": {
    "kind": "user",
    "methods": {},
    "version": 1
  }
}