{
  "contractName": "TestBank",
  "abi": [
    {
      "anonymous": false,
      "inputs": [
        {
          "indexed": false,
          "internalType": "address",
          "name": "previousAdmin",
          "type": "address"
        },
        {
          "indexed": false,
          "internalType": "address",
          "name": "newAdmin",
          "type": "address"
        }
      ],
      "name": "AdminChanged",
      "type": "event"
    },
    {
      "anonymous": false,
      "inputs": [
        {
          "indexed": true,
          "internalType": "address",
          "name": "beacon",
          "type": "address"
        }
      ],
      "name": "BeaconUpgraded",
      "type": "event"
    },
    {
      "anonymous": false,
      "inputs": [
        {
          "indexed": false,
          "internalType": "uint8",
          "name": "version",
          "type": "uint8"
        }
      ],
      "name": "Initialized",
      "type": "event"
    },
    {
      "anonymous": false,
      "inputs": [
        {
          "indexed": true,
          "internalType": "address",
          "name": "previousOwner",
          "type": "address"
        },
        {
          "indexed": true,
          "internalType": "address",
          "name": "newOwner",
          "type": "address"
        }
      ],
      "name": "OwnershipTransferred",
      "type": "event"
    },
    {
      "anonymous": false,
      "inputs": [
        {
          "indexed": true,
          "internalType": "address",
          "name": "implementation",
          "type": "address"
        }
      ],
      "name": "Upgraded",
      "type": "event"
    },
    {
      "inputs": [
        {
          "internalType": "address",
          "name": "_game",
          "type": "address"
        }
      ],
      "name": "addGameRole",
      "outputs": [],
      "stateMutability": "nonpayable",
      "type": "function"
    },
    {
      "inputs": [],
      "name": "owner",
      "outputs": [
        {
          "internalType": "address",
          "name": "",
          "type": "address"
        }
      ],
      "stateMutability": "view",
      "type": "function"
    },
    {
      "inputs": [],
      "name": "proxiableUUID",
      "outputs": [
        {
          "internalType": "bytes32",
          "name": "",
          "type": "bytes32"
        }
      ],
      "stateMutability": "view",
      "type": "function"
    },
    {
      "inputs": [
        {
          "internalType": "address",
          "name": "_game",
          "type": "address"
        }
      ],
      "name": "removeGameRole",
      "outputs": [],
      "stateMutability": "nonpayable",
      "type": "function"
    },
    {
      "inputs": [],
      "name": "renounceOwnership",
      "outputs": [],
      "stateMutability": "nonpayable",
      "type": "function"
    },
    {
      "inputs": [
        {
          "internalType": "address",
          "name": "newOwner",
          "type": "address"
        }
      ],
      "name": "transferOwnership",
      "outputs": [],
      "stateMutability": "nonpayable",
      "type": "function"
    },
    {
      "inputs": [
        {
          "internalType": "address",
          "name": "newImplementation",
          "type": "address"
        }
      ],
      "name": "upgradeTo",
      "outputs": [],
      "stateMutability": "nonpayable",
      "type": "function"
    },
    {
      "inputs": [
        {
          "internalType": "address",
          "name": "newImplementation",
          "type": "address"
        },
        {
          "internalType": "bytes",
          "name": "data",
          "type": "bytes"
        }
      ],
      "name": "upgradeToAndCall",
      "outputs": [],
      "stateMutability": "payable",
      "type": "function"
    },
    {
      "inputs": [],
      "name": "initialize",
      "outputs": [],
      "stateMutability": "nonpayable",
      "type": "function"
    },
    {
      "inputs": [
        {
          "internalType": "contract FunflowerFarmToken",
          "name": "_fffToken",
          "type": "address"
        },
        {
          "internalType": "contract TestToken",
          "name": "_testToken",
          "type": "address"
        }
      ],
      "name": "setTokens",
      "outputs": [],
      "stateMutability": "nonpayable",
      "type": "function"
    },
    {
      "inputs": [
        {
          "internalType": "uint256",
          "name": "fff",
          "type": "uint256"
        },
        {
          "internalType": "uint256",
          "name": "ttt",
          "type": "uint256"
        }
      ],
      "name": "withdraw",
      "outputs": [
        {
          "internalType": "bool",
          "name": "",
          "type": "bool"
        }
      ],
      "stateMutability": "nonpayable",
      "type": "function"
    }
  ],
  "bytecode": "0x60a06040523073ffffffffffffffffffffffffffffffffffffffff1660809073ffffffffffffffffffffffffffffffffffffffff1681525034801561004357600080fd5b5060805161215261007b60003960008181610324015281816103b20152818161060801528181610696015261074601526121526000f3fe60806040526004361061009c5760003560e01c8063715018a611610064578063715018a6146101775780637323b8fa1461018e5780638129fc1c146101b75780638da5cb5b146101ce578063cbc7854e146101f9578063f2fde38b146102225761009c565b806319892b51146100a15780633659cfe6146100ca578063441a3e70146100f35780634f1ef2861461013057806352d1902d1461014c575b600080fd5b3480156100ad57600080fd5b506100c860048036038101906100c391906114e1565b61024b565b005b3480156100d657600080fd5b506100f160048036038101906100ec91906114e1565b610322565b005b3480156100ff57600080fd5b5061011a60048036038101906101159190611544565b6104aa565b604051610127919061159f565b60405180910390f35b61014a60048036038101906101459190611700565b610606565b005b34801561015857600080fd5b50610161610742565b60405161016e9190611775565b60405180910390f35b34801561018357600080fd5b5061018c6107fb565b005b34801561019a57600080fd5b506101b560048036038101906101b091906114e1565b610883565b005b3480156101c357600080fd5b506101cc61095a565b005b3480156101da57600080fd5b506101e3610a46565b6040516101f0919061179f565b60405180910390f35b34801561020557600080fd5b50610220600480360381019061021b9190611836565b610a70565b005b34801561022e57600080fd5b50610249600480360381019061024491906114e1565b610b72565b005b610253610c69565b73ffffffffffffffffffffffffffffffffffffffff16610271610a46565b73ffffffffffffffffffffffffffffffffffffffff16146102c7576040517f08c379a00000000000000000000000000000000000000000000000000000000081526004016102be906118d3565b60405180910390fd5b6000606560008373ffffffffffffffffffffffffffffffffffffffff1673ffffffffffffffffffffffffffffffffffffffff16815260200190815260200160002060006101000a81548160ff02191690831515021790555050565b7f000000000000000000000000000000000000000000000000000000000000000073ffffffffffffffffffffffffffffffffffffffff163073ffffffffffffffffffffffffffffffffffffffff16036103b0576040517f08c379a00000000000000000000000000000000000000000000000000000000081526004016103a790611965565b60405180910390fd5b7f000000000000000000000000000000000000000000000000000000000000000073ffffffffffffffffffffffffffffffffffffffff166103ef610c71565b73ffffffffffffffffffffffffffffffffffffffff1614610445576040517f08c379a000000000000000000000000000000000000000000000000000000000815260040161043c906119f7565b60405180910390fd5b61044e81610cc8565b6104a781600067ffffffffffffffff81111561046d5761046c6115d5565b5b6040519080825280601f01601f19166020018201604052801561049f5781602001600182028036833780820191505090505b506000610d47565b50565b600060ca60009054906101000a900473ffffffffffffffffffffffffffffffffffffffff1673ffffffffffffffffffffffffffffffffffffffff16634eb902996104f2610c69565b856040518363ffffffff1660e01b8152600401610510929190611a26565b6020604051808303816000875af115801561052f573d6000803e3d6000fd5b505050506040513d601f19601f820116820180604052508101906105539190611a7b565b5060cb60009054906101000a900473ffffffffffffffffffffffffffffffffffffffff1673ffffffffffffffffffffffffffffffffffffffff16634eb9029961059a610c69565b846040518363ffffffff1660e01b81526004016105b8929190611a26565b6020604051808303816000875af11580156105d7573d6000803e3d6000fd5b505050506040513d601f19601f820116820180604052508101906105fb9190611a7b565b506001905092915050565b7f000000000000000000000000000000000000000000000000000000000000000073ffffffffffffffffffffffffffffffffffffffff163073ffffffffffffffffffffffffffffffffffffffff1603610694576040517f08c379a000000000000000000000000000000000000000000000000000000000815260040161068b90611965565b60405180910390fd5b7f000000000000000000000000000000000000000000000000000000000000000073ffffffffffffffffffffffffffffffffffffffff166106d3610c71565b73ffffffffffffffffffffffffffffffffffffffff1614610729576040517f08c379a0000000000000000000000000000000000000000000000000000000008152600401610720906119f7565b60405180910390fd5b61073282610cc8565b61073e82826001610d47565b5050565b60007f000000000000000000000000000000000000000000000000000000000000000073ffffffffffffffffffffffffffffffffffffffff163073ffffffffffffffffffffffffffffffffffffffff16146107d2576040517f08c379a00000000000000000000000000000000000000000000000000000000081526004016107c990611b1a565b60405180910390fd5b7f360894a13ba1a3210667c828492db98dca3e2076cc3735a920a3ca505d382bbc60001b905090565b610803610c69565b73ffffffffffffffffffffffffffffffffffffffff16610821610a46565b73ffffffffffffffffffffffffffffffffffffffff1614610877576040517f08c379a000000000000000000000000000000000000000000000000000000000815260040161086e906118d3565b60405180910390fd5b6108816000610eb5565b565b61088b610c69565b73ffffffffffffffffffffffffffffffffffffffff166108a9610a46565b73ffffffffffffffffffffffffffffffffffffffff16146108ff576040517f08c379a00000000000000000000000000000000000000000000000000000000081526004016108f6906118d3565b60405180910390fd5b6001606560008373ffffffffffffffffffffffffffffffffffffffff1673ffffffffffffffffffffffffffffffffffffffff16815260200190815260200160002060006101000a81548160ff02191690831515021790555050565b60006109666001610f7b565b9050801561098a576001600060016101000a81548160ff0219169083151502179055505b61099261106b565b6001606560003373ffffffffffffffffffffffffffffffffffffffff1673ffffffffffffffffffffffffffffffffffffffff16815260200190815260200160002060006101000a81548160ff0219169083151502179055508015610a435760008060016101000a81548160ff0219169083151502179055507f7f26b83ff96e1f2b6a682f133852f6798a09c465da95921460cefb38474024986001604051610a3a9190611b8c565b60405180910390a15b50565b6000603360009054906101000a900473ffffffffffffffffffffffffffffffffffffffff16905090565b610a78610c69565b73ffffffffffffffffffffffffffffffffffffffff16610a96610a46565b73ffffffffffffffffffffffffffffffffffffffff1614610aec576040517f08c379a0000000000000000000000000000000000000000000000000000000008152600401610ae3906118d3565b60405180910390fd5b8160ca60006101000a81548173ffffffffffffffffffffffffffffffffffffffff021916908373ffffffffffffffffffffffffffffffffffffffff1602179055508060cb60006101000a81548173ffffffffffffffffffffffffffffffffffffffff021916908373ffffffffffffffffffffffffffffffffffffffff1602179055505050565b610b7a610c69565b73ffffffffffffffffffffffffffffffffffffffff16610b98610a46565b73ffffffffffffffffffffffffffffffffffffffff1614610bee576040517f08c379a0000000000000000000000000000000000000000000000000000000008152600401610be5906118d3565b60405180910390fd5b600073ffffffffffffffffffffffffffffffffffffffff168173ffffffffffffffffffffffffffffffffffffffff1603610c5d576040517f08c379a0000000000000000000000000000000000000000000000000000000008152600401610c5490611c19565b60405180910390fd5b610c6681610eb5565b50565b600033905090565b6000610c9f7f360894a13ba1a3210667c828492db98dca3e2076cc3735a920a3ca505d382bbc60001b6110ff565b60000160009054906101000a900473ffffffffffffffffffffffffffffffffffffffff16905090565b610cd0610c69565b73ffffffffffffffffffffffffffffffffffffffff16610cee610a46565b73ffffffffffffffffffffffffffffffffffffffff1614610d44576040517f08c379a0000000000000000000000000000000000000000000000000000000008152600401610d3b906118d3565b60405180910390fd5b50565b610d737f4910fdfa16fed3260ed0e7147f7cc6da11a60208b5b9406d12a635614ffd914360001b611109565b60000160009054906101000a900460ff1615610d9757610d9283611113565b610eb0565b8273ffffffffffffffffffffffffffffffffffffffff166352d1902d6040518163ffffffff1660e01b8152600401602060405180830381865afa925050508015610dff57506040513d601f19601f82011682018060405250810190610dfc9190611c65565b60015b610e3e576040517f08c379a0000000000000000000000000000000000000000000000000000000008152600401610e3590611d04565b60405180910390fd5b7f360894a13ba1a3210667c828492db98dca3e2076cc3735a920a3ca505d382bbc60001b8114610ea3576040517f08c379a0000000000000000000000000000000000000000000000000000000008152600401610e9a90611d96565b60405180910390fd5b50610eaf8383836111cc565b5b505050565b6000603360009054906101000a900473ffffffffffffffffffffffffffffffffffffffff16905081603360006101000a81548173ffffffffffffffffffffffffffffffffffffffff021916908373ffffffffffffffffffffffffffffffffffffffff1602179055508173ffffffffffffffffffffffffffffffffffffffff168173ffffffffffffffffffffffffffffffffffffffff167f8be0079c531659141344cd1fd0a4f28419497f9722a3daafe3b4186f6b6457e060405160405180910390a35050565b60008060019054906101000a900460ff1615610ff25760018260ff16148015610faa5750610fa8306111f8565b155b610fe9576040517f08c379a0000000000000000000000000000000000000000000000000000000008152600401610fe090611e28565b60405180910390fd5b60009050611066565b8160ff1660008054906101000a900460ff1660ff1610611047576040517f08c379a000000000000000000000000000000000000000000000000000000000815260040161103e90611e28565b60405180910390fd5b816000806101000a81548160ff021916908360ff160217905550600190505b919050565b60006110776001610f7b565b9050801561109b576001600060016101000a81548160ff0219169083151502179055505b6110a361121b565b80156110fc5760008060016101000a81548160ff0219169083151502179055507f7f26b83ff96e1f2b6a682f133852f6798a09c465da95921460cefb384740249860016040516110f39190611b8c565b60405180910390a15b50565b6000819050919050565b6000819050919050565b61111c816111f8565b61115b576040517f08c379a000000000000000000000000000000000000000000000000000000000815260040161115290611eba565b60405180910390fd5b806111887f360894a13ba1a3210667c828492db98dca3e2076cc3735a920a3ca505d382bbc60001b6110ff565b60000160006101000a81548173ffffffffffffffffffffffffffffffffffffffff021916908373ffffffffffffffffffffffffffffffffffffffff16021790555050565b6111d583611274565b6000825111806111e25750805b156111f3576111f183836112c3565b505b505050565b6000808273ffffffffffffffffffffffffffffffffffffffff163b119050919050565b600060019054906101000a900460ff1661126a576040517f08c379a000000000000000000000000000000000000000000000000000000000815260040161126190611f4c565b60405180910390fd5b6112726113a7565b565b61127d81611113565b8073ffffffffffffffffffffffffffffffffffffffff167fbc7cd75a20ee27fd9adebab32041f755214dbc6bffa90cc0225b39da2e5c2d3b60405160405180910390a250565b60606112ce836111f8565b61130d576040517f08c379a000000000000000000000000000000000000000000000000000000000815260040161130490611fde565b60405180910390fd5b6000808473ffffffffffffffffffffffffffffffffffffffff16846040516113359190612078565b600060405180830381855af49150503d8060008114611370576040519150601f19603f3d011682016040523d82523d6000602084013e611375565b606091505b509150915061139d82826040518060600160405280602781526020016120f660279139611408565b9250505092915050565b600060019054906101000a900460ff166113f6576040517f08c379a00000000000000000000000000000000000000000000000000000000081526004016113ed90611f4c565b60405180910390fd5b611406611401610c69565b610eb5565b565b6060831561141857829050611468565b60008351111561142b5782518084602001fd5b816040517f08c379a000000000000000000000000000000000000000000000000000000000815260040161145f91906120d3565b60405180910390fd5b9392505050565b6000604051905090565b600080fd5b600080fd5b600073ffffffffffffffffffffffffffffffffffffffff82169050919050565b60006114ae82611483565b9050919050565b6114be816114a3565b81146114c957600080fd5b50565b6000813590506114db816114b5565b92915050565b6000602082840312156114f7576114f6611479565b5b6000611505848285016114cc565b91505092915050565b6000819050919050565b6115218161150e565b811461152c57600080fd5b50565b60008135905061153e81611518565b92915050565b6000806040838503121561155b5761155a611479565b5b60006115698582860161152f565b925050602061157a8582860161152f565b9150509250929050565b60008115159050919050565b61159981611584565b82525050565b60006020820190506115b46000830184611590565b92915050565b600080fd5b600080fd5b6000601f19601f8301169050919050565b7f4e487b7100000000000000000000000000000000000000000000000000000000600052604160045260246000fd5b61160d826115c4565b810181811067ffffffffffffffff8211171561162c5761162b6115d5565b5b80604052505050565b600061163f61146f565b905061164b8282611604565b919050565b600067ffffffffffffffff82111561166b5761166a6115d5565b5b611674826115c4565b9050602081019050919050565b82818337600083830152505050565b60006116a361169e84611650565b611635565b9050828152602081018484840111156116bf576116be6115bf565b5b6116ca848285611681565b509392505050565b600082601f8301126116e7576116e66115ba565b5b81356116f7848260208601611690565b91505092915050565b6000806040838503121561171757611716611479565b5b6000611725858286016114cc565b925050602083013567ffffffffffffffff8111156117465761174561147e565b5b611752858286016116d2565b9150509250929050565b6000819050919050565b61176f8161175c565b82525050565b600060208201905061178a6000830184611766565b92915050565b611799816114a3565b82525050565b60006020820190506117b46000830184611790565b92915050565b60006117c5826114a3565b9050919050565b6117d5816117ba565b81146117e057600080fd5b50565b6000813590506117f2816117cc565b92915050565b6000611803826114a3565b9050919050565b611813816117f8565b811461181e57600080fd5b50565b6000813590506118308161180a565b92915050565b6000806040838503121561184d5761184c611479565b5b600061185b858286016117e3565b925050602061186c85828601611821565b9150509250929050565b600082825260208201905092915050565b7f4f776e61626c653a2063616c6c6572206973206e6f7420746865206f776e6572600082015250565b60006118bd602083611876565b91506118c882611887565b602082019050919050565b600060208201905081810360008301526118ec816118b0565b9050919050565b7f46756e6374696f6e206d7573742062652063616c6c6564207468726f7567682060008201527f64656c656761746563616c6c0000000000000000000000000000000000000000602082015250565b600061194f602c83611876565b915061195a826118f3565b604082019050919050565b6000602082019050818103600083015261197e81611942565b9050919050565b7f46756e6374696f6e206d7573742062652063616c6c6564207468726f7567682060008201527f6163746976652070726f78790000000000000000000000000000000000000000602082015250565b60006119e1602c83611876565b91506119ec82611985565b604082019050919050565b60006020820190508181036000830152611a10816119d4565b9050919050565b611a208161150e565b82525050565b6000604082019050611a3b6000830185611790565b611a486020830184611a17565b9392505050565b611a5881611584565b8114611a6357600080fd5b50565b600081519050611a7581611a4f565b92915050565b600060208284031215611a9157611a90611479565b5b6000611a9f84828501611a66565b91505092915050565b7f555550535570677261646561626c653a206d757374206e6f742062652063616c60008201527f6c6564207468726f7567682064656c656761746563616c6c0000000000000000602082015250565b6000611b04603883611876565b9150611b0f82611aa8565b604082019050919050565b60006020820190508181036000830152611b3381611af7565b9050919050565b6000819050919050565b600060ff82169050919050565b6000819050919050565b6000611b76611b71611b6c84611b3a565b611b51565b611b44565b9050919050565b611b8681611b5b565b82525050565b6000602082019050611ba16000830184611b7d565b92915050565b7f4f776e61626c653a206e6577206f776e657220697320746865207a65726f206160008201527f6464726573730000000000000000000000000000000000000000000000000000602082015250565b6000611c03602683611876565b9150611c0e82611ba7565b604082019050919050565b60006020820190508181036000830152611c3281611bf6565b9050919050565b611c428161175c565b8114611c4d57600080fd5b50565b600081519050611c5f81611c39565b92915050565b600060208284031215611c7b57611c7a611479565b5b6000611c8984828501611c50565b91505092915050565b7f45524331393637557067726164653a206e657720696d706c656d656e7461746960008201527f6f6e206973206e6f742055555053000000000000000000000000000000000000602082015250565b6000611cee602e83611876565b9150611cf982611c92565b604082019050919050565b60006020820190508181036000830152611d1d81611ce1565b9050919050565b7f45524331393637557067726164653a20756e737570706f727465642070726f7860008201527f6961626c65555549440000000000000000000000000000000000000000000000602082015250565b6000611d80602983611876565b9150611d8b82611d24565b604082019050919050565b60006020820190508181036000830152611daf81611d73565b9050919050565b7f496e697469616c697a61626c653a20636f6e747261637420697320616c72656160008201527f647920696e697469616c697a6564000000000000000000000000000000000000602082015250565b6000611e12602e83611876565b9150611e1d82611db6565b604082019050919050565b60006020820190508181036000830152611e4181611e05565b9050919050565b7f455243313936373a206e657720696d706c656d656e746174696f6e206973206e60008201527f6f74206120636f6e747261637400000000000000000000000000000000000000602082015250565b6000611ea4602d83611876565b9150611eaf82611e48565b604082019050919050565b60006020820190508181036000830152611ed381611e97565b9050919050565b7f496e697469616c697a61626c653a20636f6e7472616374206973206e6f74206960008201527f6e697469616c697a696e67000000000000000000000000000000000000000000602082015250565b6000611f36602b83611876565b9150611f4182611eda565b604082019050919050565b60006020820190508181036000830152611f6581611f29565b9050919050565b7f416464726573733a2064656c65676174652063616c6c20746f206e6f6e2d636f60008201527f6e74726163740000000000000000000000000000000000000000000000000000602082015250565b6000611fc8602683611876565b9150611fd382611f6c565b604082019050919050565b60006020820190508181036000830152611ff781611fbb565b9050919050565b600081519050919050565b600081905092915050565b60005b83811015612032578082015181840152602081019050612017565b83811115612041576000848401525b50505050565b600061205282611ffe565b61205c8185612009565b935061206c818560208601612014565b80840191505092915050565b60006120848284612047565b915081905092915050565b600081519050919050565b60006120a58261208f565b6120af8185611876565b93506120bf818560208601612014565b6120c8816115c4565b840191505092915050565b600060208201905081810360008301526120ed818461209a565b90509291505056fe416464726573733a206c6f772d6c6576656c2064656c65676174652063616c6c206661696c6564a26469706673582212206d850f9c523eed3ffd328d20465e9aaf132885eb8570606f439f876f89397b1364736f6c634300080d0033",
  "immutableReferences": {
    "685": [
      {
        "length": 32,
        "start": 804
      },
      {
        "length": 32,
        "start": 946
      },
      {
        "length": 32,
        "start": 1544
      },
      {
        "length": 32,
        "start": 1686
      },
      {
        "length": 32,
        "start": 1862
      }
    ]
  },
  "source": "   \n// SPDX-License-Identifier: MIT\npragma solidity ^0.8.0;\n\nimport \"@openzeppelin/contracts-upgradeable/proxy/utils/UUPSUpgradeable.sol\";\n\nimport \"./GameOwnerUpgradeable.sol\";\nimport \"./FFFToken.sol\";\nimport \"./TestToken.sol\";\n\n\ncontract TestBank is GameOwnerUpgradeable, UUPSUpgradeable {\n\n    FunflowerFarmToken private fffToken;\n    TestToken private testToken;\n\n    function initialize() public override initializer {\n        GameOwnerUpgradeable.initialize();\n        gameRoles[msg.sender] = true;\n    }\n\n    function setTokens(FunflowerFarmToken _fffToken, TestToken _testToken) public onlyOwner {\n        fffToken = _fffToken;\n        testToken = _testToken;\n    }\n\n    function _authorizeUpgrade(address) internal override onlyOwner {}\n\n    function withdraw(uint256 fff, uint256 ttt) public returns (bool) {\n        fffToken.gameMint(_msgSender(), fff);\n        testToken.gameMint(_msgSender(), ttt);\n        return true;\n    }\n\n}",
  "sourcePath": "/mnt/c/Users/nfmelendez/crypto/contracts/contracts/TestBank.sol",
  "compiler": {
    "name": "solc",
    "version": "0.8.13+commit.abaa5c0e.Emscripten.clang"
  },
  "schemaVersion": "3.4.4",
  "updatedAt": "2022-05-13T20:39:14.164Z",
  "devdoc": {
    "kind": "dev",
    "methods": {
      "owner()": {
        "details": "Returns the address of the current owner."
      },
      "proxiableUUID()": {
        "details": "Implementation of the ERC1822 {proxiableUUID} function. This returns the storage slot used by the implementation. It is used to validate that the this implementation remains valid after an upgrade. IMPORTANT: A proxy pointing at a proxiable contract should not be considered proxiable itself, because this risks bricking a proxy that upgrades to it, by delegating to itself until out of gas. Thus it is critical that this function revert if invoked through a proxy. This is guaranteed by the `notDelegated` modifier."
      },
      "renounceOwnership()": {
        "details": "Leaves the contract without owner. It will not be possible to call `onlyOwner` functions anymore. Can only be called by the current owner. NOTE: Renouncing ownership will leave the contract without an owner, thereby removing any functionality that is only available to the owner."
      },
      "transferOwnership(address)": {
        "details": "Transfers ownership of the contract to a new account (`newOwner`). Can only be called by the current owner."
      },
      "upgradeTo(address)": {
        "details": "Upgrade the implementation of the proxy to `newImplementation`. Calls {_authorizeUpgrade}. Emits an {Upgraded} event."
      },
      "upgradeToAndCall(address,bytes)": {
        "details": "Upgrade the implementation of the proxy to `newImplementation`, and subsequently execute the function call encoded in `data`. Calls {_authorizeUpgrade}. Emits an {Upgraded} event."
      }
    },
    "version": 1
  },
  "userdoc": {
    "kind": "user",
    "methods": {},
    "version": 1
  }
}